Archive member included to satisfy reference by file (symbol)

d:/rt-threadstudio/repo/extract/toolchain_support_packages/arm/gnu_tools_for_arm_embedded_processors/5.4.1/bin/../lib/gcc/arm-none-eabi/5.4.1/../../../../arm-none-eabi/lib/armv7e-m/fpu\libc.a(lib_a-atof.o)
                              ./packages/gps_rmc-latest/gps_rmc.o (atof)
d:/rt-threadstudio/repo/extract/toolchain_support_packages/arm/gnu_tools_for_arm_embedded_processors/5.4.1/bin/../lib/gcc/arm-none-eabi/5.4.1/../../../../arm-none-eabi/lib/armv7e-m/fpu\libc.a(lib_a-atoi.o)
                              ./rt-thread/components/net/netdev/src/netdev.o (atoi)
d:/rt-threadstudio/repo/extract/toolchain_support_packages/arm/gnu_tools_for_arm_embedded_processors/5.4.1/bin/../lib/gcc/arm-none-eabi/5.4.1/../../../../arm-none-eabi/lib/armv7e-m/fpu\libc.a(lib_a-atol.o)
                              ./packages/gps_rmc-latest/gps_rmc.o (atol)
d:/rt-threadstudio/repo/extract/toolchain_support_packages/arm/gnu_tools_for_arm_embedded_processors/5.4.1/bin/../lib/gcc/arm-none-eabi/5.4.1/../../../../arm-none-eabi/lib/armv7e-m/fpu\libc.a(lib_a-exit.o)
                              d:/rt-threadstudio/repo/extract/toolchain_support_packages/arm/gnu_tools_for_arm_embedded_processors/5.4.1/bin/../lib/gcc/arm-none-eabi/5.4.1/../../../../arm-none-eabi/lib/armv7e-m/fpu/crt0.o (exit)
d:/rt-threadstudio/repo/extract/toolchain_support_packages/arm/gnu_tools_for_arm_embedded_processors/5.4.1/bin/../lib/gcc/arm-none-eabi/5.4.1/../../../../arm-none-eabi/lib/armv7e-m/fpu\libc.a(lib_a-fclose.o)
                              ./rt-thread/components/libc/compilers/gcc/newlib/stdio.o (fclose)
d:/rt-threadstudio/repo/extract/toolchain_support_packages/arm/gnu_tools_for_arm_embedded_processors/5.4.1/bin/../lib/gcc/arm-none-eabi/5.4.1/../../../../arm-none-eabi/lib/armv7e-m/fpu\libc.a(lib_a-fflush.o)
                              d:/rt-threadstudio/repo/extract/toolchain_support_packages/arm/gnu_tools_for_arm_embedded_processors/5.4.1/bin/../lib/gcc/arm-none-eabi/5.4.1/../../../../arm-none-eabi/lib/armv7e-m/fpu\libc.a(lib_a-fclose.o) (__sflush_r)
d:/rt-threadstudio/repo/extract/toolchain_support_packages/arm/gnu_tools_for_arm_embedded_processors/5.4.1/bin/../lib/gcc/arm-none-eabi/5.4.1/../../../../arm-none-eabi/lib/armv7e-m/fpu\libc.a(lib_a-fileno.o)
                              ./rt-thread/components/libc/compilers/gcc/newlib/stdio.o (fileno)
d:/rt-threadstudio/repo/extract/toolchain_support_packages/arm/gnu_tools_for_arm_embedded_processors/5.4.1/bin/../lib/gcc/arm-none-eabi/5.4.1/../../../../arm-none-eabi/lib/armv7e-m/fpu\libc.a(lib_a-findfp.o)
                              d:/rt-threadstudio/repo/extract/toolchain_support_packages/arm/gnu_tools_for_arm_embedded_processors/5.4.1/bin/../lib/gcc/arm-none-eabi/5.4.1/../../../../arm-none-eabi/lib/armv7e-m/fpu\libc.a(lib_a-fclose.o) (__sinit)
d:/rt-threadstudio/repo/extract/toolchain_support_packages/arm/gnu_tools_for_arm_embedded_processors/5.4.1/bin/../lib/gcc/arm-none-eabi/5.4.1/../../../../arm-none-eabi/lib/armv7e-m/fpu\libc.a(lib_a-fopen.o)
                              ./rt-thread/components/libc/compilers/gcc/newlib/stdio.o (fopen)
d:/rt-threadstudio/repo/extract/toolchain_support_packages/arm/gnu_tools_for_arm_embedded_processors/5.4.1/bin/../lib/gcc/arm-none-eabi/5.4.1/../../../../arm-none-eabi/lib/armv7e-m/fpu\libc.a(lib_a-fseek.o)
                              d:/rt-threadstudio/repo/extract/toolchain_support_packages/arm/gnu_tools_for_arm_embedded_processors/5.4.1/bin/../lib/gcc/arm-none-eabi/5.4.1/../../../../arm-none-eabi/lib/armv7e-m/fpu\libc.a(lib_a-fopen.o) (_fseek_r)
d:/rt-threadstudio/repo/extract/toolchain_support_packages/arm/gnu_tools_for_arm_embedded_processors/5.4.1/bin/../lib/gcc/arm-none-eabi/5.4.1/../../../../arm-none-eabi/lib/armv7e-m/fpu\libc.a(lib_a-fseeko.o)
                              d:/rt-threadstudio/repo/extract/toolchain_support_packages/arm/gnu_tools_for_arm_embedded_processors/5.4.1/bin/../lib/gcc/arm-none-eabi/5.4.1/../../../../arm-none-eabi/lib/armv7e-m/fpu\libc.a(lib_a-fseek.o) (_fseeko_r)
d:/rt-threadstudio/repo/extract/toolchain_support_packages/arm/gnu_tools_for_arm_embedded_processors/5.4.1/bin/../lib/gcc/arm-none-eabi/5.4.1/../../../../arm-none-eabi/lib/armv7e-m/fpu\libc.a(lib_a-fwalk.o)
                              d:/rt-threadstudio/repo/extract/toolchain_support_packages/arm/gnu_tools_for_arm_embedded_processors/5.4.1/bin/../lib/gcc/arm-none-eabi/5.4.1/../../../../arm-none-eabi/lib/armv7e-m/fpu\libc.a(lib_a-findfp.o) (_fwalk)
d:/rt-threadstudio/repo/extract/toolchain_support_packages/arm/gnu_tools_for_arm_embedded_processors/5.4.1/bin/../lib/gcc/arm-none-eabi/5.4.1/../../../../arm-none-eabi/lib/armv7e-m/fpu\libc.a(lib_a-getc.o)
                              ./rt-thread/components/drivers/serial/serial.o (getc)
d:/rt-threadstudio/repo/extract/toolchain_support_packages/arm/gnu_tools_for_arm_embedded_processors/5.4.1/bin/../lib/gcc/arm-none-eabi/5.4.1/../../../../arm-none-eabi/lib/armv7e-m/fpu\libc.a(lib_a-impure.o)
                              ./rt-thread/components/libc/compilers/gcc/newlib/stdio.o (_global_impure_ptr)
d:/rt-threadstudio/repo/extract/toolchain_support_packages/arm/gnu_tools_for_arm_embedded_processors/5.4.1/bin/../lib/gcc/arm-none-eabi/5.4.1/../../../../arm-none-eabi/lib/armv7e-m/fpu\libc.a(lib_a-locale.o)
                              ./rt-thread/components/net/at/at_socket/at_socket.o (__locale_ctype_ptr)
d:/rt-threadstudio/repo/extract/toolchain_support_packages/arm/gnu_tools_for_arm_embedded_processors/5.4.1/bin/../lib/gcc/arm-none-eabi/5.4.1/../../../../arm-none-eabi/lib/armv7e-m/fpu\libc.a(lib_a-makebuf.o)
                              d:/rt-threadstudio/repo/extract/toolchain_support_packages/arm/gnu_tools_for_arm_embedded_processors/5.4.1/bin/../lib/gcc/arm-none-eabi/5.4.1/../../../../arm-none-eabi/lib/armv7e-m/fpu\libc.a(lib_a-fseeko.o) (__smakebuf_r)
d:/rt-threadstudio/repo/extract/toolchain_support_packages/arm/gnu_tools_for_arm_embedded_processors/5.4.1/bin/../lib/gcc/arm-none-eabi/5.4.1/../../../../arm-none-eabi/lib/armv7e-m/fpu\libc.a(lib_a-mbtowc_r.o)
                              d:/rt-threadstudio/repo/extract/toolchain_support_packages/arm/gnu_tools_for_arm_embedded_processors/5.4.1/bin/../lib/gcc/arm-none-eabi/5.4.1/../../../../arm-none-eabi/lib/armv7e-m/fpu\libc.a(lib_a-locale.o) (__ascii_mbtowc)
d:/rt-threadstudio/repo/extract/toolchain_support_packages/arm/gnu_tools_for_arm_embedded_processors/5.4.1/bin/../lib/gcc/arm-none-eabi/5.4.1/../../../../arm-none-eabi/lib/armv7e-m/fpu\libc.a(lib_a-memcmp.o)
                              ./rt-thread/components/finsh/shell.o (memcmp)
d:/rt-threadstudio/repo/extract/toolchain_support_packages/arm/gnu_tools_for_arm_embedded_processors/5.4.1/bin/../lib/gcc/arm-none-eabi/5.4.1/../../../../arm-none-eabi/lib/armv7e-m/fpu\libc.a(lib_a-memcpy.o)
                              ./rt-thread/components/net/at/at_socket/at_socket.o (memcpy)
d:/rt-threadstudio/repo/extract/toolchain_support_packages/arm/gnu_tools_for_arm_embedded_processors/5.4.1/bin/../lib/gcc/arm-none-eabi/5.4.1/../../../../arm-none-eabi/lib/armv7e-m/fpu\libc.a(lib_a-memset.o)
                              d:/rt-threadstudio/repo/extract/toolchain_support_packages/arm/gnu_tools_for_arm_embedded_processors/5.4.1/bin/../lib/gcc/arm-none-eabi/5.4.1/../../../../arm-none-eabi/lib/armv7e-m/fpu/crt0.o (memset)
d:/rt-threadstudio/repo/extract/toolchain_support_packages/arm/gnu_tools_for_arm_embedded_processors/5.4.1/bin/../lib/gcc/arm-none-eabi/5.4.1/../../../../arm-none-eabi/lib/armv7e-m/fpu\libc.a(lib_a-printf.o)
                              ./packages/gps_rmc-latest/gps_rmc.o (printf)
d:/rt-threadstudio/repo/extract/toolchain_support_packages/arm/gnu_tools_for_arm_embedded_processors/5.4.1/bin/../lib/gcc/arm-none-eabi/5.4.1/../../../../arm-none-eabi/lib/armv7e-m/fpu\libc.a(lib_a-putenv.o)
                              ./rt-thread/components/libc/compilers/gcc/newlib/libc.o (putenv)
d:/rt-threadstudio/repo/extract/toolchain_support_packages/arm/gnu_tools_for_arm_embedded_processors/5.4.1/bin/../lib/gcc/arm-none-eabi/5.4.1/../../../../arm-none-eabi/lib/armv7e-m/fpu\libc.a(lib_a-putenv_r.o)
                              d:/rt-threadstudio/repo/extract/toolchain_support_packages/arm/gnu_tools_for_arm_embedded_processors/5.4.1/bin/../lib/gcc/arm-none-eabi/5.4.1/../../../../arm-none-eabi/lib/armv7e-m/fpu\libc.a(lib_a-putenv.o) (_putenv_r)
d:/rt-threadstudio/repo/extract/toolchain_support_packages/arm/gnu_tools_for_arm_embedded_processors/5.4.1/bin/../lib/gcc/arm-none-eabi/5.4.1/../../../../arm-none-eabi/lib/armv7e-m/fpu\libc.a(lib_a-puts.o)
                              ./packages/gps_rmc-latest/gps_rmc.o (puts)
d:/rt-threadstudio/repo/extract/toolchain_support_packages/arm/gnu_tools_for_arm_embedded_processors/5.4.1/bin/../lib/gcc/arm-none-eabi/5.4.1/../../../../arm-none-eabi/lib/armv7e-m/fpu\libc.a(lib_a-refill.o)
                              d:/rt-threadstudio/repo/extract/toolchain_support_packages/arm/gnu_tools_for_arm_embedded_processors/5.4.1/bin/../lib/gcc/arm-none-eabi/5.4.1/../../../../arm-none-eabi/lib/armv7e-m/fpu\libc.a(lib_a-fseeko.o) (__srefill_r)
d:/rt-threadstudio/repo/extract/toolchain_support_packages/arm/gnu_tools_for_arm_embedded_processors/5.4.1/bin/../lib/gcc/arm-none-eabi/5.4.1/../../../../arm-none-eabi/lib/armv7e-m/fpu\libc.a(lib_a-rget.o)
                              ./rt-thread/components/finsh/shell.o (__srget_r)
d:/rt-threadstudio/repo/extract/toolchain_support_packages/arm/gnu_tools_for_arm_embedded_processors/5.4.1/bin/../lib/gcc/arm-none-eabi/5.4.1/../../../../arm-none-eabi/lib/armv7e-m/fpu\libc.a(lib_a-setenv_r.o)
                              d:/rt-threadstudio/repo/extract/toolchain_support_packages/arm/gnu_tools_for_arm_embedded_processors/5.4.1/bin/../lib/gcc/arm-none-eabi/5.4.1/../../../../arm-none-eabi/lib/armv7e-m/fpu\libc.a(lib_a-putenv_r.o) (_setenv_r)
d:/rt-threadstudio/repo/extract/toolchain_support_packages/arm/gnu_tools_for_arm_embedded_processors/5.4.1/bin/../lib/gcc/arm-none-eabi/5.4.1/../../../../arm-none-eabi/lib/armv7e-m/fpu\libc.a(lib_a-setvbuf.o)
                              ./rt-thread/components/libc/compilers/gcc/newlib/stdio.o (setvbuf)
d:/rt-threadstudio/repo/extract/toolchain_support_packages/arm/gnu_tools_for_arm_embedded_processors/5.4.1/bin/../lib/gcc/arm-none-eabi/5.4.1/../../../../arm-none-eabi/lib/armv7e-m/fpu\libc.a(lib_a-snprintf.o)
                              ./rt-thread/components/libc/compilers/gcc/newlib/stdio.o (snprintf)
d:/rt-threadstudio/repo/extract/toolchain_support_packages/arm/gnu_tools_for_arm_embedded_processors/5.4.1/bin/../lib/gcc/arm-none-eabi/5.4.1/../../../../arm-none-eabi/lib/armv7e-m/fpu\libc.a(lib_a-sprintf.o)
                              ./packages/gps_rmc-latest/gps_rmc.o (sprintf)
d:/rt-threadstudio/repo/extract/toolchain_support_packages/arm/gnu_tools_for_arm_embedded_processors/5.4.1/bin/../lib/gcc/arm-none-eabi/5.4.1/../../../../arm-none-eabi/lib/armv7e-m/fpu\libc.a(lib_a-sscanf.o)
                              ./packages/gps_rmc-latest/gps_rmc.o (sscanf)
d:/rt-threadstudio/repo/extract/toolchain_support_packages/arm/gnu_tools_for_arm_embedded_processors/5.4.1/bin/../lib/gcc/arm-none-eabi/5.4.1/../../../../arm-none-eabi/lib/armv7e-m/fpu\libc.a(lib_a-stdio.o)
                              d:/rt-threadstudio/repo/extract/toolchain_support_packages/arm/gnu_tools_for_arm_embedded_processors/5.4.1/bin/../lib/gcc/arm-none-eabi/5.4.1/../../../../arm-none-eabi/lib/armv7e-m/fpu\libc.a(lib_a-findfp.o) (__sread)
d:/rt-threadstudio/repo/extract/toolchain_support_packages/arm/gnu_tools_for_arm_embedded_processors/5.4.1/bin/../lib/gcc/arm-none-eabi/5.4.1/../../../../arm-none-eabi/lib/armv7e-m/fpu\libc.a(lib_a-strchr.o)
                              ./rt-thread/components/net/at/at_socket/at_socket.o (strchr)
d:/rt-threadstudio/repo/extract/toolchain_support_packages/arm/gnu_tools_for_arm_embedded_processors/5.4.1/bin/../lib/gcc/arm-none-eabi/5.4.1/../../../../arm-none-eabi/lib/armv7e-m/fpu\libc.a(lib_a-strcmp.o)
                              ./rt-thread/components/net/at/src/at_cli.o (strcmp)
d:/rt-threadstudio/repo/extract/toolchain_support_packages/arm/gnu_tools_for_arm_embedded_processors/5.4.1/bin/../lib/gcc/arm-none-eabi/5.4.1/../../../../arm-none-eabi/lib/armv7e-m/fpu\libc.a(lib_a-strcpy.o)
                              ./rt-thread/components/finsh/msh.o (strcpy)
d:/rt-threadstudio/repo/extract/toolchain_support_packages/arm/gnu_tools_for_arm_embedded_processors/5.4.1/bin/../lib/gcc/arm-none-eabi/5.4.1/../../../../arm-none-eabi/lib/armv7e-m/fpu\libc.a(lib_a-strdup_r.o)
                              d:/rt-threadstudio/repo/extract/toolchain_support_packages/arm/gnu_tools_for_arm_embedded_processors/5.4.1/bin/../lib/gcc/arm-none-eabi/5.4.1/../../../../arm-none-eabi/lib/armv7e-m/fpu\libc.a(lib_a-putenv_r.o) (_strdup_r)
d:/rt-threadstudio/repo/extract/toolchain_support_packages/arm/gnu_tools_for_arm_embedded_processors/5.4.1/bin/../lib/gcc/arm-none-eabi/5.4.1/../../../../arm-none-eabi/lib/armv7e-m/fpu\libc.a(lib_a-strlen.o)
                              ./rt-thread/components/net/at/src/at_client.o (strlen)
d:/rt-threadstudio/repo/extract/toolchain_support_packages/arm/gnu_tools_for_arm_embedded_processors/5.4.1/bin/../lib/gcc/arm-none-eabi/5.4.1/../../../../arm-none-eabi/lib/armv7e-m/fpu\libc.a(lib_a-strncmp.o)
                              ./rt-thread/components/finsh/cmd.o (strncmp)
d:/rt-threadstudio/repo/extract/toolchain_support_packages/arm/gnu_tools_for_arm_embedded_processors/5.4.1/bin/../lib/gcc/arm-none-eabi/5.4.1/../../../../arm-none-eabi/lib/armv7e-m/fpu\libc.a(lib_a-strncpy.o)
                              ./rt-thread/components/net/at/at_socket/at_socket.o (strncpy)
d:/rt-threadstudio/repo/extract/toolchain_support_packages/arm/gnu_tools_for_arm_embedded_processors/5.4.1/bin/../lib/gcc/arm-none-eabi/5.4.1/../../../../arm-none-eabi/lib/armv7e-m/fpu\libc.a(lib_a-strrchr.o)
                              ./rt-thread/components/dfs/src/dfs_file.o (strrchr)
d:/rt-threadstudio/repo/extract/toolchain_support_packages/arm/gnu_tools_for_arm_embedded_processors/5.4.1/bin/../lib/gcc/arm-none-eabi/5.4.1/../../../../arm-none-eabi/lib/armv7e-m/fpu\libc.a(lib_a-strstr.o)
                              ./rt-thread/components/net/at/src/at_client.o (strstr)
d:/rt-threadstudio/repo/extract/toolchain_support_packages/arm/gnu_tools_for_arm_embedded_processors/5.4.1/bin/../lib/gcc/arm-none-eabi/5.4.1/../../../../arm-none-eabi/lib/armv7e-m/fpu\libc.a(lib_a-strtod.o)
                              d:/rt-threadstudio/repo/extract/toolchain_support_packages/arm/gnu_tools_for_arm_embedded_processors/5.4.1/bin/../lib/gcc/arm-none-eabi/5.4.1/../../../../arm-none-eabi/lib/armv7e-m/fpu\libc.a(lib_a-atof.o) (strtod)
d:/rt-threadstudio/repo/extract/toolchain_support_packages/arm/gnu_tools_for_arm_embedded_processors/5.4.1/bin/../lib/gcc/arm-none-eabi/5.4.1/../../../../arm-none-eabi/lib/armv7e-m/fpu\libc.a(lib_a-strtol.o)
                              d:/rt-threadstudio/repo/extract/toolchain_support_packages/arm/gnu_tools_for_arm_embedded_processors/5.4.1/bin/../lib/gcc/arm-none-eabi/5.4.1/../../../../arm-none-eabi/lib/armv7e-m/fpu\libc.a(lib_a-atoi.o) (_strtol_r)
d:/rt-threadstudio/repo/extract/toolchain_support_packages/arm/gnu_tools_for_arm_embedded_processors/5.4.1/bin/../lib/gcc/arm-none-eabi/5.4.1/../../../../arm-none-eabi/lib/armv7e-m/fpu\libc.a(lib_a-svfprintf.o)
                              d:/rt-threadstudio/repo/extract/toolchain_support_packages/arm/gnu_tools_for_arm_embedded_processors/5.4.1/bin/../lib/gcc/arm-none-eabi/5.4.1/../../../../arm-none-eabi/lib/armv7e-m/fpu\libc.a(lib_a-snprintf.o) (_svfprintf_r)
d:/rt-threadstudio/repo/extract/toolchain_support_packages/arm/gnu_tools_for_arm_embedded_processors/5.4.1/bin/../lib/gcc/arm-none-eabi/5.4.1/../../../../arm-none-eabi/lib/armv7e-m/fpu\libc.a(lib_a-svfscanf.o)
                              d:/rt-threadstudio/repo/extract/toolchain_support_packages/arm/gnu_tools_for_arm_embedded_processors/5.4.1/bin/../lib/gcc/arm-none-eabi/5.4.1/../../../../arm-none-eabi/lib/armv7e-m/fpu\libc.a(lib_a-sscanf.o) (__ssvfscanf_r)
d:/rt-threadstudio/repo/extract/toolchain_support_packages/arm/gnu_tools_for_arm_embedded_processors/5.4.1/bin/../lib/gcc/arm-none-eabi/5.4.1/../../../../arm-none-eabi/lib/armv7e-m/fpu\libc.a(lib_a-vfprintf.o)
                              d:/rt-threadstudio/repo/extract/toolchain_support_packages/arm/gnu_tools_for_arm_embedded_processors/5.4.1/bin/../lib/gcc/arm-none-eabi/5.4.1/../../../../arm-none-eabi/lib/armv7e-m/fpu\libc.a(lib_a-printf.o) (_vfprintf_r)
d:/rt-threadstudio/repo/extract/toolchain_support_packages/arm/gnu_tools_for_arm_embedded_processors/5.4.1/bin/../lib/gcc/arm-none-eabi/5.4.1/../../../../arm-none-eabi/lib/armv7e-m/fpu\libc.a(lib_a-vsnprintf.o)
                              ./rt-thread/components/net/at/src/at_utils.o (vsnprintf)
d:/rt-threadstudio/repo/extract/toolchain_support_packages/arm/gnu_tools_for_arm_embedded_processors/5.4.1/bin/../lib/gcc/arm-none-eabi/5.4.1/../../../../arm-none-eabi/lib/armv7e-m/fpu\libc.a(lib_a-vsscanf.o)
                              ./rt-thread/components/net/at/src/at_client.o (vsscanf)
d:/rt-threadstudio/repo/extract/toolchain_support_packages/arm/gnu_tools_for_arm_embedded_processors/5.4.1/bin/../lib/gcc/arm-none-eabi/5.4.1/../../../../arm-none-eabi/lib/armv7e-m/fpu\libc.a(lib_a-wctomb_r.o)
                              d:/rt-threadstudio/repo/extract/toolchain_support_packages/arm/gnu_tools_for_arm_embedded_processors/5.4.1/bin/../lib/gcc/arm-none-eabi/5.4.1/../../../../arm-none-eabi/lib/armv7e-m/fpu\libc.a(lib_a-locale.o) (__ascii_wctomb)
d:/rt-threadstudio/repo/extract/toolchain_support_packages/arm/gnu_tools_for_arm_embedded_processors/5.4.1/bin/../lib/gcc/arm-none-eabi/5.4.1/../../../../arm-none-eabi/lib/armv7e-m/fpu\libc.a(lib_a-wsetup.o)
                              d:/rt-threadstudio/repo/extract/toolchain_support_packages/arm/gnu_tools_for_arm_embedded_processors/5.4.1/bin/../lib/gcc/arm-none-eabi/5.4.1/../../../../arm-none-eabi/lib/armv7e-m/fpu\libc.a(lib_a-vfprintf.o) (__swsetup_r)
d:/rt-threadstudio/repo/extract/toolchain_support_packages/arm/gnu_tools_for_arm_embedded_processors/5.4.1/bin/../lib/gcc/arm-none-eabi/5.4.1/../../../../arm-none-eabi/lib/armv7e-m/fpu\libc.a(lib_a-__call_atexit.o)
                              d:/rt-threadstudio/repo/extract/toolchain_support_packages/arm/gnu_tools_for_arm_embedded_processors/5.4.1/bin/../lib/gcc/arm-none-eabi/5.4.1/../../../../arm-none-eabi/lib/armv7e-m/fpu\libc.a(lib_a-exit.o) (__call_exitprocs)
d:/rt-threadstudio/repo/extract/toolchain_support_packages/arm/gnu_tools_for_arm_embedded_processors/5.4.1/bin/../lib/gcc/arm-none-eabi/5.4.1/../../../../arm-none-eabi/lib/armv7e-m/fpu\libc.a(lib_a-atexit.o)
                              d:/rt-threadstudio/repo/extract/toolchain_support_packages/arm/gnu_tools_for_arm_embedded_processors/5.4.1/bin/../lib/gcc/arm-none-eabi/5.4.1/../../../../arm-none-eabi/lib/armv7e-m/fpu\libc.a(lib_a-__call_atexit.o) (atexit)
d:/rt-threadstudio/repo/extract/toolchain_support_packages/arm/gnu_tools_for_arm_embedded_processors/5.4.1/bin/../lib/gcc/arm-none-eabi/5.4.1/../../../../arm-none-eabi/lib/armv7e-m/fpu\libc.a(lib_a-ctype_.o)
                              d:/rt-threadstudio/repo/extract/toolchain_support_packages/arm/gnu_tools_for_arm_embedded_processors/5.4.1/bin/../lib/gcc/arm-none-eabi/5.4.1/../../../../arm-none-eabi/lib/armv7e-m/fpu\libc.a(lib_a-locale.o) (_ctype_)
d:/rt-threadstudio/repo/extract/toolchain_support_packages/arm/gnu_tools_for_arm_embedded_processors/5.4.1/bin/../lib/gcc/arm-none-eabi/5.4.1/../../../../arm-none-eabi/lib/armv7e-m/fpu\libc.a(lib_a-dtoa.o)
                              d:/rt-threadstudio/repo/extract/toolchain_support_packages/arm/gnu_tools_for_arm_embedded_processors/5.4.1/bin/../lib/gcc/arm-none-eabi/5.4.1/../../../../arm-none-eabi/lib/armv7e-m/fpu\libc.a(lib_a-svfprintf.o) (_dtoa_r)
d:/rt-threadstudio/repo/extract/toolchain_support_packages/arm/gnu_tools_for_arm_embedded_processors/5.4.1/bin/../lib/gcc/arm-none-eabi/5.4.1/../../../../arm-none-eabi/lib/armv7e-m/fpu\libc.a(lib_a-environ.o)
                              d:/rt-threadstudio/repo/extract/toolchain_support_packages/arm/gnu_tools_for_arm_embedded_processors/5.4.1/bin/../lib/gcc/arm-none-eabi/5.4.1/../../../../arm-none-eabi/lib/armv7e-m/fpu\libc.a(lib_a-setenv_r.o) (environ)
d:/rt-threadstudio/repo/extract/toolchain_support_packages/arm/gnu_tools_for_arm_embedded_processors/5.4.1/bin/../lib/gcc/arm-none-eabi/5.4.1/../../../../arm-none-eabi/lib/armv7e-m/fpu\libc.a(lib_a-envlock.o)
                              d:/rt-threadstudio/repo/extract/toolchain_support_packages/arm/gnu_tools_for_arm_embedded_processors/5.4.1/bin/../lib/gcc/arm-none-eabi/5.4.1/../../../../arm-none-eabi/lib/armv7e-m/fpu\libc.a(lib_a-setenv_r.o) (__env_lock)
d:/rt-threadstudio/repo/extract/toolchain_support_packages/arm/gnu_tools_for_arm_embedded_processors/5.4.1/bin/../lib/gcc/arm-none-eabi/5.4.1/../../../../arm-none-eabi/lib/armv7e-m/fpu\libc.a(lib_a-fini.o)
                              d:/rt-threadstudio/repo/extract/toolchain_support_packages/arm/gnu_tools_for_arm_embedded_processors/5.4.1/bin/../lib/gcc/arm-none-eabi/5.4.1/../../../../arm-none-eabi/lib/armv7e-m/fpu\libc.a(lib_a-__call_atexit.o) (__libc_fini_array)
d:/rt-threadstudio/repo/extract/toolchain_support_packages/arm/gnu_tools_for_arm_embedded_processors/5.4.1/bin/../lib/gcc/arm-none-eabi/5.4.1/../../../../arm-none-eabi/lib/armv7e-m/fpu\libc.a(lib_a-flags.o)
                              d:/rt-threadstudio/repo/extract/toolchain_support_packages/arm/gnu_tools_for_arm_embedded_processors/5.4.1/bin/../lib/gcc/arm-none-eabi/5.4.1/../../../../arm-none-eabi/lib/armv7e-m/fpu\libc.a(lib_a-fopen.o) (__sflags)
d:/rt-threadstudio/repo/extract/toolchain_support_packages/arm/gnu_tools_for_arm_embedded_processors/5.4.1/bin/../lib/gcc/arm-none-eabi/5.4.1/../../../../arm-none-eabi/lib/armv7e-m/fpu\libc.a(lib_a-fvwrite.o)
                              d:/rt-threadstudio/repo/extract/toolchain_support_packages/arm/gnu_tools_for_arm_embedded_processors/5.4.1/bin/../lib/gcc/arm-none-eabi/5.4.1/../../../../arm-none-eabi/lib/armv7e-m/fpu\libc.a(lib_a-puts.o) (__sfvwrite_r)
d:/rt-threadstudio/repo/extract/toolchain_support_packages/arm/gnu_tools_for_arm_embedded_processors/5.4.1/bin/../lib/gcc/arm-none-eabi/5.4.1/../../../../arm-none-eabi/lib/armv7e-m/fpu\libc.a(lib_a-gdtoa-gethex.o)
                              d:/rt-threadstudio/repo/extract/toolchain_support_packages/arm/gnu_tools_for_arm_embedded_processors/5.4.1/bin/../lib/gcc/arm-none-eabi/5.4.1/../../../../arm-none-eabi/lib/armv7e-m/fpu\libc.a(lib_a-strtod.o) (__gethex)
d:/rt-threadstudio/repo/extract/toolchain_support_packages/arm/gnu_tools_for_arm_embedded_processors/5.4.1/bin/../lib/gcc/arm-none-eabi/5.4.1/../../../../arm-none-eabi/lib/armv7e-m/fpu\libc.a(lib_a-gdtoa-hexnan.o)
                              d:/rt-threadstudio/repo/extract/toolchain_support_packages/arm/gnu_tools_for_arm_embedded_processors/5.4.1/bin/../lib/gcc/arm-none-eabi/5.4.1/../../../../arm-none-eabi/lib/armv7e-m/fpu\libc.a(lib_a-strtod.o) (__match)
d:/rt-threadstudio/repo/extract/toolchain_support_packages/arm/gnu_tools_for_arm_embedded_processors/5.4.1/bin/../lib/gcc/arm-none-eabi/5.4.1/../../../../arm-none-eabi/lib/armv7e-m/fpu\libc.a(lib_a-getenv_r.o)
                              d:/rt-threadstudio/repo/extract/toolchain_support_packages/arm/gnu_tools_for_arm_embedded_processors/5.4.1/bin/../lib/gcc/arm-none-eabi/5.4.1/../../../../arm-none-eabi/lib/armv7e-m/fpu\libc.a(lib_a-setenv_r.o) (_findenv_r)
d:/rt-threadstudio/repo/extract/toolchain_support_packages/arm/gnu_tools_for_arm_embedded_processors/5.4.1/bin/../lib/gcc/arm-none-eabi/5.4.1/../../../../arm-none-eabi/lib/armv7e-m/fpu\libc.a(lib_a-iswspace.o)
                              d:/rt-threadstudio/repo/extract/toolchain_support_packages/arm/gnu_tools_for_arm_embedded_processors/5.4.1/bin/../lib/gcc/arm-none-eabi/5.4.1/../../../../arm-none-eabi/lib/armv7e-m/fpu\libc.a(lib_a-svfscanf.o) (iswspace)
d:/rt-threadstudio/repo/extract/toolchain_support_packages/arm/gnu_tools_for_arm_embedded_processors/5.4.1/bin/../lib/gcc/arm-none-eabi/5.4.1/../../../../arm-none-eabi/lib/armv7e-m/fpu\libc.a(lib_a-localeconv.o)
                              d:/rt-threadstudio/repo/extract/toolchain_support_packages/arm/gnu_tools_for_arm_embedded_processors/5.4.1/bin/../lib/gcc/arm-none-eabi/5.4.1/../../../../arm-none-eabi/lib/armv7e-m/fpu\libc.a(lib_a-strtod.o) (__localeconv_l)
d:/rt-threadstudio/repo/extract/toolchain_support_packages/arm/gnu_tools_for_arm_embedded_processors/5.4.1/bin/../lib/gcc/arm-none-eabi/5.4.1/../../../../arm-none-eabi/lib/armv7e-m/fpu\libc.a(lib_a-malloc.o)
                              d:/rt-threadstudio/repo/extract/toolchain_support_packages/arm/gnu_tools_for_arm_embedded_processors/5.4.1/bin/../lib/gcc/arm-none-eabi/5.4.1/../../../../arm-none-eabi/lib/armv7e-m/fpu\libc.a(lib_a-setvbuf.o) (malloc)
d:/rt-threadstudio/repo/extract/toolchain_support_packages/arm/gnu_tools_for_arm_embedded_processors/5.4.1/bin/../lib/gcc/arm-none-eabi/5.4.1/../../../../arm-none-eabi/lib/armv7e-m/fpu\libc.a(lib_a-mbrtowc.o)
                              d:/rt-threadstudio/repo/extract/toolchain_support_packages/arm/gnu_tools_for_arm_embedded_processors/5.4.1/bin/../lib/gcc/arm-none-eabi/5.4.1/../../../../arm-none-eabi/lib/armv7e-m/fpu\libc.a(lib_a-svfscanf.o) (_mbrtowc_r)
d:/rt-threadstudio/repo/extract/toolchain_support_packages/arm/gnu_tools_for_arm_embedded_processors/5.4.1/bin/../lib/gcc/arm-none-eabi/5.4.1/../../../../arm-none-eabi/lib/armv7e-m/fpu\libc.a(lib_a-memchr.o)
                              d:/rt-threadstudio/repo/extract/toolchain_support_packages/arm/gnu_tools_for_arm_embedded_processors/5.4.1/bin/../lib/gcc/arm-none-eabi/5.4.1/../../../../arm-none-eabi/lib/armv7e-m/fpu\libc.a(lib_a-strstr.o) (memchr)
d:/rt-threadstudio/repo/extract/toolchain_support_packages/arm/gnu_tools_for_arm_embedded_processors/5.4.1/bin/../lib/gcc/arm-none-eabi/5.4.1/../../../../arm-none-eabi/lib/armv7e-m/fpu\libc.a(lib_a-memmove.o)
                              d:/rt-threadstudio/repo/extract/toolchain_support_packages/arm/gnu_tools_for_arm_embedded_processors/5.4.1/bin/../lib/gcc/arm-none-eabi/5.4.1/../../../../arm-none-eabi/lib/armv7e-m/fpu\libc.a(lib_a-fvwrite.o) (memmove)
d:/rt-threadstudio/repo/extract/toolchain_support_packages/arm/gnu_tools_for_arm_embedded_processors/5.4.1/bin/../lib/gcc/arm-none-eabi/5.4.1/../../../../arm-none-eabi/lib/armv7e-m/fpu\libc.a(lib_a-mprec.o)
                              d:/rt-threadstudio/repo/extract/toolchain_support_packages/arm/gnu_tools_for_arm_embedded_processors/5.4.1/bin/../lib/gcc/arm-none-eabi/5.4.1/../../../../arm-none-eabi/lib/armv7e-m/fpu\libc.a(lib_a-strtod.o) (_Balloc)
d:/rt-threadstudio/repo/extract/toolchain_support_packages/arm/gnu_tools_for_arm_embedded_processors/5.4.1/bin/../lib/gcc/arm-none-eabi/5.4.1/../../../../arm-none-eabi/lib/armv7e-m/fpu\libc.a(lib_a-sccl.o)
                              d:/rt-threadstudio/repo/extract/toolchain_support_packages/arm/gnu_tools_for_arm_embedded_processors/5.4.1/bin/../lib/gcc/arm-none-eabi/5.4.1/../../../../arm-none-eabi/lib/armv7e-m/fpu\libc.a(lib_a-svfscanf.o) (__sccl)
d:/rt-threadstudio/repo/extract/toolchain_support_packages/arm/gnu_tools_for_arm_embedded_processors/5.4.1/bin/../lib/gcc/arm-none-eabi/5.4.1/../../../../arm-none-eabi/lib/armv7e-m/fpu\libc.a(lib_a-sf_nan.o)
                              d:/rt-threadstudio/repo/extract/toolchain_support_packages/arm/gnu_tools_for_arm_embedded_processors/5.4.1/bin/../lib/gcc/arm-none-eabi/5.4.1/../../../../arm-none-eabi/lib/armv7e-m/fpu\libc.a(lib_a-strtod.o) (nanf)
d:/rt-threadstudio/repo/extract/toolchain_support_packages/arm/gnu_tools_for_arm_embedded_processors/5.4.1/bin/../lib/gcc/arm-none-eabi/5.4.1/../../../../arm-none-eabi/lib/armv7e-m/fpu\libc.a(lib_a-strtoll.o)
                              d:/rt-threadstudio/repo/extract/toolchain_support_packages/arm/gnu_tools_for_arm_embedded_processors/5.4.1/bin/../lib/gcc/arm-none-eabi/5.4.1/../../../../arm-none-eabi/lib/armv7e-m/fpu\libc.a(lib_a-svfscanf.o) (_strtoll_r)
d:/rt-threadstudio/repo/extract/toolchain_support_packages/arm/gnu_tools_for_arm_embedded_processors/5.4.1/bin/../lib/gcc/arm-none-eabi/5.4.1/../../../../arm-none-eabi/lib/armv7e-m/fpu\libc.a(lib_a-strtoul.o)
                              d:/rt-threadstudio/repo/extract/toolchain_support_packages/arm/gnu_tools_for_arm_embedded_processors/5.4.1/bin/../lib/gcc/arm-none-eabi/5.4.1/../../../../arm-none-eabi/lib/armv7e-m/fpu\libc.a(lib_a-svfscanf.o) (_strtoul_r)
d:/rt-threadstudio/repo/extract/toolchain_support_packages/arm/gnu_tools_for_arm_embedded_processors/5.4.1/bin/../lib/gcc/arm-none-eabi/5.4.1/../../../../arm-none-eabi/lib/armv7e-m/fpu\libc.a(lib_a-strtoull.o)
                              d:/rt-threadstudio/repo/extract/toolchain_support_packages/arm/gnu_tools_for_arm_embedded_processors/5.4.1/bin/../lib/gcc/arm-none-eabi/5.4.1/../../../../arm-none-eabi/lib/armv7e-m/fpu\libc.a(lib_a-svfscanf.o) (_strtoull_r)
d:/rt-threadstudio/repo/extract/toolchain_support_packages/arm/gnu_tools_for_arm_embedded_processors/5.4.1/bin/../lib/gcc/arm-none-eabi/5.4.1/../../../../arm-none-eabi/lib/armv7e-m/fpu\libc.a(lib_a-svfiprintf.o)
                              d:/rt-threadstudio/repo/extract/toolchain_support_packages/arm/gnu_tools_for_arm_embedded_processors/5.4.1/bin/../lib/gcc/arm-none-eabi/5.4.1/../../../../arm-none-eabi/lib/armv7e-m/fpu\libc.a(lib_a-svfprintf.o) (__ssprint_r)
d:/rt-threadstudio/repo/extract/toolchain_support_packages/arm/gnu_tools_for_arm_embedded_processors/5.4.1/bin/../lib/gcc/arm-none-eabi/5.4.1/../../../../arm-none-eabi/lib/armv7e-m/fpu\libc.a(lib_a-svfiscanf.o)
                              d:/rt-threadstudio/repo/extract/toolchain_support_packages/arm/gnu_tools_for_arm_embedded_processors/5.4.1/bin/../lib/gcc/arm-none-eabi/5.4.1/../../../../arm-none-eabi/lib/armv7e-m/fpu\libc.a(lib_a-svfscanf.o) (_sungetc_r)
d:/rt-threadstudio/repo/extract/toolchain_support_packages/arm/gnu_tools_for_arm_embedded_processors/5.4.1/bin/../lib/gcc/arm-none-eabi/5.4.1/../../../../arm-none-eabi/lib/armv7e-m/fpu\libc.a(lib_a-ungetc.o)
                              d:/rt-threadstudio/repo/extract/toolchain_support_packages/arm/gnu_tools_for_arm_embedded_processors/5.4.1/bin/../lib/gcc/arm-none-eabi/5.4.1/../../../../arm-none-eabi/lib/armv7e-m/fpu\libc.a(lib_a-svfiscanf.o) (__submore)
d:/rt-threadstudio/repo/extract/toolchain_support_packages/arm/gnu_tools_for_arm_embedded_processors/5.4.1/bin/../lib/gcc/arm-none-eabi/5.4.1/../../../../arm-none-eabi/lib/armv7e-m/fpu\libc.a(lib_a-vfiprintf.o)
                              d:/rt-threadstudio/repo/extract/toolchain_support_packages/arm/gnu_tools_for_arm_embedded_processors/5.4.1/bin/../lib/gcc/arm-none-eabi/5.4.1/../../../../arm-none-eabi/lib/armv7e-m/fpu\libc.a(lib_a-vfprintf.o) (__sprint_r)
d:/rt-threadstudio/repo/extract/toolchain_support_packages/arm/gnu_tools_for_arm_embedded_processors/5.4.1/bin/../lib/gcc/arm-none-eabi/5.4.1/../../../../arm-none-eabi/lib/armv7e-m/fpu\libc.a(lib_a-__atexit.o)
                              d:/rt-threadstudio/repo/extract/toolchain_support_packages/arm/gnu_tools_for_arm_embedded_processors/5.4.1/bin/../lib/gcc/arm-none-eabi/5.4.1/../../../../arm-none-eabi/lib/armv7e-m/fpu\libc.a(lib_a-atexit.o) (__register_exitproc)
d:/rt-threadstudio/repo/extract/toolchain_support_packages/arm/gnu_tools_for_arm_embedded_processors/5.4.1/bin/../lib/gcc/arm-none-eabi/5.4.1/../../../../arm-none-eabi/lib/armv7e-m/fpu\libc.a(lib_a-fputwc.o)
                              d:/rt-threadstudio/repo/extract/toolchain_support_packages/arm/gnu_tools_for_arm_embedded_processors/5.4.1/bin/../lib/gcc/arm-none-eabi/5.4.1/../../../../arm-none-eabi/lib/armv7e-m/fpu\libc.a(lib_a-vfiprintf.o) (_fputwc_r)
d:/rt-threadstudio/repo/extract/toolchain_support_packages/arm/gnu_tools_for_arm_embedded_processors/5.4.1/bin/../lib/gcc/arm-none-eabi/5.4.1/../../../../arm-none-eabi/lib/armv7e-m/fpu\libc.a(lib_a-wbuf.o)
                              d:/rt-threadstudio/repo/extract/toolchain_support_packages/arm/gnu_tools_for_arm_embedded_processors/5.4.1/bin/../lib/gcc/arm-none-eabi/5.4.1/../../../../arm-none-eabi/lib/armv7e-m/fpu\libc.a(lib_a-fputwc.o) (__swbuf_r)
d:/rt-threadstudio/repo/extract/toolchain_support_packages/arm/gnu_tools_for_arm_embedded_processors/5.4.1/bin/../lib/gcc/arm-none-eabi/5.4.1/../../../../arm-none-eabi/lib/armv7e-m/fpu\libc.a(lib_a-wcrtomb.o)
                              d:/rt-threadstudio/repo/extract/toolchain_support_packages/arm/gnu_tools_for_arm_embedded_processors/5.4.1/bin/../lib/gcc/arm-none-eabi/5.4.1/../../../../arm-none-eabi/lib/armv7e-m/fpu\libc.a(lib_a-fputwc.o) (_wcrtomb_r)
d:/rt-threadstudio/repo/extract/toolchain_support_packages/arm/gnu_tools_for_arm_embedded_processors/5.4.1/bin/../lib/gcc/arm-none-eabi/5.4.1/armv7e-m/fpu\libgcc.a(_arm_addsubdf3.o)
                              d:/rt-threadstudio/repo/extract/toolchain_support_packages/arm/gnu_tools_for_arm_embedded_processors/5.4.1/bin/../lib/gcc/arm-none-eabi/5.4.1/../../../../arm-none-eabi/lib/armv7e-m/fpu\libc.a(lib_a-strtod.o) (__aeabi_dsub)
d:/rt-threadstudio/repo/extract/toolchain_support_packages/arm/gnu_tools_for_arm_embedded_processors/5.4.1/bin/../lib/gcc/arm-none-eabi/5.4.1/armv7e-m/fpu\libgcc.a(_arm_muldivdf3.o)
                              ./rt-thread/components/drivers/misc/rt_drv_pwm.o (__aeabi_dmul)
d:/rt-threadstudio/repo/extract/toolchain_support_packages/arm/gnu_tools_for_arm_embedded_processors/5.4.1/bin/../lib/gcc/arm-none-eabi/5.4.1/armv7e-m/fpu\libgcc.a(_arm_cmpdf2.o)
                              d:/rt-threadstudio/repo/extract/toolchain_support_packages/arm/gnu_tools_for_arm_embedded_processors/5.4.1/bin/../lib/gcc/arm-none-eabi/5.4.1/../../../../arm-none-eabi/lib/armv7e-m/fpu\libc.a(lib_a-strtod.o) (__aeabi_dcmpeq)
d:/rt-threadstudio/repo/extract/toolchain_support_packages/arm/gnu_tools_for_arm_embedded_processors/5.4.1/bin/../lib/gcc/arm-none-eabi/5.4.1/armv7e-m/fpu\libgcc.a(_arm_unorddf2.o)
                              d:/rt-threadstudio/repo/extract/toolchain_support_packages/arm/gnu_tools_for_arm_embedded_processors/5.4.1/bin/../lib/gcc/arm-none-eabi/5.4.1/../../../../arm-none-eabi/lib/armv7e-m/fpu\libc.a(lib_a-strtod.o) (__aeabi_dcmpun)
d:/rt-threadstudio/repo/extract/toolchain_support_packages/arm/gnu_tools_for_arm_embedded_processors/5.4.1/bin/../lib/gcc/arm-none-eabi/5.4.1/armv7e-m/fpu\libgcc.a(_arm_fixdfsi.o)
                              ./rt-thread/components/drivers/misc/rt_drv_pwm.o (__aeabi_d2iz)
d:/rt-threadstudio/repo/extract/toolchain_support_packages/arm/gnu_tools_for_arm_embedded_processors/5.4.1/bin/../lib/gcc/arm-none-eabi/5.4.1/armv7e-m/fpu\libgcc.a(_arm_fixunsdfsi.o)
                              ./packages/gps_rmc-latest/gps_rmc.o (__aeabi_d2uiz)
d:/rt-threadstudio/repo/extract/toolchain_support_packages/arm/gnu_tools_for_arm_embedded_processors/5.4.1/bin/../lib/gcc/arm-none-eabi/5.4.1/armv7e-m/fpu\libgcc.a(_arm_truncdfsf2.o)
                              ./packages/gps_rmc-latest/gps_rmc.o (__aeabi_d2f)
d:/rt-threadstudio/repo/extract/toolchain_support_packages/arm/gnu_tools_for_arm_embedded_processors/5.4.1/bin/../lib/gcc/arm-none-eabi/5.4.1/armv7e-m/fpu\libgcc.a(_aeabi_uldivmod.o)
                              ./Libraries/rt_drivers/drv_pwm.o (__aeabi_uldivmod)
d:/rt-threadstudio/repo/extract/toolchain_support_packages/arm/gnu_tools_for_arm_embedded_processors/5.4.1/bin/../lib/gcc/arm-none-eabi/5.4.1/armv7e-m/fpu\libgcc.a(_udivmoddi4.o)
                              d:/rt-threadstudio/repo/extract/toolchain_support_packages/arm/gnu_tools_for_arm_embedded_processors/5.4.1/bin/../lib/gcc/arm-none-eabi/5.4.1/armv7e-m/fpu\libgcc.a(_aeabi_uldivmod.o) (__udivmoddi4)
d:/rt-threadstudio/repo/extract/toolchain_support_packages/arm/gnu_tools_for_arm_embedded_processors/5.4.1/bin/../lib/gcc/arm-none-eabi/5.4.1/armv7e-m/fpu\libgcc.a(_dvmd_tls.o)
                              d:/rt-threadstudio/repo/extract/toolchain_support_packages/arm/gnu_tools_for_arm_embedded_processors/5.4.1/bin/../lib/gcc/arm-none-eabi/5.4.1/armv7e-m/fpu\libgcc.a(_aeabi_uldivmod.o) (__aeabi_ldiv0)

Allocating common symbols
Common symbol       size              file

rt_interrupt_to_thread
                    0x4               ./rt-thread/libcpu/arm/cortex-m4/cpuport.o
DMAPTPRxDescToGet   0x4               ./Libraries/N32_Std_Driver/n32g45x_std_periph_driver/src/n32g45x_eth.o
rt_interrupt_from_thread
                    0x4               ./rt-thread/libcpu/arm/cortex-m4/cpuport.o
shell               0x4               ./rt-thread/components/finsh/shell.o
DMARxDescToGet      0x4               ./Libraries/N32_Std_Driver/n32g45x_std_periph_driver/src/n32g45x_eth.o
rt_thread_switch_interrupt_flag
                    0x4               ./rt-thread/libcpu/arm/cortex-m4/cpuport.o
DMATxDescToSet      0x4               ./Libraries/N32_Std_Driver/n32g45x_std_periph_driver/src/n32g45x_eth.o
rt_thread_priority_table
                    0x100             ./rt-thread/src/scheduler.o
serial1             0x64              ./Libraries/rt_drivers/drv_usart.o
rt_object_put_hook  0x4               ./rt-thread/src/object.o
rt_current_priority
                    0x1               ./rt-thread/src/scheduler.o
netdev_default      0x4               ./rt-thread/components/net/netdev/src/netdev.o
filesystem_table    0x40              ./rt-thread/components/dfs/src/dfs.o
rt_assert_hook      0x4               ./rt-thread/src/kservice.o
serial3             0x64              ./Libraries/rt_drivers/drv_usart.o
rt_object_take_hook
                    0x4               ./rt-thread/src/object.o
netdev_list         0x4               ./rt-thread/components/net/netdev/src/netdev.o
rt_thread_ready_priority_group
                    0x4               ./rt-thread/src/scheduler.o
pwm_device          0x54              ./Libraries/rt_drivers/drv_pwm.o
filesystem_operation_table
                    0x10              ./rt-thread/components/dfs/src/dfs.o
rt_object_trytake_hook
                    0x4               ./rt-thread/src/object.o
serial2             0x64              ./Libraries/rt_drivers/drv_usart.o
DMAPTPTxDescToSet   0x4               ./Libraries/N32_Std_Driver/n32g45x_std_periph_driver/src/n32g45x_eth.o

Discarded input sections

 .text          0x00000000        0x0 d:/rt-threadstudio/repo/extract/toolchain_support_packages/arm/gnu_tools_for_arm_embedded_processors/5.4.1/bin/../lib/gcc/arm-none-eabi/5.4.1/armv7e-m/fpu/crti.o
 .data          0x00000000        0x0 d:/rt-threadstudio/repo/extract/toolchain_support_packages/arm/gnu_tools_for_arm_embedded_processors/5.4.1/bin/../lib/gcc/arm-none-eabi/5.4.1/armv7e-m/fpu/crti.o
 .bss           0x00000000        0x0 d:/rt-threadstudio/repo/extract/toolchain_support_packages/arm/gnu_tools_for_arm_embedded_processors/5.4.1/bin/../lib/gcc/arm-none-eabi/5.4.1/armv7e-m/fpu/crti.o
 .data          0x00000000        0x4 d:/rt-threadstudio/repo/extract/toolchain_support_packages/arm/gnu_tools_for_arm_embedded_processors/5.4.1/bin/../lib/gcc/arm-none-eabi/5.4.1/armv7e-m/fpu/crtbegin.o
 .fini_array    0x00000000        0x4 d:/rt-threadstudio/repo/extract/toolchain_support_packages/arm/gnu_tools_for_arm_embedded_processors/5.4.1/bin/../lib/gcc/arm-none-eabi/5.4.1/armv7e-m/fpu/crtbegin.o
 .text          0x00000000       0x74 d:/rt-threadstudio/repo/extract/toolchain_support_packages/arm/gnu_tools_for_arm_embedded_processors/5.4.1/bin/../lib/gcc/arm-none-eabi/5.4.1/../../../../arm-none-eabi/lib/armv7e-m/fpu/crt0.o
 .data          0x00000000        0x0 d:/rt-threadstudio/repo/extract/toolchain_support_packages/arm/gnu_tools_for_arm_embedded_processors/5.4.1/bin/../lib/gcc/arm-none-eabi/5.4.1/../../../../arm-none-eabi/lib/armv7e-m/fpu/crt0.o
 .bss           0x00000000        0x0 d:/rt-threadstudio/repo/extract/toolchain_support_packages/arm/gnu_tools_for_arm_embedded_processors/5.4.1/bin/../lib/gcc/arm-none-eabi/5.4.1/../../../../arm-none-eabi/lib/armv7e-m/fpu/crt0.o
 .ARM.extab     0x00000000        0x0 d:/rt-threadstudio/repo/extract/toolchain_support_packages/arm/gnu_tools_for_arm_embedded_processors/5.4.1/bin/../lib/gcc/arm-none-eabi/5.4.1/../../../../arm-none-eabi/lib/armv7e-m/fpu/crt0.o
 .ARM.exidx     0x00000000        0x8 d:/rt-threadstudio/repo/extract/toolchain_support_packages/arm/gnu_tools_for_arm_embedded_processors/5.4.1/bin/../lib/gcc/arm-none-eabi/5.4.1/../../../../arm-none-eabi/lib/armv7e-m/fpu/crt0.o
 .ARM.attributes
                0x00000000       0x20 d:/rt-threadstudio/repo/extract/toolchain_support_packages/arm/gnu_tools_for_arm_embedded_processors/5.4.1/bin/../lib/gcc/arm-none-eabi/5.4.1/../../../../arm-none-eabi/lib/armv7e-m/fpu/crt0.o
 .text          0x00000000        0x0 ./rt-thread/src/clock.o
 .data          0x00000000        0x0 ./rt-thread/src/clock.o
 .bss           0x00000000        0x0 ./rt-thread/src/clock.o
 .text.rt_tick_set
                0x00000000       0x28 ./rt-thread/src/clock.o
 .text.rt_tick_get_millisecond
Memory Configuration

Name             Origin             Length             Attributes
CODE             0x08000000         0x00040000         xr
DATA             0x20000000         0x00010000         rw
*default*        0x00000000         0xffffffff

Linker script and memory map

LOAD d:/rt-threadstudio/repo/extract/toolchain_support_packages/arm/gnu_tools_for_arm_embedded_processors/5.4.1/bin/../lib/gcc/arm-none-eabi/5.4.1/armv7e-m/fpu/crti.o
LOAD d:/rt-threadstudio/repo/extract/toolchain_support_packages/arm/gnu_tools_for_arm_embedded_processors/5.4.1/bin/../lib/gcc/arm-none-eabi/5.4.1/armv7e-m/fpu/crtbegin.o
LOAD d:/rt-threadstudio/repo/extract/toolchain_support_packages/arm/gnu_tools_for_arm_embedded_processors/5.4.1/bin/../lib/gcc/arm-none-eabi/5.4.1/../../../../arm-none-eabi/lib/armv7e-m/fpu/crt0.o
LOAD ./rt-thread/src/clock.o
LOAD ./rt-thread/src/components.o
LOAD ./rt-thread/src/device.o
LOAD ./rt-thread/src/idle.o
LOAD ./rt-thread/src/ipc.o
LOAD ./rt-thread/src/irq.o
LOAD ./rt-thread/src/kservice.o
LOAD ./rt-thread/src/mem.o
LOAD ./rt-thread/src/mempool.o
LOAD ./rt-thread/src/object.o
LOAD ./rt-thread/src/scheduler.o
LOAD ./rt-thread/src/thread.o
LOAD ./rt-thread/src/timer.o
LOAD ./rt-thread/libcpu/arm/cortex-m4/context_gcc.o
LOAD ./rt-thread/libcpu/arm/cortex-m4/cpuport.o
LOAD ./rt-thread/libcpu/arm/common/backtrace.o
LOAD ./rt-thread/libcpu/arm/common/div0.o
LOAD ./rt-thread/libcpu/arm/common/showmem.o
LOAD ./rt-thread/components/net/sal_socket/src/sal_socket.o
LOAD ./rt-thread/components/net/sal_socket/socket/net_netdb.o
LOAD ./rt-thread/components/net/sal_socket/socket/net_sockets.o
LOAD ./rt-thread/components/net/sal_socket/impl/af_inet_at.o
LOAD ./rt-thread/components/net/sal_socket/dfs_net/dfs_net.o
LOAD ./rt-thread/components/net/netdev/src/netdev.o
LOAD ./rt-thread/components/net/netdev/src/netdev_ipaddr.o
LOAD ./rt-thread/components/net/at/src/at_cli.o
LOAD ./rt-thread/components/net/at/src/at_client.o
LOAD ./rt-thread/components/net/at/src/at_utils.o
LOAD ./rt-thread/components/net/at/at_socket/at_socket.o
LOAD ./rt-thread/components/libc/compilers/gcc/newlib/libc.o
LOAD ./rt-thread/components/libc/compilers/gcc/newlib/stdio.o
LOAD ./rt-thread/components/libc/compilers/gcc/newlib/syscalls.o
LOAD ./rt-thread/components/libc/compilers/common/delay.o
LOAD ./rt-thread/components/libc/compilers/common/stdlib.o
LOAD ./rt-thread/components/libc/compilers/common/time.o
LOAD ./rt-thread/components/libc/compilers/common/unistd.o
LOAD ./rt-thread/components/finsh/cmd.o
LOAD ./rt-thread/components/finsh/msh.o
LOAD ./rt-thread/components/finsh/msh_file.o
LOAD ./rt-thread/components/finsh/shell.o
LOAD ./rt-thread/components/drivers/src/completion.o
LOAD ./rt-thread/components/drivers/src/dataqueue.o
LOAD ./rt-thread/components/drivers/src/pipe.o
LOAD ./rt-thread/components/drivers/src/ringblk_buf.o
LOAD ./rt-thread/components/drivers/src/ringbuffer.o
LOAD ./rt-thread/components/drivers/src/waitqueue.o
LOAD ./rt-thread/components/drivers/src/workqueue.o
LOAD ./rt-thread/components/drivers/serial/serial.o
LOAD ./rt-thread/components/drivers/misc/pin.o
LOAD ./rt-thread/components/drivers/misc/rt_drv_pwm.o
LOAD ./rt-thread/components/dfs/src/dfs.o
LOAD ./rt-thread/components/dfs/src/dfs_file.o
LOAD ./rt-thread/components/dfs/src/dfs_fs.o
LOAD ./rt-thread/components/dfs/src/dfs_poll.o
LOAD ./rt-thread/components/dfs/src/dfs_posix.o
LOAD ./rt-thread/components/dfs/src/dfs_select.o
LOAD ./rt-thread/components/dfs/filesystems/devfs/devfs.o
LOAD ./packages/pahomqtt-v1.1.0/tests/mqtt_test.o
LOAD ./packages/pahomqtt-v1.1.0/samples/mqtt_sample.o
LOAD ./packages/pahomqtt-v1.1.0/MQTTPacket/src/MQTTConnectClient.o
LOAD ./packages/pahomqtt-v1.1.0/MQTTPacket/src/MQTTConnectServer.o
LOAD ./packages/pahomqtt-v1.1.0/MQTTPacket/src/MQTTDeserializePublish.o
LOAD ./packages/pahomqtt-v1.1.0/MQTTPacket/src/MQTTFormat.o
LOAD ./packages/pahomqtt-v1.1.0/MQTTPacket/src/MQTTPacket.o
LOAD ./packages/pahomqtt-v1.1.0/MQTTPacket/src/MQTTSerializePublish.o
LOAD ./packages/pahomqtt-v1.1.0/MQTTPacket/src/MQTTSubscribeClient.o
LOAD ./packages/pahomqtt-v1.1.0/MQTTPacket/src/MQTTSubscribeServer.o
LOAD ./packages/pahomqtt-v1.1.0/MQTTPacket/src/MQTTUnsubscribeClient.o
LOAD ./packages/pahomqtt-v1.1.0/MQTTPacket/src/MQTTUnsubscribeServer.o
LOAD ./packages/pahomqtt-v1.1.0/MQTTClient-RT/paho_mqtt_pipe.o
LOAD ./packages/gps_rmc-latest/example/rtt_gps_rmc_example.o
LOAD ./packages/gps_rmc-latest/gps_rmc.o
LOAD ./packages/at_device-latest/src/at_device.o
LOAD ./packages/at_device-latest/samples/at_sample_air720.o
LOAD ./packages/at_device-latest/class/air720/at_device_air720.o
LOAD ./packages/at_device-latest/class/air720/at_socket_air720.o
LOAD ./board/msp/n32_msp.o
LOAD ./board/board.o
LOAD ./applications/main.o
LOAD ./Libraries/rt_drivers/drv_common.o
LOAD ./Libraries/rt_drivers/drv_gpio.o
LOAD ./Libraries/rt_drivers/drv_pwm.o
LOAD ./Libraries/rt_drivers/drv_usart.o
LOAD ./Libraries/N32_Std_Driver/n32g45x_std_periph_driver/src/misc.o
LOAD ./Libraries/N32_Std_Driver/n32g45x_std_periph_driver/src/n32g45x_adc.o
LOAD ./Libraries/N32_Std_Driver/n32g45x_std_periph_driver/src/n32g45x_bkp.o
LOAD ./Libraries/N32_Std_Driver/n32g45x_std_periph_driver/src/n32g45x_can.o
LOAD ./Libraries/N32_Std_Driver/n32g45x_std_periph_driver/src/n32g45x_comp.o
LOAD ./Libraries/N32_Std_Driver/n32g45x_std_periph_driver/src/n32g45x_crc.o
LOAD ./Libraries/N32_Std_Driver/n32g45x_std_periph_driver/src/n32g45x_dac.o
LOAD ./Libraries/N32_Std_Driver/n32g45x_std_periph_driver/src/n32g45x_dbg.o
LOAD ./Libraries/N32_Std_Driver/n32g45x_std_periph_driver/src/n32g45x_dma.o
LOAD ./Libraries/N32_Std_Driver/n32g45x_std_periph_driver/src/n32g45x_dvp.o
LOAD ./Libraries/N32_Std_Driver/n32g45x_std_periph_driver/src/n32g45x_eth.o
LOAD ./Libraries/N32_Std_Driver/n32g45x_std_periph_driver/src/n32g45x_exti.o
LOAD ./Libraries/N32_Std_Driver/n32g45x_std_periph_driver/src/n32g45x_flash.o
LOAD ./Libraries/N32_Std_Driver/n32g45x_std_periph_driver/src/n32g45x_gpio.o
LOAD ./Libraries/N32_Std_Driver/n32g45x_std_periph_driver/src/n32g45x_i2c.o
LOAD ./Libraries/N32_Std_Driver/n32g45x_std_periph_driver/src/n32g45x_iwdg.o
LOAD ./Libraries/N32_Std_Driver/n32g45x_std_periph_driver/src/n32g45x_opamp.o
LOAD ./Libraries/N32_Std_Driver/n32g45x_std_periph_driver/src/n32g45x_pwr.o
LOAD ./Libraries/N32_Std_Driver/n32g45x_std_periph_driver/src/n32g45x_qspi.o
LOAD ./Libraries/N32_Std_Driver/n32g45x_std_periph_driver/src/n32g45x_rcc.o
LOAD ./Libraries/N32_Std_Driver/n32g45x_std_periph_driver/src/n32g45x_rtc.o
LOAD ./Libraries/N32_Std_Driver/n32g45x_std_periph_driver/src/n32g45x_sdio.o
LOAD ./Libraries/N32_Std_Driver/n32g45x_std_periph_driver/src/n32g45x_spi.o
LOAD ./Libraries/N32_Std_Driver/n32g45x_std_periph_driver/src/n32g45x_tim.o
LOAD ./Libraries/N32_Std_Driver/n32g45x_std_periph_driver/src/n32g45x_tsc.o
LOAD ./Libraries/N32_Std_Driver/n32g45x_std_periph_driver/src/n32g45x_usart.o
LOAD ./Libraries/N32_Std_Driver/n32g45x_std_periph_driver/src/n32g45x_wwdg.o
LOAD ./Libraries/N32_Std_Driver/n32g45x_std_periph_driver/src/n32g45x_xfmc.o
LOAD ./Libraries/N32_Std_Driver/CMSIS/device/startup/startup_n32g45x_gcc.o
LOAD ./Libraries/N32_Std_Driver/CMSIS/device/system_n32g45x.o
LOAD d:/rt-threadstudio/repo/extract/toolchain_support_packages/arm/gnu_tools_for_arm_embedded_processors/5.4.1/bin/../lib/gcc/arm-none-eabi/5.4.1/../../../../arm-none-eabi/lib/armv7e-m/fpu\libm.a
LOAD d:/rt-threadstudio/repo/extract/toolchain_support_packages/arm/gnu_tools_for_arm_embedded_processors/5.4.1/bin/../lib/gcc/arm-none-eabi/5.4.1/../../../../arm-none-eabi/lib/armv7e-m/fpu\libc.a
START GROUP
LOAD d:/rt-threadstudio/repo/extract/toolchain_support_packages/arm/gnu_tools_for_arm_embedded_processors/5.4.1/bin/../lib/gcc/arm-none-eabi/5.4.1/armv7e-m/fpu\libgcc.a
LOAD d:/rt-threadstudio/repo/extract/toolchain_support_packages/arm/gnu_tools_for_arm_embedded_processors/5.4.1/bin/../lib/gcc/arm-none-eabi/5.4.1/../../../../arm-none-eabi/lib/armv7e-m/fpu\libc.a
END GROUP
LOAD d:/rt-threadstudio/repo/extract/toolchain_support_packages/arm/gnu_tools_for_arm_embedded_processors/5.4.1/bin/../lib/gcc/arm-none-eabi/5.4.1/armv7e-m/fpu/crtend.o
LOAD d:/rt-threadstudio/repo/extract/toolchain_support_packages/arm/gnu_tools_for_arm_embedded_processors/5.4.1/bin/../lib/gcc/arm-none-eabi/5.4.1/armv7e-m/fpu/crtn.o
                0x00000200                _system_stack_size = 0x200

.text           0x08000000    0x315d8
                0x08000000                . = ALIGN (0x4)
                0x08000000                _stext = .
 *(.isr_vector)
 .isr_vector    0x08000000      0x188 ./Libraries/N32_Std_Driver/CMSIS/device/startup/startup_n32g45x_gcc.o
                0x08000000                g_pfnVectors
                0x08000188                . = ALIGN (0x4)
 *(.text)
 .text          0x08000188       0x5c d:/rt-threadstudio/repo/extract/toolchain_support_packages/arm/gnu_tools_for_arm_embedded_processors/5.4.1/bin/../lib/gcc/arm-none-eabi/5.4.1/armv7e-m/fpu/crtbegin.o
 .text          0x080001e4      0x13c ./rt-thread/libcpu/arm/cortex-m4/context_gcc.o
                0x080001e4                rt_hw_interrupt_disable
                0x080001ec                rt_hw_interrupt_enable
                0x080001f2                rt_hw_context_switch_interrupt
                0x080001f2                rt_hw_context_switch
                0x08000212                PendSV_Handler
                0x0800027e                rt_hw_context_switch_to
                0x080002c4                rt_hw_interrupt_thread_switch
                0x080002c8                HardFault_Handler
 .text          0x08000320      0x134 d:/rt-threadstudio/repo/extract/toolchain_support_packages/arm/gnu_tools_for_arm_embedded_processors/5.4.1/bin/../lib/gcc/arm-none-eabi/5.4.1/../../../../arm-none-eabi/lib/armv7e-m/fpu\libc.a(lib_a-memcpy.o)
                0x08000320                memcpy
 *fill*         0x08000454        0xc 00000000
 .text          0x08000460      0x2dc d:/rt-threadstudio/repo/extract/toolchain_support_packages/arm/gnu_tools_for_arm_embedded_processors/5.4.1/bin/../lib/gcc/arm-none-eabi/5.4.1/../../../../arm-none-eabi/lib/armv7e-m/fpu\libc.a(lib_a-strcmp.o)
                0x08000468                strcmp
 *fill*         0x0800073c        0x4 00000000
 .text          0x08000740       0xdc d:/rt-threadstudio/repo/extract/toolchain_support_packages/arm/gnu_tools_for_arm_embedded_processors/5.4.1/bin/../lib/gcc/arm-none-eabi/5.4.1/../../../../arm-none-eabi/lib/armv7e-m/fpu\libc.a(lib_a-strlen.o)
                0x08000740                strlen
 *fill*         0x0800081c        0x4 00000000
 .text          0x08000820       0xa0 d:/rt-threadstudio/repo/extract/toolchain_support_packages/arm/gnu_tools_for_arm_embedded_processors/5.4.1/bin/../lib/gcc/arm-none-eabi/5.4.1/../../../../arm-none-eabi/lib/armv7e-m/fpu\libc.a(lib_a-memchr.o)
                0x08000820                memchr
 .text          0x080008c0      0x370 d:/rt-threadstudio/repo/extract/toolchain_support_packages/arm/gnu_tools_for_arm_embedded_processors/5.4.1/bin/../lib/gcc/arm-none-eabi/5.4.1/armv7e-m/fpu\libgcc.a(_arm_addsubdf3.o)
                0x080008c0                __aeabi_drsub
                0x080008c8                __aeabi_dsub
                0x080008c8                __subdf3
                0x080008cc                __aeabi_dadd
                0x080008cc                __adddf3
                0x08000b44                __floatunsidf
                0x08000b44                __aeabi_ui2d
                0x08000b64                __floatsidf
                0x08000b64                __aeabi_i2d
                0x08000b88                __aeabi_f2d
                0x08000b88                __extendsfdf2
                0x08000bc4                __floatundidf
                0x08000bc4                __aeabi_ul2d
                0x08000bd4                __floatdidf
                0x08000bd4                __aeabi_l2d
 .text          0x08000c30      0x424 d:/rt-threadstudio/repo/extract/toolchain_support_packages/arm/gnu_tools_for_arm_embedded_processors/5.4.1/bin/../lib/gcc/arm-none-eabi/5.4.1/armv7e-m/fpu\libgcc.a(_arm_muldivdf3.o)
                0x08000c30                __aeabi_dmul
                0x08000c30                __muldf3
                0x08000e84                __divdf3
                0x08000e84                __aeabi_ddiv
 .text          0x08001054      0x110 d:/rt-threadstudio/repo/extract/toolchain_support_packages/arm/gnu_tools_for_arm_embedded_processors/5.4.1/bin/../lib/gcc/arm-none-eabi/5.4.1/armv7e-m/fpu\libgcc.a(_arm_cmpdf2.o)
                0x08001054                __gtdf2
                0x08001054                __gedf2
                0x0800105c                __ltdf2
                0x0800105c                __ledf2
                0x08001064                __nedf2
                0x08001064                __eqdf2
                0x08001064                __cmpdf2
                0x080010e0                __aeabi_cdrcmple
                0x080010f0                __aeabi_cdcmpeq
                0x080010f0                __aeabi_cdcmple
                0x08001100                __aeabi_dcmpeq
                0x08001114                __aeabi_dcmplt
                0x08001128                __aeabi_dcmple
                0x0800113c                __aeabi_dcmpge
                0x08001150                __aeabi_dcmpgt
 .text          0x08001164       0x2c d:/rt-threadstudio/repo/extract/toolchain_support_packages/arm/gnu_tools_for_arm_embedded_processors/5.4.1/bin/../lib/gcc/arm-none-eabi/5.4.1/armv7e-m/fpu\libgcc.a(_arm_unorddf2.o)
                0x08001164                __unorddf2
                0x08001164                __aeabi_dcmpun
 .text          0x08001190       0x50 d:/rt-threadstudio/repo/extract/toolchain_support_packages/arm/gnu_tools_for_arm_embedded_processors/5.4.1/bin/../lib/gcc/arm-none-eabi/5.4.1/armv7e-m/fpu\libgcc.a(_arm_fixdfsi.o)
                0x08001190                __aeabi_d2iz
                0x08001190                __fixdfsi
 .text          0x080011e0       0x40 d:/rt-threadstudio/repo/extract/toolchain_support_packages/arm/gnu_tools_for_arm_embedded_processors/5.4.1/bin/../lib/gcc/arm-none-eabi/5.4.1/armv7e-m/fpu\libgcc.a(_arm_fixunsdfsi.o)
                0x080011e0                __aeabi_d2uiz
                0x080011e0                __fixunsdfsi
 .text          0x08001220       0xa0 d:/rt-threadstudio/repo/extract/toolchain_support_packages/arm/gnu_tools_for_arm_embedded_processors/5.4.1/bin/../lib/gcc/arm-none-eabi/5.4.1/armv7e-m/fpu\libgcc.a(_arm_truncdfsf2.o)
                0x08001220                __truncdfsf2
                0x08001220                __aeabi_d2f
 .text          0x080012c0       0x30 d:/rt-threadstudio/repo/extract/toolchain_support_packages/arm/gnu_tools_for_arm_embedded_processors/5.4.1/bin/../lib/gcc/arm-none-eabi/5.4.1/armv7e-m/fpu\libgcc.a(_aeabi_uldivmod.o)
                0x080012c0                __aeabi_uldivmod
 .text          0x080012f0      0x2e4 d:/rt-threadstudio/repo/extract/toolchain_support_packages/arm/gnu_tools_for_arm_embedded_processors/5.4.1/bin/../lib/gcc/arm-none-eabi/5.4.1/armv7e-m/fpu\libgcc.a(_udivmoddi4.o)
                0x080012f0                __udivmoddi4
 .text          0x080015d4        0x4 d:/rt-threadstudio/repo/extract/toolchain_support_packages/arm/gnu_tools_for_arm_embedded_processors/5.4.1/bin/../lib/gcc/arm-none-eabi/5.4.1/armv7e-m/fpu\libgcc.a(_dvmd_tls.o)
                0x080015d4                __aeabi_idiv0
                0x080015d4                __aeabi_ldiv0
 *(.text.*)
 .text.rt_tick_get
                0x080015d8       0x18 ./rt-thread/src/clock.o
                0x080015d8                rt_tick_get
 .text.rt_tick_increase
                0x080015f0       0x6c ./rt-thread/src/clock.o
                0x080015f0                rt_tick_increase
 .text.rt_tick_from_millisecond
                0x0800165c       0x74 ./rt-thread/src/clock.o
                0x0800165c                rt_tick_from_millisecond
 .text.rti_start
                0x080016d0       0x10 ./rt-thread/src/components.o
 .text.rti_board_start
                0x080016e0       0x10 ./rt-thread/src/components.o
 .text.rti_board_end
                0x080016f0       0x10 ./rt-thread/src/components.o
 .text.rti_end  0x08001700       0x10 ./rt-thread/src/components.o
 .text.rt_components_board_init
                0x08001710       0x30 ./rt-thread/src/components.o
                0x08001710                rt_components_board_init
 .text.rt_components_init
                0x08001740       0x30 ./rt-thread/src/components.o
                0x08001740                rt_components_init
 .text.entry    0x08001770       0x10 ./rt-thread/src/components.o
                0x08001770                entry
 .text.main_thread_entry
                0x08001780       0x18 ./rt-thread/src/components.o
                0x08001780                main_thread_entry
 .text.rt_application_init
                0x08001798       0x4c ./rt-thread/src/components.o
                0x08001798                rt_application_init
 .text.rtthread_startup
                0x080017e4       0x30 ./rt-thread/src/components.o
                0x080017e4                rtthread_startup
 .text.rt_list_init
                0x08001814       0x24 ./rt-thread/src/device.o
 .text.rt_wqueue_init
                0x08001838       0x38 ./rt-thread/src/device.o
 .text.rt_device_register
                0x08001870       0x64 ./rt-thread/src/device.o
                0x08001870                rt_device_register
 .text.rt_device_unregister
                0x080018d4       0x6c ./rt-thread/src/device.o
                0x080018d4                rt_device_unregister
 .text.rt_device_find
                0x08001940       0x1c ./rt-thread/src/device.o
                0x08001940                rt_device_find
 .text.rt_device_open
                0x0800195c      0x118 ./rt-thread/src/device.o
                0x0800195c                rt_device_open
 .text.rt_device_close
                0x08001a74       0x9c ./rt-thread/src/device.o
                0x08001a74                rt_device_close
 .text.rt_device_read
                0x08001b10       0x88 ./rt-thread/src/device.o
                0x08001b10                rt_device_read
 .text.rt_device_write
                0x08001b98       0x88 ./rt-thread/src/device.o
                0x08001b98                rt_device_write
 .text.rt_device_control
                0x08001c20       0x68 ./rt-thread/src/device.o
                0x08001c20                rt_device_control
 .text.rt_device_set_rx_indicate
                0x08001c88       0x54 ./rt-thread/src/device.o
                0x08001c88                rt_device_set_rx_indicate
 .text.rt_list_insert_after
                0x08001cdc       0x34 ./rt-thread/src/idle.o
 .text.rt_list_remove
                0x08001d10       0x38 ./rt-thread/src/idle.o
 .text.rt_thread_defunct_enqueue
                0x08001d48       0x20 ./rt-thread/src/idle.o
                0x08001d48                rt_thread_defunct_enqueue
 .text.rt_thread_defunct_dequeue
                0x08001d68       0x38 ./rt-thread/src/idle.o
                0x08001d68                rt_thread_defunct_dequeue
 .text.rt_defunct_execute
                0x08001da0       0xac ./rt-thread/src/idle.o
 .text.rt_thread_idle_entry
                0x08001e4c       0x38 ./rt-thread/src/idle.o
 .text.rt_thread_idle_init
                0x08001e84       0x74 ./rt-thread/src/idle.o
                0x08001e84                rt_thread_idle_init
 .text.rt_list_init
                0x08001ef8       0x24 ./rt-thread/src/ipc.o
 .text.rt_list_insert_before
                0x08001f1c       0x34 ./rt-thread/src/ipc.o
 .text.rt_list_isempty
                0x08001f50       0x24 ./rt-thread/src/ipc.o
 .text._ipc_object_init
                0x08001f74       0x1c ./rt-thread/src/ipc.o
 .text._ipc_list_suspend
                0x08001f90       0xa4 ./rt-thread/src/ipc.o
 .text._ipc_list_resume
                0x08002034       0x20 ./rt-thread/src/ipc.o
 .text._ipc_list_resume_all
                0x08002054       0x48 ./rt-thread/src/ipc.o
 .text.rt_sem_init
                0x0800209c       0x6c ./rt-thread/src/ipc.o
                0x0800209c                rt_sem_init
 .text.rt_sem_detach
                0x08002108       0x7c ./rt-thread/src/ipc.o
                0x08002108                rt_sem_detach
 .text.rt_sem_create
                0x08002184       0x90 ./rt-thread/src/ipc.o
                0x08002184                rt_sem_create
 .text.rt_sem_delete
                0x08002214       0xac ./rt-thread/src/ipc.o
                0x08002214                rt_sem_delete
 .text.rt_sem_take
                0x080022c0      0x160 ./rt-thread/src/ipc.o
                0x080022c0                rt_sem_take
 .text.rt_sem_trytake
                0x08002420       0x1c ./rt-thread/src/ipc.o
                0x08002420                rt_sem_trytake
 .text.rt_sem_release
                0x0800243c       0xbc ./rt-thread/src/ipc.o
                0x0800243c                rt_sem_release
 .text.rt_sem_control
                0x080024f8       0x84 ./rt-thread/src/ipc.o
                0x080024f8                rt_sem_control
 .text.rt_mutex_init
                0x0800257c       0x64 ./rt-thread/src/ipc.o
                0x0800257c                rt_mutex_init
 .text.rt_mutex_detach
                0x080025e0       0x7c ./rt-thread/src/ipc.o
                0x080025e0                rt_mutex_detach
 .text.rt_mutex_create
                0x0800265c       0x88 ./rt-thread/src/ipc.o
                0x0800265c                rt_mutex_create
 .text.rt_mutex_delete
                0x080026e4       0xac ./rt-thread/src/ipc.o
                0x080026e4                rt_mutex_delete
 .text.rt_mutex_take
                0x08002790      0x1ec ./rt-thread/src/ipc.o
                0x08002790                rt_mutex_take
 .text.rt_mutex_release
                0x0800297c      0x1bc ./rt-thread/src/ipc.o
                0x0800297c                rt_mutex_release
 .text.rt_event_create
                0x08002b38       0x74 ./rt-thread/src/ipc.o
                0x08002b38                rt_event_create
 .text.rt_event_send
                0x08002bac      0x158 ./rt-thread/src/ipc.o
                0x08002bac                rt_event_send
 .text.rt_event_recv
                0x08002d04      0x21c ./rt-thread/src/ipc.o
                0x08002d04                rt_event_recv
 .text.rt_mb_create
                0x08002f20       0xbc ./rt-thread/src/ipc.o
                0x08002f20                rt_mb_create
 .text.rt_mb_send_wait
                0x08002fdc      0x224 ./rt-thread/src/ipc.o
                0x08002fdc                rt_mb_send_wait
 .text.rt_mb_send
                0x08003200       0x20 ./rt-thread/src/ipc.o
                0x08003200                rt_mb_send
 .text.rt_mb_recv
                0x08003220      0x23c ./rt-thread/src/ipc.o
                0x08003220                rt_mb_recv
 .text.rt_interrupt_enter
                0x0800345c       0x40 ./rt-thread/src/irq.o
                0x0800345c                rt_interrupt_enter
 .text.rt_interrupt_leave
                0x0800349c       0x40 ./rt-thread/src/irq.o
                0x0800349c                rt_interrupt_leave
 .text.rt_interrupt_get_nest
                0x080034dc       0x28 ./rt-thread/src/irq.o
                0x080034dc                rt_interrupt_get_nest
 .text.rt_set_errno
                0x08003504       0x40 ./rt-thread/src/kservice.o
                0x08003504                rt_set_errno
 .text._rt_errno
                0x08003544       0x34 ./rt-thread/src/kservice.o
                0x08003544                _rt_errno
 .text.rt_memset
                0x08003578       0xb8 ./rt-thread/src/kservice.o
                0x08003578                rt_memset
 .text.rt_memcpy
                0x08003630       0xd4 ./rt-thread/src/kservice.o
                0x08003630                rt_memcpy
 .text.rt_memmove
                0x08003704       0x84 ./rt-thread/src/kservice.o
                0x08003704                rt_memmove
 .text.rt_memcmp
                0x08003788       0x58 ./rt-thread/src/kservice.o
                0x08003788                rt_memcmp
 .text.rt_strstr
                0x080037e0       0x60 ./rt-thread/src/kservice.o
                0x080037e0                rt_strstr
 .text.rt_strncpy
                0x08003840       0x64 ./rt-thread/src/kservice.o
                0x08003840                rt_strncpy
 .text.rt_strncmp
                0x080038a4       0x4c ./rt-thread/src/kservice.o
                0x080038a4                rt_strncmp
 .text.rt_strcmp
                0x080038f0       0x44 ./rt-thread/src/kservice.o
                0x080038f0                rt_strcmp
 .text.rt_strlen
                0x08003934       0x30 ./rt-thread/src/kservice.o
                0x08003934                rt_strlen
 .text.rt_strdup
                0x08003964       0x3c ./rt-thread/src/kservice.o
                0x08003964                rt_strdup
 .text.rt_show_version
                0x080039a0       0x4c ./rt-thread/src/kservice.o
                0x080039a0                rt_show_version
 .text.divide   0x080039ec       0x68 ./rt-thread/src/kservice.o
 .text.skip_atoi
                0x08003a54       0x40 ./rt-thread/src/kservice.o
 .text.print_number
                0x08003a94      0x1dc ./rt-thread/src/kservice.o
 .text.rt_vsnprintf
                0x08003c70      0x560 ./rt-thread/src/kservice.o
                0x08003c70                rt_vsnprintf
 .text.rt_snprintf
                0x080041d0       0x30 ./rt-thread/src/kservice.o
                0x080041d0                rt_snprintf
 .text.rt_vsprintf
                0x08004200       0x24 ./rt-thread/src/kservice.o
                0x08004200                rt_vsprintf
 .text.rt_sprintf
                0x08004224       0x2c ./rt-thread/src/kservice.o
                0x08004224                rt_sprintf
 .text.rt_console_get_device
                0x08004250       0x18 ./rt-thread/src/kservice.o
                0x08004250                rt_console_get_device
 .text.rt_console_set_device
                0x08004268       0x58 ./rt-thread/src/kservice.o
                0x08004268                rt_console_set_device
 .text.rt_hw_console_output
                0x080042c0       0x14 ./rt-thread/src/kservice.o
                0x080042c0                rt_hw_console_output
 .text.rt_kprintf
                0x080042d4       0x64 ./rt-thread/src/kservice.o
                0x080042d4                rt_kprintf
 .text.__rt_ffs
                0x08004338       0x70 ./rt-thread/src/kservice.o
                0x08004338                __rt_ffs
 .text.rt_assert_handler
                0x080043a8       0x4c ./rt-thread/src/kservice.o
                0x080043a8                rt_assert_handler
 .text.plug_holes
                0x080043f4      0x100 ./rt-thread/src/mem.o
 .text.rt_system_heap_init
                0x080044f4      0x118 ./rt-thread/src/mem.o
                0x080044f4                rt_system_heap_init
 .text.rt_malloc
                0x0800460c      0x294 ./rt-thread/src/mem.o
                0x0800460c                rt_malloc
 .text.rt_realloc
                0x080048a0      0x1ac ./rt-thread/src/mem.o
                0x080048a0                rt_realloc
 .text.rt_calloc
                0x08004a4c       0x3c ./rt-thread/src/mem.o
                0x08004a4c                rt_calloc
 .text.rt_free  0x08004a88      0x188 ./rt-thread/src/mem.o
                0x08004a88                rt_free
 .text.list_mem
                0x08004c10       0x44 ./rt-thread/src/mem.o
                0x08004c10                list_mem
 .text.rt_list_insert_after
                0x08004c54       0x34 ./rt-thread/src/object.o
 .text.rt_list_remove
                0x08004c88       0x38 ./rt-thread/src/object.o
 .text.rt_object_get_information
                0x08004cc0       0x48 ./rt-thread/src/object.o
                0x08004cc0                rt_object_get_information
 .text.rt_object_init
                0x08004d08       0xcc ./rt-thread/src/object.o
                0x08004d08                rt_object_init
 .text.rt_object_detach
                0x08004dd4       0x5c ./rt-thread/src/object.o
                0x08004dd4                rt_object_detach
 .text.rt_object_allocate
                0x08004e30       0xd8 ./rt-thread/src/object.o
                0x08004e30                rt_object_allocate
 .text.rt_object_delete
                0x08004f08       0x7c ./rt-thread/src/object.o
                0x08004f08                rt_object_delete
 .text.rt_object_is_systemobject
                0x08004f84       0x3c ./rt-thread/src/object.o
                0x08004f84                rt_object_is_systemobject
 .text.rt_object_get_type
                0x08004fc0       0x34 ./rt-thread/src/object.o
                0x08004fc0                rt_object_get_type
 .text.rt_object_find
                0x08004ff4       0xb4 ./rt-thread/src/object.o
                0x08004ff4                rt_object_find
 .text.rt_list_init
                0x080050a8       0x24 ./rt-thread/src/scheduler.o
 .text.rt_list_insert_before
                0x080050cc       0x34 ./rt-thread/src/scheduler.o
 .text.rt_list_remove
                0x08005100       0x38 ./rt-thread/src/scheduler.o
 .text.rt_list_isempty
                0x08005138       0x24 ./rt-thread/src/scheduler.o
 .text._rt_scheduler_stack_check
                0x0800515c       0x94 ./rt-thread/src/scheduler.o
 .text._scheduler_get_highest_priority_thread
                0x080051f0       0x38 ./rt-thread/src/scheduler.o
 .text.rt_system_scheduler_init
                0x08005228       0x38 ./rt-thread/src/scheduler.o
                0x08005228                rt_system_scheduler_init
 .text.rt_system_scheduler_start
                0x08005260       0x38 ./rt-thread/src/scheduler.o
                0x08005260                rt_system_scheduler_start
 .text.rt_schedule
                0x08005298      0x19c ./rt-thread/src/scheduler.o
                0x08005298                rt_schedule
 .text.rt_schedule_insert_thread
                0x08005434       0xac ./rt-thread/src/scheduler.o
                0x08005434                rt_schedule_insert_thread
 .text.rt_schedule_remove_thread
                0x080054e0       0x70 ./rt-thread/src/scheduler.o
                0x080054e0                rt_schedule_remove_thread
 .text.rt_enter_critical
                0x08005550       0x2c ./rt-thread/src/scheduler.o
                0x08005550                rt_enter_critical
 .text.rt_exit_critical
                0x0800557c       0x54 ./rt-thread/src/scheduler.o
                0x0800557c                rt_exit_critical
 .text.rt_list_init
                0x080055d0       0x24 ./rt-thread/src/thread.o
 .text.rt_list_remove
                0x080055f4       0x38 ./rt-thread/src/thread.o
 .text._thread_cleanup_execute
                0x0800562c       0x2c ./rt-thread/src/thread.o
 .text._thread_exit
                0x08005658       0x5c ./rt-thread/src/thread.o
 .text._thread_init
                0x080056b4       0xf8 ./rt-thread/src/thread.o
 .text.rt_thread_init
                0x080057ac       0x70 ./rt-thread/src/thread.o
                0x080057ac                rt_thread_init
 .text.rt_thread_self
                0x0800581c       0x18 ./rt-thread/src/thread.o
                0x0800581c                rt_thread_self
 .text.rt_thread_startup
                0x08005834       0xa0 ./rt-thread/src/thread.o
                0x08005834                rt_thread_startup
 .text.rt_thread_detach
                0x080058d4       0xc8 ./rt-thread/src/thread.o
                0x080058d4                rt_thread_detach
 .text.rt_thread_create
                0x0800599c       0x64 ./rt-thread/src/thread.o
                0x0800599c                rt_thread_create
 .text.rt_thread_delete
                0x08005a00       0xb4 ./rt-thread/src/thread.o
                0x08005a00                rt_thread_delete
 .text.rt_thread_sleep
                0x08005ab4       0x8c ./rt-thread/src/thread.o
                0x08005ab4                rt_thread_sleep
 .text.rt_thread_delay
                0x08005b40       0x18 ./rt-thread/src/thread.o
                0x08005b40                rt_thread_delay
 .text.rt_thread_mdelay
                0x08005b58       0x20 ./rt-thread/src/thread.o
                0x08005b58                rt_thread_mdelay
 .text.rt_thread_control
                0x08005b78       0xf0 ./rt-thread/src/thread.o
                0x08005b78                rt_thread_control
 .text.rt_thread_suspend
                0x08005c68       0xcc ./rt-thread/src/thread.o
                0x08005c68                rt_thread_suspend
 .text.rt_thread_resume
                0x08005d34       0x98 ./rt-thread/src/thread.o
                0x08005d34                rt_thread_resume
 .text.rt_thread_timeout
                0x08005dcc       0x90 ./rt-thread/src/thread.o
                0x08005dcc                rt_thread_timeout
 .text.rt_thread_find
                0x08005e5c       0x1c ./rt-thread/src/thread.o
                0x08005e5c                rt_thread_find
 .text.rt_list_init
                0x08005e78       0x24 ./rt-thread/src/timer.o
 .text.rt_list_insert_after
                0x08005e9c       0x34 ./rt-thread/src/timer.o
 .text.rt_list_remove
                0x08005ed0       0x38 ./rt-thread/src/timer.o
 .text.rt_list_isempty
                0x08005f08       0x24 ./rt-thread/src/timer.o
 .text._timer_init
                0x08005f2c       0x68 ./rt-thread/src/timer.o
 .text._timer_list_next_timeout
                0x08005f94       0x40 ./rt-thread/src/timer.o
 .text._timer_remove
                0x08005fd4       0x34 ./rt-thread/src/timer.o
 .text.rt_timer_init
                0x08006008       0x4c ./rt-thread/src/timer.o
                0x08006008                rt_timer_init
 .text.rt_timer_detach
                0x08006054       0x90 ./rt-thread/src/timer.o
                0x08006054                rt_timer_detach
 .text.rt_timer_start
                0x080060e4      0x244 ./rt-thread/src/timer.o
                0x080060e4                rt_timer_start
 .text.rt_timer_stop
                0x08006328       0x94 ./rt-thread/src/timer.o
                0x08006328                rt_timer_stop
 .text.rt_timer_control
                0x080063bc       0xd0 ./rt-thread/src/timer.o
                0x080063bc                rt_timer_control
 .text.rt_timer_check
                0x0800648c      0x108 ./rt-thread/src/timer.o
                0x0800648c                rt_timer_check
 .text.rt_soft_timer_check
                0x08006594      0x120 ./rt-thread/src/timer.o
                0x08006594                rt_soft_timer_check
 .text._timer_thread_entry
                0x080066b4       0x58 ./rt-thread/src/timer.o
 .text.rt_system_timer_init
                0x0800670c       0x34 ./rt-thread/src/timer.o
                0x0800670c                rt_system_timer_init
 .text.rt_system_timer_thread_init
                0x08006740       0x68 ./rt-thread/src/timer.o
                0x08006740                rt_system_timer_thread_init
 .text.rt_hw_stack_init
                0x080067a8       0x90 ./rt-thread/libcpu/arm/cortex-m4/cpuport.o
                0x080067a8                rt_hw_stack_init
 .text.usage_fault_track
                0x08006838       0xc4 ./rt-thread/libcpu/arm/cortex-m4/cpuport.o
 .text.bus_fault_track
                0x080068fc       0xcc ./rt-thread/libcpu/arm/cortex-m4/cpuport.o
 .text.mem_manage_fault_track
                0x080069c8       0xb4 ./rt-thread/libcpu/arm/cortex-m4/cpuport.o
 .text.hard_fault_track
                0x08006a7c       0x78 ./rt-thread/libcpu/arm/cortex-m4/cpuport.o
 .text.rt_hw_hard_fault_exception
                0x08006af4      0x184 ./rt-thread/libcpu/arm/cortex-m4/cpuport.o
                0x08006af4                rt_hw_hard_fault_exception
 .text.rt_hw_cpu_reset
                0x08006c78       0x1c ./rt-thread/libcpu/arm/cortex-m4/cpuport.o
                0x08006c78                rt_hw_cpu_reset
 .text.rt_list_init
                0x08006c94       0x24 ./rt-thread/components/net/sal_socket/src/sal_socket.o
 .text.rt_work_init
                0x08006cb8       0x3c ./rt-thread/components/net/sal_socket/src/sal_socket.o
 .text.sal_init
                0x08006cf4       0xac ./rt-thread/components/net/sal_socket/src/sal_socket.o
                0x08006cf4                sal_init
 .text.check_netdev_internet_up_work
                0x08006da0      0x2c4 ./rt-thread/components/net/sal_socket/src/sal_socket.o
 .text.sal_check_netdev_internet_up
                0x08007064       0x80 ./rt-thread/components/net/sal_socket/src/sal_socket.o
                0x08007064                sal_check_netdev_internet_up
 .text.sal_get_socket
                0x080070e4       0x64 ./rt-thread/components/net/sal_socket/src/sal_socket.o
                0x080070e4                sal_get_socket
 .text.sal_lock
                0x08007148       0x38 ./rt-thread/components/net/sal_socket/src/sal_socket.o
 .text.sal_unlock
                0x08007180       0x14 ./rt-thread/components/net/sal_socket/src/sal_socket.o
 .text.socket_init
                0x08007194       0xec ./rt-thread/components/net/sal_socket/src/sal_socket.o
 .text.socket_alloc
                0x08007280       0xf8 ./rt-thread/components/net/sal_socket/src/sal_socket.o
 .text.socket_free
                0x08007378       0x34 ./rt-thread/components/net/sal_socket/src/sal_socket.o
 .text.socket_new
                0x080073ac       0x68 ./rt-thread/components/net/sal_socket/src/sal_socket.o
 .text.socket_delete
                0x08007414       0x70 ./rt-thread/components/net/sal_socket/src/sal_socket.o
 .text.sal_setsockopt
                0x08007484       0x5c ./rt-thread/components/net/sal_socket/src/sal_socket.o
                0x08007484                sal_setsockopt
 .text.sal_connect
                0x080074e0       0x6c ./rt-thread/components/net/sal_socket/src/sal_socket.o
                0x080074e0                sal_connect
 .text.sal_recvfrom
                0x0800754c       0x74 ./rt-thread/components/net/sal_socket/src/sal_socket.o
                0x0800754c                sal_recvfrom
 .text.sal_sendto
                0x080075c0       0x74 ./rt-thread/components/net/sal_socket/src/sal_socket.o
                0x080075c0                sal_sendto
 .text.sal_socket
                0x08007634       0xc8 ./rt-thread/components/net/sal_socket/src/sal_socket.o
                0x08007634                sal_socket
 .text.sal_closesocket
                0x080076fc       0x68 ./rt-thread/components/net/sal_socket/src/sal_socket.o
                0x080076fc                sal_closesocket
 .text.sal_ioctlsocket
                0x08007764       0x54 ./rt-thread/components/net/sal_socket/src/sal_socket.o
                0x08007764                sal_ioctlsocket
 .text.sal_poll
                0x080077b8       0x68 ./rt-thread/components/net/sal_socket/src/sal_socket.o
                0x080077b8                sal_poll
 .text.sal_getaddrinfo
                0x08007820      0x10c ./rt-thread/components/net/sal_socket/src/sal_socket.o
                0x08007820                sal_getaddrinfo
 .text.sal_freeaddrinfo
                0x0800792c       0xa4 ./rt-thread/components/net/sal_socket/src/sal_socket.o
                0x0800792c                sal_freeaddrinfo
 .text.freeaddrinfo
                0x080079d0       0x18 ./rt-thread/components/net/sal_socket/socket/net_netdb.o
                0x080079d0                freeaddrinfo
 .text.getaddrinfo
                0x080079e8       0x24 ./rt-thread/components/net/sal_socket/socket/net_netdb.o
                0x080079e8                getaddrinfo
 .text.setsockopt
                0x08007a0c       0x30 ./rt-thread/components/net/sal_socket/socket/net_sockets.o
                0x08007a0c                setsockopt
 .text.connect  0x08007a3c       0x28 ./rt-thread/components/net/sal_socket/socket/net_sockets.o
                0x08007a3c                connect
 .text.recv     0x08007a64       0x34 ./rt-thread/components/net/sal_socket/socket/net_sockets.o
                0x08007a64                recv
 .text.send     0x08007a98       0x34 ./rt-thread/components/net/sal_socket/socket/net_sockets.o
                0x08007a98                send
 .text.socket   0x08007acc       0x98 ./rt-thread/components/net/sal_socket/socket/net_sockets.o
                0x08007acc                socket
 .text.closesocket
                0x08007b64       0x80 ./rt-thread/components/net/sal_socket/socket/net_sockets.o
                0x08007b64                closesocket
 .text.rt_poll_add
                0x08007be4       0x30 ./rt-thread/components/net/sal_socket/impl/af_inet_at.o
 .text.at_poll  0x08007c14       0x8c ./rt-thread/components/net/sal_socket/impl/af_inet_at.o
 .text.sal_at_netdev_set_pf_info
                0x08007ca0       0x34 ./rt-thread/components/net/sal_socket/impl/af_inet_at.o
                0x08007ca0                sal_at_netdev_set_pf_info
 .text.dfs_net_getsocket
                0x08007cd4       0x44 ./rt-thread/components/net/sal_socket/dfs_net/dfs_net.o
                0x08007cd4                dfs_net_getsocket
 .text.dfs_net_ioctl
                0x08007d18       0x28 ./rt-thread/components/net/sal_socket/dfs_net/dfs_net.o
 .text.dfs_net_read
                0x08007d40       0x30 ./rt-thread/components/net/sal_socket/dfs_net/dfs_net.o
 .text.dfs_net_write
                0x08007d70       0x30 ./rt-thread/components/net/sal_socket/dfs_net/dfs_net.o
 .text.dfs_net_close
                0x08007da0       0x20 ./rt-thread/components/net/sal_socket/dfs_net/dfs_net.o
 .text.dfs_net_poll
                0x08007dc0       0x1c ./rt-thread/components/net/sal_socket/dfs_net/dfs_net.o
 .text.dfs_net_get_fops
                0x08007ddc       0x14 ./rt-thread/components/net/sal_socket/dfs_net/dfs_net.o
                0x08007ddc                dfs_net_get_fops
 .text.rt_slist_init
                0x08007df0       0x1c ./rt-thread/components/net/netdev/src/netdev.o
 .text.rt_slist_append
                0x08007e0c       0x38 ./rt-thread/components/net/netdev/src/netdev.o
 .text.rt_slist_next
                0x08007e44       0x18 ./rt-thread/components/net/netdev/src/netdev.o
 .text.netdev_register
                0x08007e5c      0x140 ./rt-thread/components/net/netdev/src/netdev.o
                0x08007e5c                netdev_register
 .text.netdev_get_first_by_flags
                0x08007f9c       0x70 ./rt-thread/components/net/netdev/src/netdev.o
                0x08007f9c                netdev_get_first_by_flags
 .text.netdev_get_by_name
                0x0800800c       0x94 ./rt-thread/components/net/netdev/src/netdev.o
                0x0800800c                netdev_get_by_name
 .text.netdev_get_by_family
                0x080080a0       0xd8 ./rt-thread/components/net/netdev/src/netdev.o
                0x080080a0                netdev_get_by_family
 .text.netdev_family_get
                0x08008178       0x30 ./rt-thread/components/net/netdev/src/netdev.o
                0x08008178                netdev_family_get
 .text.netdev_set_default
                0x080081a8       0x34 ./rt-thread/components/net/netdev/src/netdev.o
                0x080081a8                netdev_set_default
 .text.netdev_set_ipaddr
                0x080081dc       0xc0 ./rt-thread/components/net/netdev/src/netdev.o
                0x080081dc                netdev_set_ipaddr
 .text.netdev_set_netmask
                0x0800829c       0xc0 ./rt-thread/components/net/netdev/src/netdev.o
                0x0800829c                netdev_set_netmask
 .text.netdev_set_gw
                0x0800835c       0xc0 ./rt-thread/components/net/netdev/src/netdev.o
                0x0800835c                netdev_set_gw
 .text.netdev_set_dns_server
                0x0800841c       0xbc ./rt-thread/components/net/netdev/src/netdev.o
                0x0800841c                netdev_set_dns_server
 .text.netdev_low_level_set_ipaddr
                0x080084d8       0x78 ./rt-thread/components/net/netdev/src/netdev.o
                0x080084d8                netdev_low_level_set_ipaddr
 .text.netdev_low_level_set_dns_server
                0x08008550       0x88 ./rt-thread/components/net/netdev/src/netdev.o
                0x08008550                netdev_low_level_set_dns_server
 .text.netdev_auto_change_default
                0x080085d8       0x40 ./rt-thread/components/net/netdev/src/netdev.o
 .text.netdev_low_level_set_status
                0x08008618       0x70 ./rt-thread/components/net/netdev/src/netdev.o
                0x08008618                netdev_low_level_set_status
 .text.netdev_low_level_set_link_status
                0x08008688       0xa8 ./rt-thread/components/net/netdev/src/netdev.o
                0x08008688                netdev_low_level_set_link_status
 .text.netdev_low_level_set_internet_status
                0x08008730       0x74 ./rt-thread/components/net/netdev/src/netdev.o
                0x08008730                netdev_low_level_set_internet_status
 .text.netdev_low_level_set_dhcp_status
                0x080087a4       0x74 ./rt-thread/components/net/netdev/src/netdev.o
                0x080087a4                netdev_low_level_set_dhcp_status
 .text.netdev_list_if
                0x08008818      0x2b4 ./rt-thread/components/net/netdev/src/netdev.o
 .text.netdev_set_if
                0x08008acc       0xa0 ./rt-thread/components/net/netdev/src/netdev.o
 .text.netdev_ifconfig
                0x08008b6c       0x98 ./rt-thread/components/net/netdev/src/netdev.o
                0x08008b6c                netdev_ifconfig
 .text.netdev_cmd_ping
                0x08008c04      0x218 ./rt-thread/components/net/netdev/src/netdev.o
                0x08008c04                netdev_cmd_ping
 .text.netdev_ping
                0x08008e1c       0x38 ./rt-thread/components/net/netdev/src/netdev.o
                0x08008e1c                netdev_ping
 .text.netdev_list_dns
                0x08008e54       0xb0 ./rt-thread/components/net/netdev/src/netdev.o
 .text.netdev_set_dns
                0x08008f04       0x64 ./rt-thread/components/net/netdev/src/netdev.o
 .text.netdev_dns
                0x08008f68       0x78 ./rt-thread/components/net/netdev/src/netdev.o
                0x08008f68                netdev_dns
 .text.netdev_cmd_netstat
                0x08008fe0       0x84 ./rt-thread/components/net/netdev/src/netdev.o
 .text.netdev_netstat
                0x08009064       0x2c ./rt-thread/components/net/netdev/src/netdev.o
                0x08009064                netdev_netstat
 .text.netdev_ip4addr_aton
                0x08009090      0x28c ./rt-thread/components/net/netdev/src/netdev_ipaddr.o
                0x08009090                netdev_ip4addr_aton
 .text.netdev_ip4addr_ntoa_r
                0x0800931c      0x104 ./rt-thread/components/net/netdev/src/netdev_ipaddr.o
                0x0800931c                netdev_ip4addr_ntoa_r
 .text.netdev_ip4addr_ntoa
                0x08009420       0x20 ./rt-thread/components/net/netdev/src/netdev_ipaddr.o
                0x08009420                netdev_ip4addr_ntoa
 .text.console_getchar
                0x08009440       0x30 ./rt-thread/components/net/at/src/at_cli.o
 .text.console_getchar_rx_ind
                0x08009470       0x5c ./rt-thread/components/net/at/src/at_cli.o
 .text.at_cli_init
                0x080094cc       0x80 ./rt-thread/components/net/at/src/at_cli.o
                0x080094cc                at_cli_init
 .text.at_cli_deinit
                0x0800954c       0x58 ./rt-thread/components/net/at/src/at_cli.o
                0x0800954c                at_cli_deinit
 .text.client_getchar
                0x080095a4       0x30 ./rt-thread/components/net/at/src/at_cli.o
 .text.at_client_entry
                0x080095d4       0x20 ./rt-thread/components/net/at/src/at_cli.o
 .text.client_getchar_rx_ind
                0x080095f4       0x5c ./rt-thread/components/net/at/src/at_cli.o
 .text.client_cli_parser
                0x08009650      0x1d0 ./rt-thread/components/net/at/src/at_cli.o
 .text.at       0x08009820       0xc0 ./rt-thread/components/net/at/src/at_cli.o
 .text.at_create_resp
                0x080098e0       0x9c ./rt-thread/components/net/at/src/at_client.o
                0x080098e0                at_create_resp
 .text.at_delete_resp
                0x0800997c       0x38 ./rt-thread/components/net/at/src/at_client.o
                0x0800997c                at_delete_resp
 .text.at_resp_set_info
                0x080099b4       0x6c ./rt-thread/components/net/at/src/at_client.o
                0x080099b4                at_resp_set_info
 .text.at_resp_get_line
                0x08009a20       0xa4 ./rt-thread/components/net/at/src/at_client.o
                0x08009a20                at_resp_get_line
 .text.at_resp_get_line_by_kw
                0x08009ac4       0x8c ./rt-thread/components/net/at/src/at_client.o
                0x08009ac4                at_resp_get_line_by_kw
 .text.at_resp_parse_line_args
                0x08009b50       0x78 ./rt-thread/components/net/at/src/at_client.o
                0x08009b50                at_resp_parse_line_args
 .text.at_resp_parse_line_args_by_kw
                0x08009bc8       0x7c ./rt-thread/components/net/at/src/at_client.o
                0x08009bc8                at_resp_parse_line_args_by_kw
 .text.at_obj_exec_cmd
                0x08009c44      0x174 ./rt-thread/components/net/at/src/at_client.o
                0x08009c44                at_obj_exec_cmd
 .text.at_client_obj_wait_connect
                0x08009db8      0x13c ./rt-thread/components/net/at/src/at_client.o
                0x08009db8                at_client_obj_wait_connect
 .text.at_client_obj_send
                0x08009ef4       0x80 ./rt-thread/components/net/at/src/at_client.o
                0x08009ef4                at_client_obj_send
 .text.at_client_getchar
                0x08009f74       0x60 ./rt-thread/components/net/at/src/at_client.o
 .text.at_client_obj_recv
                0x08009fd4       0xc0 ./rt-thread/components/net/at/src/at_client.o
                0x08009fd4                at_client_obj_recv
 .text.at_obj_set_end_sign
                0x0800a094       0x40 ./rt-thread/components/net/at/src/at_client.o
                0x0800a094                at_obj_set_end_sign
 .text.at_obj_set_urc_table
                0x0800a0d4      0x13c ./rt-thread/components/net/at/src/at_client.o
                0x0800a0d4                at_obj_set_urc_table
 .text.at_client_get
                0x0800a210       0x70 ./rt-thread/components/net/at/src/at_client.o
                0x0800a210                at_client_get
 .text.at_client_get_first
                0x0800a280       0x20 ./rt-thread/components/net/at/src/at_client.o
                0x0800a280                at_client_get_first
 .text.get_urc_obj
                0x0800a2a0       0xf0 ./rt-thread/components/net/at/src/at_client.o
 .text.at_recv_readline
                0x0800a390       0xe8 ./rt-thread/components/net/at/src/at_client.o
 .text.client_parser
                0x0800a478      0x1a4 ./rt-thread/components/net/at/src/at_client.o
 .text.at_client_rx_ind
                0x0800a61c       0x60 ./rt-thread/components/net/at/src/at_client.o
 .text.at_client_para_init
                0x0800a67c      0x22c ./rt-thread/components/net/at/src/at_client.o
 .text.at_client_init
                0x0800a8a8      0x1d4 ./rt-thread/components/net/at/src/at_client.o
                0x0800a8a8                at_client_init
 .text.at_get_last_cmd
                0x0800aa7c       0x28 ./rt-thread/components/net/at/src/at_utils.o
                0x0800aa7c                at_get_last_cmd
 .text.at_utils_send
                0x0800aaa4       0x24 ./rt-thread/components/net/at/src/at_utils.o
                0x0800aaa4                at_utils_send
 .text.at_vprintfln
                0x0800aac8       0x6c ./rt-thread/components/net/at/src/at_utils.o
                0x0800aac8                at_vprintfln
 .text.rt_list_init
                0x0800ab34       0x24 ./rt-thread/components/net/at/at_socket/at_socket.o
 .text.rt_slist_init
                0x0800ab58       0x1c ./rt-thread/components/net/at/at_socket/at_socket.o
 .text.rt_slist_append
                0x0800ab74       0x38 ./rt-thread/components/net/at/at_socket/at_socket.o
 .text.rt_slist_insert
                0x0800abac       0x24 ./rt-thread/components/net/at/at_socket/at_socket.o
 .text.rt_slist_remove
                0x0800abd0       0x48 ./rt-thread/components/net/at/at_socket/at_socket.o
 .text.rt_slist_first
                0x0800ac18       0x18 ./rt-thread/components/net/at/at_socket/at_socket.o
 .text.rt_slist_next
                0x0800ac30       0x18 ./rt-thread/components/net/at/at_socket/at_socket.o
 .text.rt_slist_isempty
                0x0800ac48       0x24 ./rt-thread/components/net/at/at_socket/at_socket.o
 .text.rt_wqueue_init
                0x0800ac6c       0x38 ./rt-thread/components/net/at/at_socket/at_socket.o
 .text.at_get_socket
                0x0800aca4       0x68 ./rt-thread/components/net/at/at_socket/at_socket.o
                0x0800aca4                at_get_socket
 .text.at_recvpkt_put
                0x0800ad0c       0x6c ./rt-thread/components/net/at/at_socket/at_socket.o
 .text.at_recvpkt_all_delete
                0x0800ad78       0x68 ./rt-thread/components/net/at/at_socket/at_socket.o
 .text.at_recvpkt_node_delete
                0x0800ade0       0x58 ./rt-thread/components/net/at/at_socket/at_socket.o
 .text.at_recvpkt_get
                0x0800ae38       0xe4 ./rt-thread/components/net/at/at_socket/at_socket.o
 .text.at_do_event_changes
                0x0800af1c       0xe8 ./rt-thread/components/net/at/at_socket/at_socket.o
 .text.at_do_event_clean
                0x0800b004       0x5c ./rt-thread/components/net/at/at_socket/at_socket.o
 .text.alloc_empty_socket
                0x0800b060       0x74 ./rt-thread/components/net/at/at_socket/at_socket.o
 .text.alloc_socket_by_device
                0x0800b0d4      0x204 ./rt-thread/components/net/at/at_socket/at_socket.o
 .text.alloc_socket
                0x0800b2d8       0x84 ./rt-thread/components/net/at/at_socket/at_socket.o
 .text.at_socket
                0x0800b35c       0xbc ./rt-thread/components/net/at/at_socket/at_socket.o
                0x0800b35c                at_socket
 .text.free_socket
                0x0800b418       0xb8 ./rt-thread/components/net/at/at_socket/at_socket.o
 .text.at_closesocket
                0x0800b4d0       0x6c ./rt-thread/components/net/at/at_socket/at_socket.o
                0x0800b4d0                at_closesocket
 .text.at_shutdown
                0x0800b53c       0x60 ./rt-thread/components/net/at/at_socket/at_socket.o
                0x0800b53c                at_shutdown
 .text.socketaddr_to_ipaddr_port
                0x0800b59c       0x34 ./rt-thread/components/net/at/at_socket/at_socket.o
 .text.at_bind  0x0800b5d0       0xb8 ./rt-thread/components/net/at/at_socket/at_socket.o
                0x0800b5d0                at_bind
 .text.ipaddr_to_ipstr
                0x0800b688       0x54 ./rt-thread/components/net/at/at_socket/at_socket.o
 .text.at_recv_notice_cb
                0x0800b6dc       0xb4 ./rt-thread/components/net/at/at_socket/at_socket.o
 .text.at_closed_notice_cb
                0x0800b790       0x64 ./rt-thread/components/net/at/at_socket/at_socket.o
 .text.at_connect
                0x0800b7f4       0xf4 ./rt-thread/components/net/at/at_socket/at_socket.o
                0x0800b7f4                at_connect
 .text.at_recvfrom
                0x0800b8e8      0x234 ./rt-thread/components/net/at/at_socket/at_socket.o
                0x0800b8e8                at_recvfrom
 .text.at_sendto
                0x0800bb1c      0x1b8 ./rt-thread/components/net/at/at_socket/at_socket.o
                0x0800bb1c                at_sendto
 .text.at_getsockopt
                0x0800bcd4      0x134 ./rt-thread/components/net/at/at_socket/at_socket.o
                0x0800bcd4                at_getsockopt
 .text.at_setsockopt
                0x0800be08      0x10c ./rt-thread/components/net/at/at_socket/at_socket.o
                0x0800be08                at_setsockopt
 .text.ipstr_atol
                0x0800bf14       0x94 ./rt-thread/components/net/at/at_socket/at_socket.o
 .text.ipstr_to_u32
                0x0800bfa8       0x5c ./rt-thread/components/net/at/at_socket/at_socket.o
 .text.at_gethostbyname
                0x0800c004      0x140 ./rt-thread/components/net/at/at_socket/at_socket.o
                0x0800c004                at_gethostbyname
 .text.at_getaddrinfo
                0x0800c144      0x278 ./rt-thread/components/net/at/at_socket/at_socket.o
                0x0800c144                at_getaddrinfo
 .text.at_freeaddrinfo
                0x0800c3bc       0x28 ./rt-thread/components/net/at/at_socket/at_socket.o
                0x0800c3bc                at_freeaddrinfo
 .text.libc_system_init
                0x0800c3e4       0x3c ./rt-thread/components/libc/compilers/gcc/newlib/libc.o
                0x0800c3e4                libc_system_init
 .text.libc_stdio_set_console
                0x0800c420      0x100 ./rt-thread/components/libc/compilers/gcc/newlib/stdio.o
                0x0800c420                libc_stdio_set_console
 .text.libc_stdio_get_console
                0x0800c520       0x28 ./rt-thread/components/libc/compilers/gcc/newlib/stdio.o
                0x0800c520                libc_stdio_get_console
 .text._malloc_r
                0x0800c548       0x28 ./rt-thread/components/libc/compilers/gcc/newlib/syscalls.o
                0x0800c548                _malloc_r
 .text._realloc_r
                0x0800c570       0x2c ./rt-thread/components/libc/compilers/gcc/newlib/syscalls.o
                0x0800c570                _realloc_r
 .text._calloc_r
                0x0800c59c       0x2c ./rt-thread/components/libc/compilers/gcc/newlib/syscalls.o
                0x0800c59c                _calloc_r
 .text._free_r  0x0800c5c8       0x18 ./rt-thread/components/libc/compilers/gcc/newlib/syscalls.o
                0x0800c5c8                _free_r
 .text.__errno  0x0800c5e0       0x10 ./rt-thread/components/libc/compilers/gcc/newlib/syscalls.o
                0x0800c5e0                __errno
 .text._close_r
                0x0800c5f0       0x1c ./rt-thread/components/libc/compilers/gcc/newlib/syscalls.o
                0x0800c5f0                _close_r
 .text._fstat_r
                0x0800c60c       0x24 ./rt-thread/components/libc/compilers/gcc/newlib/syscalls.o
                0x0800c60c                _fstat_r
 .text._isatty_r
                0x0800c630       0x28 ./rt-thread/components/libc/compilers/gcc/newlib/syscalls.o
                0x0800c630                _isatty_r
 .text._lseek_r
                0x0800c658       0x24 ./rt-thread/components/libc/compilers/gcc/newlib/syscalls.o
                0x0800c658                _lseek_r
 .text._open_r  0x0800c67c       0x24 ./rt-thread/components/libc/compilers/gcc/newlib/syscalls.o
                0x0800c67c                _open_r
 .text._read_r  0x0800c6a0       0x58 ./rt-thread/components/libc/compilers/gcc/newlib/syscalls.o
                0x0800c6a0                _read_r
 .text._write_r
                0x0800c6f8       0x58 ./rt-thread/components/libc/compilers/gcc/newlib/syscalls.o
                0x0800c6f8                _write_r
 .text.get_timeval
                0x0800c750       0x20 ./rt-thread/components/libc/compilers/common/time.o
 .text.time     0x0800c770       0x3c ./rt-thread/components/libc/compilers/common/time.o
                0x0800c770                time
 .text.rt_list_isempty
                0x0800c7ac       0x24 ./rt-thread/components/finsh/cmd.o
 .text.rt_list_len
                0x0800c7d0       0x38 ./rt-thread/components/finsh/cmd.o
 .text.hello    0x0800c808       0x14 ./rt-thread/components/finsh/cmd.o
                0x0800c808                hello
 .text.clear    0x0800c81c       0x14 ./rt-thread/components/finsh/cmd.o
 .text.version  0x0800c830       0x10 ./rt-thread/components/finsh/cmd.o
                0x0800c830                version
 .text.object_split
                0x0800c840       0x28 ./rt-thread/components/finsh/cmd.o
 .text.list_find_init
                0x0800c868       0x48 ./rt-thread/components/finsh/cmd.o
 .text.list_get_next
                0x0800c8b0       0xc8 ./rt-thread/components/finsh/cmd.o
 .text.list_thread
                0x0800c978      0x208 ./rt-thread/components/finsh/cmd.o
                0x0800c978                list_thread
 .text.show_wait_queue
                0x0800cb80       0x50 ./rt-thread/components/finsh/cmd.o
 .text.list_sem
                0x0800cbd0      0x12c ./rt-thread/components/finsh/cmd.o
                0x0800cbd0                list_sem
 .text.list_event
                0x0800ccfc      0x118 ./rt-thread/components/finsh/cmd.o
                0x0800ccfc                list_event
 .text.list_mutex
                0x0800ce14       0xe8 ./rt-thread/components/finsh/cmd.o
                0x0800ce14                list_mutex
 .text.list_mailbox
                0x0800cefc      0x13c ./rt-thread/components/finsh/cmd.o
                0x0800cefc                list_mailbox
 .text.list_msgqueue
                0x0800d038      0x12c ./rt-thread/components/finsh/cmd.o
                0x0800d038                list_msgqueue
 .text.list_mempool
                0x0800d164      0x144 ./rt-thread/components/finsh/cmd.o
                0x0800d164                list_mempool
 .text.list_timer
                0x0800d2a8      0x108 ./rt-thread/components/finsh/cmd.o
                0x0800d2a8                list_timer
 .text.list_device
                0x0800d3b0       0xf0 ./rt-thread/components/finsh/cmd.o
                0x0800d3b0                list_device
 .text.list     0x0800d4a0       0x6c ./rt-thread/components/finsh/cmd.o
                0x0800d4a0                list
 .text.msh_help
                0x0800d50c       0x5c ./rt-thread/components/finsh/msh.o
                0x0800d50c                msh_help
 .text.cmd_ps   0x0800d568       0x18 ./rt-thread/components/finsh/msh.o
                0x0800d568                cmd_ps
 .text.cmd_free
                0x0800d580       0x18 ./rt-thread/components/finsh/msh.o
                0x0800d580                cmd_free
 .text.msh_split
                0x0800d598      0x170 ./rt-thread/components/finsh/msh.o
 .text.msh_get_cmd
                0x0800d708       0x64 ./rt-thread/components/finsh/msh.o
 .text._msh_exec_cmd
                0x0800d76c       0xd4 ./rt-thread/components/finsh/msh.o
 .text.msh_exec
                0x0800d840       0xa0 ./rt-thread/components/finsh/msh.o
                0x0800d840                msh_exec
 .text.str_common
                0x0800d8e0       0x4c ./rt-thread/components/finsh/msh.o
 .text.msh_auto_complete_path
                0x0800d92c      0x228 ./rt-thread/components/finsh/msh.o
                0x0800d92c                msh_auto_complete_path
 .text.msh_auto_complete
                0x0800db54       0xe4 ./rt-thread/components/finsh/msh.o
                0x0800db54                msh_auto_complete
 .text.msh_readline
                0x0800dc38       0xa4 ./rt-thread/components/finsh/msh_file.o
 .text.msh_exec_script
                0x0800dcdc      0x180 ./rt-thread/components/finsh/msh_file.o
                0x0800dcdc                msh_exec_script
 .text.cmd_ls   0x0800de5c       0x34 ./rt-thread/components/finsh/msh_file.o
 .text.cmd_cp   0x0800de90       0x44 ./rt-thread/components/finsh/msh_file.o
 .text.cmd_mv   0x0800ded4      0x138 ./rt-thread/components/finsh/msh_file.o
 .text.cmd_cat  0x0800e00c       0x58 ./rt-thread/components/finsh/msh_file.o
 .text.directory_delete_for_msh
                0x0800e064      0x13c ./rt-thread/components/finsh/msh_file.o
 .text.cmd_rm   0x0800e1a0      0x1c4 ./rt-thread/components/finsh/msh_file.o
 .text.cmd_cd   0x0800e364       0x58 ./rt-thread/components/finsh/msh_file.o
 .text.cmd_pwd  0x0800e3bc       0x24 ./rt-thread/components/finsh/msh_file.o
 .text.cmd_mkdir
                0x0800e3e0       0x40 ./rt-thread/components/finsh/msh_file.o
 .text.cmd_mkfs
                0x0800e420       0x90 ./rt-thread/components/finsh/msh_file.o
 .text.cmd_mount
                0x0800e4b0       0xe0 ./rt-thread/components/finsh/msh_file.o
 .text.cmd_umount
                0x0800e590       0x64 ./rt-thread/components/finsh/msh_file.o
 .text.cmd_df   0x0800e5f4       0x70 ./rt-thread/components/finsh/msh_file.o
 .text.cmd_echo
                0x0800e664       0x94 ./rt-thread/components/finsh/msh_file.o
 .text.cmd_tail
                0x0800e6f8      0x1b0 ./rt-thread/components/finsh/msh_file.o
 .text.finsh_get_prompt
                0x0800e8a8       0x9c ./rt-thread/components/finsh/shell.o
                0x0800e8a8                finsh_get_prompt
 .text.finsh_set_prompt_mode
                0x0800e944       0x48 ./rt-thread/components/finsh/shell.o
                0x0800e944                finsh_set_prompt_mode
 .text.finsh_getchar
                0x0800e98c       0x44 ./rt-thread/components/finsh/shell.o
                0x0800e98c                finsh_getchar
 .text.shell_auto_complete
                0x0800e9d0       0x34 ./rt-thread/components/finsh/shell.o
 .text.shell_handle_history
                0x0800ea04       0x34 ./rt-thread/components/finsh/shell.o
 .text.shell_push_history
                0x0800ea38      0x160 ./rt-thread/components/finsh/shell.o
 .text.finsh_thread_entry
                0x0800eb98      0x5b0 ./rt-thread/components/finsh/shell.o
                0x0800eb98                finsh_thread_entry
 .text.finsh_system_function_init
                0x0800f148       0x2c ./rt-thread/components/finsh/shell.o
                0x0800f148                finsh_system_function_init
 .text.finsh_system_init
                0x0800f174       0x9c ./rt-thread/components/finsh/shell.o
                0x0800f174                finsh_system_init
 .text.rt_list_init
                0x0800f210       0x24 ./rt-thread/components/drivers/src/completion.o
 .text.rt_list_insert_before
                0x0800f234       0x34 ./rt-thread/components/drivers/src/completion.o
 .text.rt_list_isempty
                0x0800f268       0x24 ./rt-thread/components/drivers/src/completion.o
 .text.rt_completion_init
                0x0800f28c       0x44 ./rt-thread/components/drivers/src/completion.o
                0x0800f28c                rt_completion_init
 .text.rt_completion_wait
                0x0800f2d0       0xfc ./rt-thread/components/drivers/src/completion.o
                0x0800f2d0                rt_completion_wait
 .text.rt_completion_done
                0x0800f3cc       0x70 ./rt-thread/components/drivers/src/completion.o
                0x0800f3cc                rt_completion_done
 .text.rt_list_init
                0x0800f43c       0x24 ./rt-thread/components/drivers/src/dataqueue.o
 .text.rt_list_insert_before
                0x0800f460       0x34 ./rt-thread/components/drivers/src/dataqueue.o
 .text.rt_list_isempty
                0x0800f494       0x24 ./rt-thread/components/drivers/src/dataqueue.o
 .text.rt_data_queue_init
                0x0800f4b8       0xc0 ./rt-thread/components/drivers/src/dataqueue.o
                0x0800f4b8                rt_data_queue_init
 .text.rt_data_queue_push
                0x0800f578      0x1ec ./rt-thread/components/drivers/src/dataqueue.o
                0x0800f578                rt_data_queue_push
 .text.rt_data_queue_pop
                0x0800f764      0x248 ./rt-thread/components/drivers/src/dataqueue.o
                0x0800f764                rt_data_queue_pop
 .text.rt_data_queue_peek
                0x0800f9ac       0xa4 ./rt-thread/components/drivers/src/dataqueue.o
                0x0800f9ac                rt_data_queue_peek
 .text.rt_data_queue_reset
                0x0800fa50       0xfc ./rt-thread/components/drivers/src/dataqueue.o
                0x0800fa50                rt_data_queue_reset
 .text.rt_data_queue_deinit
                0x0800fb4c       0x70 ./rt-thread/components/drivers/src/dataqueue.o
                0x0800fb4c                rt_data_queue_deinit
 .text.rt_data_queue_len
                0x0800fbbc       0xc8 ./rt-thread/components/drivers/src/dataqueue.o
                0x0800fbbc                rt_data_queue_len
 .text.rt_list_init
                0x0800fc84       0x24 ./rt-thread/components/drivers/src/pipe.o
 .text.rt_wqueue_init
                0x0800fca8       0x38 ./rt-thread/components/drivers/src/pipe.o
 .text.rt_poll_add
                0x0800fce0       0x30 ./rt-thread/components/drivers/src/pipe.o
 .text.pipe_fops_open
                0x0800fd10       0xd8 ./rt-thread/components/drivers/src/pipe.o
 .text.pipe_fops_close
                0x0800fde8      0x10c ./rt-thread/components/drivers/src/pipe.o
 .text.pipe_fops_ioctl
                0x0800fef4       0x74 ./rt-thread/components/drivers/src/pipe.o
 .text.pipe_fops_read
                0x0800ff68       0xc8 ./rt-thread/components/drivers/src/pipe.o
 .text.pipe_fops_write
                0x08010030      0x118 ./rt-thread/components/drivers/src/pipe.o
 .text.pipe_fops_poll
                0x08010148       0xd4 ./rt-thread/components/drivers/src/pipe.o
 .text.rt_pipe_open
                0x0801021c       0x6c ./rt-thread/components/drivers/src/pipe.o
                0x0801021c                rt_pipe_open
 .text.rt_pipe_close
                0x08010288       0x54 ./rt-thread/components/drivers/src/pipe.o
                0x08010288                rt_pipe_close
 .text.rt_pipe_read
                0x080102dc       0x94 ./rt-thread/components/drivers/src/pipe.o
                0x080102dc                rt_pipe_read
 .text.rt_pipe_write
                0x08010370       0x94 ./rt-thread/components/drivers/src/pipe.o
                0x08010370                rt_pipe_write
 .text.rt_pipe_control
                0x08010404       0x1c ./rt-thread/components/drivers/src/pipe.o
                0x08010404                rt_pipe_control
 .text.rt_pipe_create
                0x08010420       0xf4 ./rt-thread/components/drivers/src/pipe.o
                0x08010420                rt_pipe_create
 .text.rt_pipe_delete
                0x08010514       0x7c ./rt-thread/components/drivers/src/pipe.o
                0x08010514                rt_pipe_delete
 .text.rt_ringbuffer_status
                0x08010590       0x50 ./rt-thread/components/drivers/src/ringbuffer.o
 .text.rt_ringbuffer_init
                0x080105e0       0xa4 ./rt-thread/components/drivers/src/ringbuffer.o
                0x080105e0                rt_ringbuffer_init
 .text.rt_ringbuffer_put
                0x08010684      0x16c ./rt-thread/components/drivers/src/ringbuffer.o
                0x08010684                rt_ringbuffer_put
 .text.rt_ringbuffer_put_force
                0x080107f0      0x1ec ./rt-thread/components/drivers/src/ringbuffer.o
                0x080107f0                rt_ringbuffer_put_force
 .text.rt_ringbuffer_get
                0x080109dc      0x15c ./rt-thread/components/drivers/src/ringbuffer.o
                0x080109dc                rt_ringbuffer_get
 .text.rt_ringbuffer_getchar
                0x08010b38       0xb4 ./rt-thread/components/drivers/src/ringbuffer.o
                0x08010b38                rt_ringbuffer_getchar
 .text.rt_ringbuffer_data_len
                0x08010bec       0x68 ./rt-thread/components/drivers/src/ringbuffer.o
                0x08010bec                rt_ringbuffer_data_len
 .text.rt_ringbuffer_create
                0x08010c54       0x74 ./rt-thread/components/drivers/src/ringbuffer.o
                0x08010c54                rt_ringbuffer_create
 .text.rt_ringbuffer_destroy
                0x08010cc8       0x3c ./rt-thread/components/drivers/src/ringbuffer.o
                0x08010cc8                rt_ringbuffer_destroy
 .text.rt_list_init
                0x08010d04       0x24 ./rt-thread/components/drivers/src/waitqueue.o
 .text.rt_list_insert_before
                0x08010d28       0x34 ./rt-thread/components/drivers/src/waitqueue.o
 .text.rt_list_remove
                0x08010d5c       0x38 ./rt-thread/components/drivers/src/waitqueue.o
 .text.rt_list_isempty
                0x08010d94       0x24 ./rt-thread/components/drivers/src/waitqueue.o
 .text.rt_wqueue_add
                0x08010db8       0x30 ./rt-thread/components/drivers/src/waitqueue.o
                0x08010db8                rt_wqueue_add
 .text.rt_wqueue_remove
                0x08010de8       0x28 ./rt-thread/components/drivers/src/waitqueue.o
                0x08010de8                rt_wqueue_remove
 .text.__wqueue_default_wake
                0x08010e10       0x18 ./rt-thread/components/drivers/src/waitqueue.o
                0x08010e10                __wqueue_default_wake
 .text.rt_wqueue_wakeup
                0x08010e28       0x80 ./rt-thread/components/drivers/src/waitqueue.o
                0x08010e28                rt_wqueue_wakeup
 .text.rt_wqueue_wait
                0x08010ea8       0xf8 ./rt-thread/components/drivers/src/waitqueue.o
                0x08010ea8                rt_wqueue_wait
 .text.rt_list_init
                0x08010fa0       0x24 ./rt-thread/components/drivers/src/workqueue.o
 .text.rt_list_insert_after
                0x08010fc4       0x34 ./rt-thread/components/drivers/src/workqueue.o
 .text.rt_list_remove
                0x08010ff8       0x38 ./rt-thread/components/drivers/src/workqueue.o
 .text.rt_list_isempty
                0x08011030       0x24 ./rt-thread/components/drivers/src/workqueue.o
 .text._workqueue_work_completion
                0x08011054       0x4c ./rt-thread/components/drivers/src/workqueue.o
 .text._workqueue_thread_entry
                0x080110a0       0x9c ./rt-thread/components/drivers/src/workqueue.o
 .text._workqueue_submit_work
                0x0801113c      0x138 ./rt-thread/components/drivers/src/workqueue.o
 .text._delayed_work_timeout_handler
                0x08011274       0xb4 ./rt-thread/components/drivers/src/workqueue.o
 .text.rt_workqueue_create
                0x08011328       0x94 ./rt-thread/components/drivers/src/workqueue.o
                0x08011328                rt_workqueue_create
 .text.rt_workqueue_submit_work
                0x080113bc       0x50 ./rt-thread/components/drivers/src/workqueue.o
                0x080113bc                rt_workqueue_submit_work
 .text.rt_work_submit
                0x0801140c       0x28 ./rt-thread/components/drivers/src/workqueue.o
                0x0801140c                rt_work_submit
 .text.rt_work_sys_workqueue_init
                0x08011434       0x4c ./rt-thread/components/drivers/src/workqueue.o
 .text.rt_poll_add
                0x08011480       0x30 ./rt-thread/components/drivers/serial/serial.o
 .text.serial_fops_rx_ind
                0x080114b0       0x20 ./rt-thread/components/drivers/serial/serial.o
 .text.serial_fops_open
                0x080114d0       0xbc ./rt-thread/components/drivers/serial/serial.o
 .text.serial_fops_close
                0x0801158c       0x28 ./rt-thread/components/drivers/serial/serial.o
 .text.serial_fops_ioctl
                0x080115b4       0x40 ./rt-thread/components/drivers/serial/serial.o
 .text.serial_fops_read
                0x080115f4       0x64 ./rt-thread/components/drivers/serial/serial.o
 .text.serial_fops_write
                0x08011658       0x2c ./rt-thread/components/drivers/serial/serial.o
 .text.serial_fops_poll
                0x08011684       0x9c ./rt-thread/components/drivers/serial/serial.o
 .text._serial_poll_rx
                0x08011720       0x80 ./rt-thread/components/drivers/serial/serial.o
 .text._serial_poll_tx
                0x080117a0       0x7c ./rt-thread/components/drivers/serial/serial.o
 .text._serial_int_rx
                0x0801181c       0xd8 ./rt-thread/components/drivers/serial/serial.o
 .text._serial_int_tx
                0x080118f4       0xc4 ./rt-thread/components/drivers/serial/serial.o
 .text._serial_check_buffer_size
                0x080119b8       0x38 ./rt-thread/components/drivers/serial/serial.o
 .text._serial_fifo_calc_recved_len
                0x080119f0       0x88 ./rt-thread/components/drivers/serial/serial.o
 .text.rt_dma_calc_recved_len
                0x08011a78       0x18 ./rt-thread/components/drivers/serial/serial.o
 .text.rt_dma_recv_update_get_index
                0x08011a90       0xa4 ./rt-thread/components/drivers/serial/serial.o
 .text.rt_dma_recv_update_put_index
                0x08011b34       0xf8 ./rt-thread/components/drivers/serial/serial.o
 .text._serial_dma_rx
                0x08011c2c      0x198 ./rt-thread/components/drivers/serial/serial.o
 .text._serial_dma_tx
                0x08011dc4       0x70 ./rt-thread/components/drivers/serial/serial.o
 .text.rt_serial_init
                0x08011e34       0x5c ./rt-thread/components/drivers/serial/serial.o
 .text.rt_serial_open
                0x08011e90      0x36c ./rt-thread/components/drivers/serial/serial.o
 .text.rt_serial_close
                0x080121fc      0x1e0 ./rt-thread/components/drivers/serial/serial.o
 .text.rt_serial_read
                0x080123dc       0x84 ./rt-thread/components/drivers/serial/serial.o
 .text.rt_serial_write
                0x08012460       0x84 ./rt-thread/components/drivers/serial/serial.o
 .text.rt_serial_control
                0x080124e4      0x308 ./rt-thread/components/drivers/serial/serial.o
 .text.rt_hw_serial_register
                0x080127ec       0xa4 ./rt-thread/components/drivers/serial/serial.o
                0x080127ec                rt_hw_serial_register
 .text.rt_hw_serial_isr
                0x08012890      0x264 ./rt-thread/components/drivers/serial/serial.o
                0x08012890                rt_hw_serial_isr
 .text._pin_read
                0x08012af4       0x60 ./rt-thread/components/drivers/misc/pin.o
 .text._pin_write
                0x08012b54       0x5c ./rt-thread/components/drivers/misc/pin.o
 .text._pin_control
                0x08012bb0       0x58 ./rt-thread/components/drivers/misc/pin.o
 .text.rt_device_pin_register
                0x08012c08       0x74 ./rt-thread/components/drivers/misc/pin.o
                0x08012c08                rt_device_pin_register
 .text.rt_pin_mode
                0x08012c7c       0x40 ./rt-thread/components/drivers/misc/pin.o
                0x08012c7c                rt_pin_mode
 .text.rt_pin_write
                0x08012cbc       0x40 ./rt-thread/components/drivers/misc/pin.o
                0x08012cbc                rt_pin_write
 .text.rt_pin_read
                0x08012cfc       0x3c ./rt-thread/components/drivers/misc/pin.o
                0x08012cfc                rt_pin_read
 .text._pwm_control
                0x08012d38       0x38 ./rt-thread/components/drivers/misc/rt_drv_pwm.o
 .text._pwm_read
                0x08012d70       0x64 ./rt-thread/components/drivers/misc/rt_drv_pwm.o
 .text._pwm_write
                0x08012dd4       0x80 ./rt-thread/components/drivers/misc/rt_drv_pwm.o
 .text.rt_device_pwm_register
                0x08012e54       0x78 ./rt-thread/components/drivers/misc/rt_drv_pwm.o
                0x08012e54                rt_device_pwm_register
 .text.rt_pwm_enable
                0x08012ecc       0x5c ./rt-thread/components/drivers/misc/rt_drv_pwm.o
                0x08012ecc                rt_pwm_enable
 .text.rt_pwm_disable
                0x08012f28       0x5c ./rt-thread/components/drivers/misc/rt_drv_pwm.o
                0x08012f28                rt_pwm_disable
 .text.rt_pwm_set
                0x08012f84       0x54 ./rt-thread/components/drivers/misc/rt_drv_pwm.o
                0x08012f84                rt_pwm_set
 .text.rt_pwm_get
                0x08012fd8       0x34 ./rt-thread/components/drivers/misc/rt_drv_pwm.o
                0x08012fd8                rt_pwm_get
 .text.pwm_enable
                0x0801300c       0x74 ./rt-thread/components/drivers/misc/rt_drv_pwm.o
 .text.pwm_disable
                0x08013080       0x74 ./rt-thread/components/drivers/misc/rt_drv_pwm.o
 .text.pwm_set  0x080130f4       0x94 ./rt-thread/components/drivers/misc/rt_drv_pwm.o
 .text.pwm_get  0x08013188      0x120 ./rt-thread/components/drivers/misc/rt_drv_pwm.o
 .text.dfs_init
                0x080132a8       0x9c ./rt-thread/components/dfs/src/dfs.o
                0x080132a8                dfs_init
 .text.dfs_lock
                0x08013344       0x48 ./rt-thread/components/dfs/src/dfs.o
                0x08013344                dfs_lock
 .text.dfs_unlock
                0x0801338c       0x14 ./rt-thread/components/dfs/src/dfs.o
                0x0801338c                dfs_unlock
 .text.fd_alloc
                0x080133a0      0x10c ./rt-thread/components/dfs/src/dfs.o
 .text.fd_new   0x080134ac       0x78 ./rt-thread/components/dfs/src/dfs.o
                0x080134ac                fd_new
 .text.fd_get   0x08013524       0x80 ./rt-thread/components/dfs/src/dfs.o
                0x08013524                fd_get
 .text.fd_put   0x080135a4       0x88 ./rt-thread/components/dfs/src/dfs.o
                0x080135a4                fd_put
 .text.fd_is_open
                0x0801362c       0xe8 ./rt-thread/components/dfs/src/dfs.o
                0x0801362c                fd_is_open
 .text.dfs_subdir
                0x08013714       0x50 ./rt-thread/components/dfs/src/dfs.o
                0x08013714                dfs_subdir
 .text.dfs_normalize_path
                0x08013764      0x208 ./rt-thread/components/dfs/src/dfs.o
                0x08013764                dfs_normalize_path
 .text.dfs_fdtable_get
                0x0801396c       0x1c ./rt-thread/components/dfs/src/dfs.o
                0x0801396c                dfs_fdtable_get
 .text.list_fd  0x08013988      0x148 ./rt-thread/components/dfs/src/dfs.o
                0x08013988                list_fd
 .text.dfs_file_open
                0x08013ad0      0x148 ./rt-thread/components/dfs/src/dfs_file.o
                0x08013ad0                dfs_file_open
 .text.dfs_file_close
                0x08013c18       0x54 ./rt-thread/components/dfs/src/dfs_file.o
                0x08013c18                dfs_file_close
 .text.dfs_file_read
                0x08013c6c       0x58 ./rt-thread/components/dfs/src/dfs_file.o
                0x08013c6c                dfs_file_read
 .text.dfs_file_getdents
                0x08013cc4       0x48 ./rt-thread/components/dfs/src/dfs_file.o
                0x08013cc4                dfs_file_getdents
 .text.dfs_file_unlink
                0x08013d0c       0xcc ./rt-thread/components/dfs/src/dfs_file.o
                0x08013d0c                dfs_file_unlink
 .text.dfs_file_write
                0x08013dd8       0x40 ./rt-thread/components/dfs/src/dfs_file.o
                0x08013dd8                dfs_file_write
 .text.dfs_file_lseek
                0x08013e18       0x4c ./rt-thread/components/dfs/src/dfs_file.o
                0x08013e18                dfs_file_lseek
 .text.dfs_file_stat
                0x08013e64      0x12c ./rt-thread/components/dfs/src/dfs_file.o
                0x08013e64                dfs_file_stat
 .text.dfs_file_rename
                0x08013f90       0xdc ./rt-thread/components/dfs/src/dfs_file.o
                0x08013f90                dfs_file_rename
 .text.ls       0x0801406c      0x120 ./rt-thread/components/dfs/src/dfs_file.o
                0x0801406c                ls
 .text.cat      0x0801418c       0x7c ./rt-thread/components/dfs/src/dfs_file.o
                0x0801418c                cat
 .text.copyfile
                0x08014208       0xe0 ./rt-thread/components/dfs/src/dfs_file.o
 .text.copydir  0x080142e8      0x18c ./rt-thread/components/dfs/src/dfs_file.o
 .text._get_path_lastname
                0x08014474       0x2c ./rt-thread/components/dfs/src/dfs_file.o
 .text.copy     0x080144a0      0x15c ./rt-thread/components/dfs/src/dfs_file.o
                0x080144a0                copy
 .text.dfs_register
                0x080145fc       0xc0 ./rt-thread/components/dfs/src/dfs_fs.o
                0x080145fc                dfs_register
 .text.dfs_filesystem_lookup
                0x080146bc       0xc4 ./rt-thread/components/dfs/src/dfs_fs.o
                0x080146bc                dfs_filesystem_lookup
 .text.dfs_mount
                0x08014780      0x244 ./rt-thread/components/dfs/src/dfs_fs.o
                0x08014780                dfs_mount
 .text.dfs_unmount
                0x080149c4       0xdc ./rt-thread/components/dfs/src/dfs_fs.o
                0x080149c4                dfs_unmount
 .text.dfs_mkfs
                0x08014aa0      0x104 ./rt-thread/components/dfs/src/dfs_fs.o
                0x08014aa0                dfs_mkfs
 .text.dfs_statfs
                0x08014ba4       0x40 ./rt-thread/components/dfs/src/dfs_fs.o
                0x08014ba4                dfs_statfs
 .text.df       0x08014be4      0x190 ./rt-thread/components/dfs/src/dfs_fs.o
                0x08014be4                df
 .text.rt_list_init
                0x08014d74       0x24 ./rt-thread/components/dfs/src/dfs_poll.o
 .text.__wqueue_pollwake
                0x08014d98       0x40 ./rt-thread/components/dfs/src/dfs_poll.o
 .text._poll_add
                0x08014dd8       0x6c ./rt-thread/components/dfs/src/dfs_poll.o
 .text.poll_table_init
                0x08014e44       0x30 ./rt-thread/components/dfs/src/dfs_poll.o
 .text.poll_wait_timeout
                0x08014e74       0x88 ./rt-thread/components/dfs/src/dfs_poll.o
 .text.do_pollfd
                0x08014efc       0x9c ./rt-thread/components/dfs/src/dfs_poll.o
 .text.poll_do  0x08014f98       0xa8 ./rt-thread/components/dfs/src/dfs_poll.o
 .text.poll_teardown
                0x08015040       0x38 ./rt-thread/components/dfs/src/dfs_poll.o
 .text.poll     0x08015078       0x3c ./rt-thread/components/dfs/src/dfs_poll.o
                0x08015078                poll
 .text.open     0x080150b4       0x6c ./rt-thread/components/dfs/src/dfs_posix.o
                0x080150b4                open
 .text.close    0x08015120       0x54 ./rt-thread/components/dfs/src/dfs_posix.o
                0x08015120                close
 .text.read     0x08015174       0x5c ./rt-thread/components/dfs/src/dfs_posix.o
                0x08015174                read
 .text.write    0x080151d0       0x5c ./rt-thread/components/dfs/src/dfs_posix.o
                0x080151d0                write
 .text.lseek    0x0801522c       0xb4 ./rt-thread/components/dfs/src/dfs_posix.o
                0x0801522c                lseek
 .text.rename   0x080152e0       0x30 ./rt-thread/components/dfs/src/dfs_posix.o
                0x080152e0                rename
 .text.unlink   0x08015310       0x2c ./rt-thread/components/dfs/src/dfs_posix.o
                0x08015310                unlink
 .text.stat     0x0801533c       0x30 ./rt-thread/components/dfs/src/dfs_posix.o
                0x0801533c                stat
 .text.mkdir    0x0801536c       0x78 ./rt-thread/components/dfs/src/dfs_posix.o
                0x0801536c                mkdir
 .text.opendir  0x080153e4       0x98 ./rt-thread/components/dfs/src/dfs_posix.o
                0x080153e4                opendir
 .text.readdir  0x0801547c       0xbc ./rt-thread/components/dfs/src/dfs_posix.o
                0x0801547c                readdir
 .text.rewinddir
                0x08015538       0x54 ./rt-thread/components/dfs/src/dfs_posix.o
                0x08015538                rewinddir
 .text.closedir
                0x0801558c       0x60 ./rt-thread/components/dfs/src/dfs_posix.o
                0x0801558c                closedir
 .text.chdir    0x080155ec       0xac ./rt-thread/components/dfs/src/dfs_posix.o
                0x080155ec                chdir
 .text.getcwd   0x08015698       0x2c ./rt-thread/components/dfs/src/dfs_posix.o
                0x08015698                getcwd
 .text.fdszero  0x080156c4       0x3c ./rt-thread/components/dfs/src/dfs_select.o
 .text.select   0x08015700      0x350 ./rt-thread/components/dfs/src/dfs_select.o
                0x08015700                select
 .text.dfs_device_fs_mount
                0x08015a50       0x1c ./rt-thread/components/dfs/filesystems/devfs/devfs.o
                0x08015a50                dfs_device_fs_mount
 .text.dfs_device_fs_ioctl
                0x08015a6c       0x60 ./rt-thread/components/dfs/filesystems/devfs/devfs.o
                0x08015a6c                dfs_device_fs_ioctl
 .text.dfs_device_fs_read
                0x08015acc       0x68 ./rt-thread/components/dfs/filesystems/devfs/devfs.o
                0x08015acc                dfs_device_fs_read
 .text.dfs_device_fs_write
                0x08015b34       0x68 ./rt-thread/components/dfs/filesystems/devfs/devfs.o
                0x08015b34                dfs_device_fs_write
 .text.dfs_device_fs_close
                0x08015b9c       0x8c ./rt-thread/components/dfs/filesystems/devfs/devfs.o
                0x08015b9c                dfs_device_fs_close
 .text.dfs_device_fs_open
                0x08015c28      0x178 ./rt-thread/components/dfs/filesystems/devfs/devfs.o
                0x08015c28                dfs_device_fs_open
 .text.dfs_device_fs_stat
                0x08015da0       0xe4 ./rt-thread/components/dfs/filesystems/devfs/devfs.o
                0x08015da0                dfs_device_fs_stat
 .text.dfs_device_fs_getdents
                0x08015e84       0xdc ./rt-thread/components/dfs/filesystems/devfs/devfs.o
                0x08015e84                dfs_device_fs_getdents
 .text.dfs_device_fs_poll
                0x08015f60       0x1c ./rt-thread/components/dfs/filesystems/devfs/devfs.o
 .text.devfs_init
                0x08015f7c       0x14 ./rt-thread/components/dfs/filesystems/devfs/devfs.o
                0x08015f7c                devfs_init
 .text.mqtt_sub_callback
                0x08015f90       0x60 ./packages/pahomqtt-v1.1.0/samples/mqtt_sample.o
 .text.mqtt_sub_default_callback
                0x08015ff0       0x60 ./packages/pahomqtt-v1.1.0/samples/mqtt_sample.o
 .text.mqtt_connect_callback
                0x08016050       0x30 ./packages/pahomqtt-v1.1.0/samples/mqtt_sample.o
 .text.mqtt_online_callback
                0x08016080       0x30 ./packages/pahomqtt-v1.1.0/samples/mqtt_sample.o
 .text.mqtt_offline_callback
                0x080160b0       0x30 ./packages/pahomqtt-v1.1.0/samples/mqtt_sample.o
 .text.mqtt_start
                0x080160e0      0x1bc ./packages/pahomqtt-v1.1.0/samples/mqtt_sample.o
 .text.mqtt_stop
                0x0801629c       0x38 ./packages/pahomqtt-v1.1.0/samples/mqtt_sample.o
 .text.mqtt_publish
                0x080162d4       0x90 ./packages/pahomqtt-v1.1.0/samples/mqtt_sample.o
 .text.mqtt_new_sub_callback
                0x08016364       0x60 ./packages/pahomqtt-v1.1.0/samples/mqtt_sample.o
 .text.mqtt_subscribe
                0x080163c4       0x74 ./packages/pahomqtt-v1.1.0/samples/mqtt_sample.o
 .text.mqtt_unsubscribe
                0x08016438       0x6c ./packages/pahomqtt-v1.1.0/samples/mqtt_sample.o
 .text.MQTTSerialize_connectLength
                0x080164a4       0xc4 ./packages/pahomqtt-v1.1.0/MQTTPacket/src/MQTTConnectClient.o
                0x080164a4                MQTTSerialize_connectLength
 .text.MQTTSerialize_connect
                0x08016568      0x1dc ./packages/pahomqtt-v1.1.0/MQTTPacket/src/MQTTConnectClient.o
                0x08016568                MQTTSerialize_connect
 .text.MQTTDeserialize_connack
                0x08016744       0xac ./packages/pahomqtt-v1.1.0/MQTTPacket/src/MQTTConnectClient.o
                0x08016744                MQTTDeserialize_connack
 .text.MQTTSerialize_zero
                0x080167f0       0x74 ./packages/pahomqtt-v1.1.0/MQTTPacket/src/MQTTConnectClient.o
                0x080167f0                MQTTSerialize_zero
 .text.MQTTSerialize_disconnect
                0x08016864       0x20 ./packages/pahomqtt-v1.1.0/MQTTPacket/src/MQTTConnectClient.o
                0x08016864                MQTTSerialize_disconnect
 .text.MQTTSerialize_pingreq
                0x08016884       0x20 ./packages/pahomqtt-v1.1.0/MQTTPacket/src/MQTTConnectClient.o
                0x08016884                MQTTSerialize_pingreq
 .text.MQTTSerialize_connack_string
                0x080168a4       0x74 ./packages/pahomqtt-v1.1.0/MQTTPacket/src/MQTTConnectClient.o
                0x080168a4                MQTTSerialize_connack_string
 .text.MQTTDeserialize_publish
                0x08016918       0xe0 ./packages/pahomqtt-v1.1.0/MQTTPacket/src/MQTTDeserializePublish.o
                0x08016918                MQTTDeserialize_publish
 .text.MQTTDeserialize_ack
                0x080169f8       0x98 ./packages/pahomqtt-v1.1.0/MQTTPacket/src/MQTTDeserializePublish.o
                0x080169f8                MQTTDeserialize_ack
 .text.MQTTPacket_encode
                0x08016a90       0x64 ./packages/pahomqtt-v1.1.0/MQTTPacket/src/MQTTPacket.o
                0x08016a90                MQTTPacket_encode
 .text.MQTTPacket_decode
                0x08016af4       0x78 ./packages/pahomqtt-v1.1.0/MQTTPacket/src/MQTTPacket.o
                0x08016af4                MQTTPacket_decode
 .text.MQTTPacket_len
                0x08016b6c       0x54 ./packages/pahomqtt-v1.1.0/MQTTPacket/src/MQTTPacket.o
                0x08016b6c                MQTTPacket_len
 .text.bufchar  0x08016bc0       0x40 ./packages/pahomqtt-v1.1.0/MQTTPacket/src/MQTTPacket.o
                0x08016bc0                bufchar
 .text.MQTTPacket_decodeBuf
                0x08016c00       0x2c ./packages/pahomqtt-v1.1.0/MQTTPacket/src/MQTTPacket.o
                0x08016c00                MQTTPacket_decodeBuf
 .text.readInt  0x08016c2c       0x38 ./packages/pahomqtt-v1.1.0/MQTTPacket/src/MQTTPacket.o
                0x08016c2c                readInt
 .text.readChar
                0x08016c64       0x28 ./packages/pahomqtt-v1.1.0/MQTTPacket/src/MQTTPacket.o
                0x08016c64                readChar
 .text.writeChar
                0x08016c8c       0x2c ./packages/pahomqtt-v1.1.0/MQTTPacket/src/MQTTPacket.o
                0x08016c8c                writeChar
 .text.writeInt
                0x08016cb8       0x5c ./packages/pahomqtt-v1.1.0/MQTTPacket/src/MQTTPacket.o
                0x08016cb8                writeInt
 .text.writeCString
                0x08016d14       0x40 ./packages/pahomqtt-v1.1.0/MQTTPacket/src/MQTTPacket.o
                0x08016d14                writeCString
 .text.writeMQTTString
                0x08016d54       0x5c ./packages/pahomqtt-v1.1.0/MQTTPacket/src/MQTTPacket.o
                0x08016d54                writeMQTTString
 .text.readMQTTLenString
                0x08016db0       0x64 ./packages/pahomqtt-v1.1.0/MQTTPacket/src/MQTTPacket.o
                0x08016db0                readMQTTLenString
 .text.MQTTstrlen
                0x08016e14       0x34 ./packages/pahomqtt-v1.1.0/MQTTPacket/src/MQTTPacket.o
                0x08016e14                MQTTstrlen
 .text.MQTTPacket_equals
                0x08016e48       0x70 ./packages/pahomqtt-v1.1.0/MQTTPacket/src/MQTTPacket.o
                0x08016e48                MQTTPacket_equals
 .text.MQTTSerialize_publishLength
                0x08016eb8       0x40 ./packages/pahomqtt-v1.1.0/MQTTPacket/src/MQTTSerializePublish.o
                0x08016eb8                MQTTSerialize_publishLength
 .text.MQTTSerialize_publish
                0x08016ef8       0xf0 ./packages/pahomqtt-v1.1.0/MQTTPacket/src/MQTTSerializePublish.o
                0x08016ef8                MQTTSerialize_publish
 .text.MQTTSerialize_ack
                0x08016fe8       0xac ./packages/pahomqtt-v1.1.0/MQTTPacket/src/MQTTSerializePublish.o
                0x08016fe8                MQTTSerialize_ack
 .text.MQTTSerialize_subscribeLength
                0x08017094       0x50 ./packages/pahomqtt-v1.1.0/MQTTPacket/src/MQTTSubscribeClient.o
                0x08017094                MQTTSerialize_subscribeLength
 .text.MQTTSerialize_subscribe
                0x080170e4       0xfc ./packages/pahomqtt-v1.1.0/MQTTPacket/src/MQTTSubscribeClient.o
                0x080170e4                MQTTSerialize_subscribe
 .text.MQTTDeserialize_suback
                0x080171e0       0xcc ./packages/pahomqtt-v1.1.0/MQTTPacket/src/MQTTSubscribeClient.o
                0x080171e0                MQTTDeserialize_suback
 .text.MQTTSerialize_unsubscribeLength
                0x080172ac       0x50 ./packages/pahomqtt-v1.1.0/MQTTPacket/src/MQTTUnsubscribeClient.o
                0x080172ac                MQTTSerialize_unsubscribeLength
 .text.MQTTSerialize_unsubscribe
                0x080172fc       0xe4 ./packages/pahomqtt-v1.1.0/MQTTPacket/src/MQTTUnsubscribeClient.o
                0x080172fc                MQTTSerialize_unsubscribe
 .text.MQTTDeserialize_unsuback
                0x080173e0       0x44 ./packages/pahomqtt-v1.1.0/MQTTPacket/src/MQTTUnsubscribeClient.o
                0x080173e0                MQTTDeserialize_unsuback
 .text.mqtt_resolve_uri
                0x08017424      0x288 ./packages/pahomqtt-v1.1.0/MQTTClient-RT/paho_mqtt_pipe.o
 .text.net_connect
                0x080176ac       0xf8 ./packages/pahomqtt-v1.1.0/MQTTClient-RT/paho_mqtt_pipe.o
 .text.net_disconnect
                0x080177a4       0x2c ./packages/pahomqtt-v1.1.0/MQTTClient-RT/paho_mqtt_pipe.o
 .text.net_disconnect_exit
                0x080177d0       0xf0 ./packages/pahomqtt-v1.1.0/MQTTClient-RT/paho_mqtt_pipe.o
 .text.sendPacket
                0x080178c0       0x60 ./packages/pahomqtt-v1.1.0/MQTTClient-RT/paho_mqtt_pipe.o
 .text.net_read
                0x08017920      0x13c ./packages/pahomqtt-v1.1.0/MQTTClient-RT/paho_mqtt_pipe.o
 .text.decodePacket
                0x08017a5c       0x84 ./packages/pahomqtt-v1.1.0/MQTTClient-RT/paho_mqtt_pipe.o
 .text.MQTTPacket_readPacket
                0x08017ae0       0xa0 ./packages/pahomqtt-v1.1.0/MQTTClient-RT/paho_mqtt_pipe.o
 .text.getNextPacketId
                0x08017b80       0x34 ./packages/pahomqtt-v1.1.0/MQTTClient-RT/paho_mqtt_pipe.o
 .text.MQTTConnect
                0x08017bb4      0x1cc ./packages/pahomqtt-v1.1.0/MQTTClient-RT/paho_mqtt_pipe.o
 .text.MQTTDisconnect
                0x08017d80       0x48 ./packages/pahomqtt-v1.1.0/MQTTClient-RT/paho_mqtt_pipe.o
 .text.MQTTSubscribe
                0x08017dc8      0x1bc ./packages/pahomqtt-v1.1.0/MQTTClient-RT/paho_mqtt_pipe.o
 .text.NewMessageData
                0x08017f84       0x24 ./packages/pahomqtt-v1.1.0/MQTTClient-RT/paho_mqtt_pipe.o
 .text.isTopicMatched
                0x08017fa8       0xd4 ./packages/pahomqtt-v1.1.0/MQTTClient-RT/paho_mqtt_pipe.o
 .text.deliverMessage
                0x0801807c       0xfc ./packages/pahomqtt-v1.1.0/MQTTClient-RT/paho_mqtt_pipe.o
 .text.MQTT_cycle
                0x08018178      0x230 ./packages/pahomqtt-v1.1.0/MQTTClient-RT/paho_mqtt_pipe.o
 .text.MQTT_local_send
                0x080183a8       0x28 ./packages/pahomqtt-v1.1.0/MQTTClient-RT/paho_mqtt_pipe.o
 .text.MQTT_CMD
                0x080183d0       0xa4 ./packages/pahomqtt-v1.1.0/MQTTClient-RT/paho_mqtt_pipe.o
                0x080183d0                MQTT_CMD
 .text.MQTTPublish
                0x08018474       0xd8 ./packages/pahomqtt-v1.1.0/MQTTClient-RT/paho_mqtt_pipe.o
                0x08018474                MQTTPublish
 .text.mqtt_pipe_init
                0x0801854c       0xfc ./packages/pahomqtt-v1.1.0/MQTTClient-RT/paho_mqtt_pipe.o
 .text.paho_mqtt_thread
                0x08018648      0x5f0 ./packages/pahomqtt-v1.1.0/MQTTClient-RT/paho_mqtt_pipe.o
 .text.paho_mqtt_start
                0x08018c38       0xd4 ./packages/pahomqtt-v1.1.0/MQTTClient-RT/paho_mqtt_pipe.o
                0x08018c38                paho_mqtt_start
 .text.paho_mqtt_stop
                0x08018d0c       0x20 ./packages/pahomqtt-v1.1.0/MQTTClient-RT/paho_mqtt_pipe.o
                0x08018d0c                paho_mqtt_stop
 .text.paho_mqtt_subscribe
                0x08018d2c      0x248 ./packages/pahomqtt-v1.1.0/MQTTClient-RT/paho_mqtt_pipe.o
                0x08018d2c                paho_mqtt_subscribe
 .text.paho_mqtt_unsubscribe
                0x08018f74      0x1d8 ./packages/pahomqtt-v1.1.0/MQTTClient-RT/paho_mqtt_pipe.o
                0x08018f74                paho_mqtt_unsubscribe
 .text.paho_mqtt_publish
                0x0801914c       0x70 ./packages/pahomqtt-v1.1.0/MQTTClient-RT/paho_mqtt_pipe.o
                0x0801914c                paho_mqtt_publish
 .text.UTC2BTC  0x080191bc      0x144 ./packages/gps_rmc-latest/gps_rmc.o
                0x080191bc                UTC2BTC
 .text.gps_date_parse
                0x08019300       0xc4 ./packages/gps_rmc-latest/gps_rmc.o
                0x08019300                gps_date_parse
 .text.gps_float_parse
                0x080193c4       0x74 ./packages/gps_rmc-latest/gps_rmc.o
                0x080193c4                gps_float_parse
 .text.gps_source_to_location_format
                0x08019438      0x100 ./packages/gps_rmc-latest/gps_rmc.o
                0x08019438                gps_source_to_location_format
 .text.gps_coord_location_format_transform
                0x08019538       0x40 ./packages/gps_rmc-latest/gps_rmc.o
                0x08019538                gps_coord_location_format_transform
 .text.gps_coord_handle
                0x08019578       0x28 ./packages/gps_rmc-latest/gps_rmc.o
                0x08019578                gps_coord_handle
 .text.gps_print_info
                0x080195a0       0xd4 ./packages/gps_rmc-latest/gps_rmc.o
                0x080195a0                gps_print_info
 *fill*         0x08019674        0x4 00000000
 .text.gps_rmc_parse
                0x08019678      0x184 ./packages/gps_rmc-latest/gps_rmc.o
                0x08019678                gps_rmc_parse
 .text.rt_slist_init
                0x080197fc       0x1c ./packages/at_device-latest/src/at_device.o
 .text.rt_slist_append
                0x08019818       0x38 ./packages/at_device-latest/src/at_device.o
 .text.at_device_get_first_initialized
                0x08019850       0x5c ./packages/at_device-latest/src/at_device.o
                0x08019850                at_device_get_first_initialized
 .text.at_device_get_by_name
                0x080198ac       0xc4 ./packages/at_device-latest/src/at_device.o
                0x080198ac                at_device_get_by_name
 .text.at_device_get_by_ipaddr
                0x08019970       0x64 ./packages/at_device-latest/src/at_device.o
                0x08019970                at_device_get_by_ipaddr
 .text.at_device_class_register
                0x080199d4       0x5c ./packages/at_device-latest/src/at_device.o
                0x080199d4                at_device_class_register
 .text.at_device_class_get
                0x08019a30       0x60 ./packages/at_device-latest/src/at_device.o
 .text.at_device_register
                0x08019a90      0x1a4 ./packages/at_device-latest/src/at_device.o
                0x08019a90                at_device_register
 .text.air720_device_register
                0x08019c34       0x30 ./packages/at_device-latest/samples/at_sample_air720.o
 .text.air720_power_on
                0x08019c64       0x50 ./packages/at_device-latest/class/air720/at_device_air720.o
 .text.air720_power_off
                0x08019cb4       0x50 ./packages/at_device-latest/class/air720/at_device_air720.o
 .text.air720_netdev_set_info
                0x08019d04      0x37c ./packages/at_device-latest/class/air720/at_device_air720.o
 .text.check_link_status_entry
                0x0801a080      0x1b0 ./packages/at_device-latest/class/air720/at_device_air720.o
 .text.air720_netdev_check_link_status
                0x0801a230       0x84 ./packages/at_device-latest/class/air720/at_device_air720.o
 .text.air720_netdev_set_up
                0x0801a2b4       0x70 ./packages/at_device-latest/class/air720/at_device_air720.o
 .text.air720_netdev_set_down
                0x0801a324       0x70 ./packages/at_device-latest/class/air720/at_device_air720.o
 .text.air720_netdev_set_dns_server
                0x0801a394       0xf8 ./packages/at_device-latest/class/air720/at_device_air720.o
 .text.air720_ping_domain_resolve
                0x0801a48c       0xe4 ./packages/at_device-latest/class/air720/at_device_air720.o
 .text.air720_netdev_ping
                0x0801a570      0x234 ./packages/at_device-latest/class/air720/at_device_air720.o
 .text.air720_netdev_netstat
                0x0801a7a4       0x14 ./packages/at_device-latest/class/air720/at_device_air720.o
                0x0801a7a4                air720_netdev_netstat
 .text.air720_netdev_add
                0x0801a7b8       0x98 ./packages/at_device-latest/class/air720/at_device_air720.o
 .text.air720_init_thread_entry
                0x0801a850      0x7c8 ./packages/at_device-latest/class/air720/at_device_air720.o
 .text.air720_net_init
                0x0801b018       0x68 ./packages/at_device-latest/class/air720/at_device_air720.o
 .text.urc_func
                0x0801b080       0x50 ./packages/at_device-latest/class/air720/at_device_air720.o
 .text.air720_init
                0x0801b0d0       0xf8 ./packages/at_device-latest/class/air720/at_device_air720.o
 .text.air720_deinit
                0x0801b1c8       0x1c ./packages/at_device-latest/class/air720/at_device_air720.o
 .text.air720_reset
                0x0801b1e4       0x5c ./packages/at_device-latest/class/air720/at_device_air720.o
 .text.air720_control
                0x0801b240       0xc0 ./packages/at_device-latest/class/air720/at_device_air720.o
 .text.air720_device_class_register
                0x0801b300       0x60 ./packages/at_device-latest/class/air720/at_device_air720.o
 .text.air720_socket_event_send
                0x0801b360       0x20 ./packages/at_device-latest/class/air720/at_socket_air720.o
 .text.air720_socket_event_recv
                0x0801b380       0x48 ./packages/at_device-latest/class/air720/at_socket_air720.o
 .text.air720_socket_close
                0x0801b3c8       0xa4 ./packages/at_device-latest/class/air720/at_socket_air720.o
 .text.air720_socket_connect
                0x0801b46c      0x214 ./packages/at_device-latest/class/air720/at_socket_air720.o
 .text.air720_socket_send
                0x0801b680      0x20c ./packages/at_device-latest/class/air720/at_socket_air720.o
 .text.air720_domain_resolve
                0x0801b88c      0x190 ./packages/at_device-latest/class/air720/at_socket_air720.o
 .text.air720_socket_set_event_cb
                0x0801ba1c       0x2c ./packages/at_device-latest/class/air720/at_socket_air720.o
 .text.urc_connect_func
                0x0801ba48       0xd0 ./packages/at_device-latest/class/air720/at_socket_air720.o
 .text.urc_send_func
                0x0801bb18       0xd0 ./packages/at_device-latest/class/air720/at_socket_air720.o
 .text.urc_close_func
                0x0801bbe8       0xf0 ./packages/at_device-latest/class/air720/at_socket_air720.o
 .text.urc_recv_func
                0x0801bcd8      0x188 ./packages/at_device-latest/class/air720/at_socket_air720.o
 .text.urc_dataaccept_func
                0x0801be60       0xb4 ./packages/at_device-latest/class/air720/at_socket_air720.o
 .text.air720_socket_init
                0x0801bf14       0x40 ./packages/at_device-latest/class/air720/at_socket_air720.o
                0x0801bf14                air720_socket_init
 .text.air720_socket_class_register
                0x0801bf54       0x3c ./packages/at_device-latest/class/air720/at_socket_air720.o
                0x0801bf54                air720_socket_class_register
 .text.n32_msp_usart_init
                0x0801bf90      0x104 ./board/msp/n32_msp.o
                0x0801bf90                n32_msp_usart_init
 .text.n32_msp_tim_init
                0x0801c094       0xd4 ./board/msp/n32_msp.o
                0x0801c094                n32_msp_tim_init
 .text.uart_test_rw
                0x0801c168       0xc4 ./board/msp/n32_msp.o
 .text.uart_test
                0x0801c22c       0x30 ./board/msp/n32_msp.o
 .text.pwm_set_test
                0x0801c25c       0x4c ./board/msp/n32_msp.o
 .text.pwm_led_sample
                0x0801c2a8       0x64 ./board/msp/n32_msp.o
 .text.pwm_led_sample_off
                0x0801c30c       0x40 ./board/msp/n32_msp.o
 .text.__NVIC_SetPriority
                0x0801c34c       0x54 ./board/board.o
 .text.SysTick_Config
                0x0801c3a0       0x44 ./board/board.o
 .text.SystemClock_Config
                0x0801c3e4       0x2c ./board/board.o
                0x0801c3e4                SystemClock_Config
 .text.SysTick_Handler
                0x0801c410       0x14 ./board/board.o
                0x0801c410                SysTick_Handler
 .text.rt_hw_board_init
                0x0801c424       0x38 ./board/board.o
                0x0801c424                rt_hw_board_init
 .text.uart_input
                0x0801c45c       0x20 ./applications/main.o
 .text.gps_rmc_sample_entry
                0x0801c47c      0x14c ./applications/main.o
                0x0801c47c                gps_rmc_sample_entry
 .text.gps_rmc_sample_entry_init
                0x0801c5c8       0xe8 ./applications/main.o
                0x0801c5c8                gps_rmc_sample_entry_init
 .text.mqtt_sub_callback
                0x0801c6b0       0x34 ./applications/main.o
 .text.mqtt_connect_callback
                0x0801c6e4       0x14 ./applications/main.o
 .text.mqtt_online_callback
                0x0801c6f8       0x24 ./applications/main.o
 .text.mqtt_offline_callback
                0x0801c71c       0x14 ./applications/main.o
 .text.mq_start
                0x0801c730      0x174 ./applications/main.o
 .text.thread_pub
                0x0801c8a4       0xcc ./applications/main.o
 .text.mqtt_test_start
                0x0801c970       0x84 ./applications/main.o
 .text.main     0x0801c9f4       0x68 ./applications/main.o
                0x0801c9f4                main
 .text.reboot   0x0801ca5c       0x18 ./Libraries/rt_drivers/drv_common.o
 .text.get_pin  0x0801ca74       0x48 ./Libraries/rt_drivers/drv_gpio.o
                0x0801ca74                get_pin
 .text.n32_pin_write
                0x0801cabc       0x54 ./Libraries/rt_drivers/drv_gpio.o
                0x0801cabc                n32_pin_write
 .text.n32_pin_read
                0x0801cb10       0x50 ./Libraries/rt_drivers/drv_gpio.o
                0x0801cb10                n32_pin_read
 .text.n32_pin_mode
                0x0801cb60       0x94 ./Libraries/rt_drivers/drv_gpio.o
                0x0801cb60                n32_pin_mode
 .text.bit2bitno
                0x0801cbf4       0x40 ./Libraries/rt_drivers/drv_gpio.o
 .text.get_pin_irq_map
                0x0801cc34       0x3c ./Libraries/rt_drivers/drv_gpio.o
 .text.n32_pin_attach_irq
                0x0801cc70      0x14c ./Libraries/rt_drivers/drv_gpio.o
                0x0801cc70                n32_pin_attach_irq
 .text.n32_pin_dettach_irq
                0x0801cdbc       0xd4 ./Libraries/rt_drivers/drv_gpio.o
                0x0801cdbc                n32_pin_dettach_irq
 .text.n32_pin_irq_enable
                0x0801ce90      0x18c ./Libraries/rt_drivers/drv_gpio.o
                0x0801ce90                n32_pin_irq_enable
 .text.n32_hw_pin_init
                0x0801d01c       0x24 ./Libraries/rt_drivers/drv_gpio.o
                0x0801d01c                n32_hw_pin_init
 .text.pin_irq_hdr
                0x0801d040       0x70 ./Libraries/rt_drivers/drv_gpio.o
 .text.EXTI0_IRQHandler
                0x0801d0b0       0x18 ./Libraries/rt_drivers/drv_gpio.o
                0x0801d0b0                EXTI0_IRQHandler
 .text.EXTI1_IRQHandler
                0x0801d0c8       0x18 ./Libraries/rt_drivers/drv_gpio.o
                0x0801d0c8                EXTI1_IRQHandler
 .text.EXTI2_IRQHandler
                0x0801d0e0       0x18 ./Libraries/rt_drivers/drv_gpio.o
                0x0801d0e0                EXTI2_IRQHandler
 .text.EXTI3_IRQHandler
                0x0801d0f8       0x18 ./Libraries/rt_drivers/drv_gpio.o
                0x0801d0f8                EXTI3_IRQHandler
 .text.EXTI4_IRQHandler
                0x0801d110       0x18 ./Libraries/rt_drivers/drv_gpio.o
                0x0801d110                EXTI4_IRQHandler
 .text.EXTI9_5_IRQHandler
                0x0801d128       0x70 ./Libraries/rt_drivers/drv_gpio.o
                0x0801d128                EXTI9_5_IRQHandler
 .text.EXTI15_10_IRQHandler
                0x0801d198       0x88 ./Libraries/rt_drivers/drv_gpio.o
                0x0801d198                EXTI15_10_IRQHandler
 .text.drv_pwm_enable
                0x0801d220       0xb8 ./Libraries/rt_drivers/drv_pwm.o
 .text.drv_pwm_get
                0x0801d2d8      0x170 ./Libraries/rt_drivers/drv_pwm.o
 .text.drv_pwm_set
                0x0801d448      0x1b4 ./Libraries/rt_drivers/drv_pwm.o
 .text.drv_pwm_control
                0x0801d5fc       0x74 ./Libraries/rt_drivers/drv_pwm.o
 .text.rt_hw_pwm_init
                0x0801d670       0xd8 ./Libraries/rt_drivers/drv_pwm.o
 .text.__NVIC_EnableIRQ
                0x0801d748       0x3c ./Libraries/rt_drivers/drv_usart.o
 .text.__NVIC_DisableIRQ
                0x0801d784       0x44 ./Libraries/rt_drivers/drv_usart.o
 .text.n32_uart_configure
                0x0801d7c8      0x140 ./Libraries/rt_drivers/drv_usart.o
 .text.n32_uart_control
                0x0801d908       0x94 ./Libraries/rt_drivers/drv_usart.o
 .text.n32_uart_putc
                0x0801d99c       0xa0 ./Libraries/rt_drivers/drv_usart.o
 .text.n32_uart_getc
                0x0801da3c       0x54 ./Libraries/rt_drivers/drv_usart.o
 .text.dma_uart_rx_idle_isr
                0x0801da90       0x78 ./Libraries/rt_drivers/drv_usart.o
 .text.dma_rx_done_isr
                0x0801db08       0x5c ./Libraries/rt_drivers/drv_usart.o
 .text.uart_isr
                0x0801db64       0xe4 ./Libraries/rt_drivers/drv_usart.o
 .text.USART1_IRQHandler
                0x0801dc48       0x1c ./Libraries/rt_drivers/drv_usart.o
                0x0801dc48                USART1_IRQHandler
 .text.DMA1_Channel5_IRQHandler
                0x0801dc64       0x1c ./Libraries/rt_drivers/drv_usart.o
                0x0801dc64                DMA1_Channel5_IRQHandler
 .text.USART2_IRQHandler
                0x0801dc80       0x1c ./Libraries/rt_drivers/drv_usart.o
                0x0801dc80                USART2_IRQHandler
 .text.DMA1_Channel6_IRQHandler
                0x0801dc9c       0x1c ./Libraries/rt_drivers/drv_usart.o
                0x0801dc9c                DMA1_Channel6_IRQHandler
 .text.USART3_IRQHandler
                0x0801dcb8       0x1c ./Libraries/rt_drivers/drv_usart.o
                0x0801dcb8                USART3_IRQHandler
 .text.DMA1_Channel3_IRQHandler
                0x0801dcd4       0x1c ./Libraries/rt_drivers/drv_usart.o
                0x0801dcd4                DMA1_Channel3_IRQHandler
 .text.NVIC_Configuration
                0x0801dcf0       0x30 ./Libraries/rt_drivers/drv_usart.o
 .text.DMA_Configuration
                0x0801dd20       0xf8 ./Libraries/rt_drivers/drv_usart.o
 .text.rt_hw_usart_init
                0x0801de18       0xe0 ./Libraries/rt_drivers/drv_usart.o
                0x0801de18                rt_hw_usart_init
 .text.NVIC_Init
                0x0801def8       0xc8 ./Libraries/N32_Std_Driver/n32g45x_std_periph_driver/src/misc.o
                0x0801def8                NVIC_Init
 .text.DMA_DeInit
                0x0801dfc0      0x1e0 ./Libraries/N32_Std_Driver/n32g45x_std_periph_driver/src/n32g45x_dma.o
                0x0801dfc0                DMA_DeInit
 .text.DMA_Init
                0x0801e1a0       0x80 ./Libraries/N32_Std_Driver/n32g45x_std_periph_driver/src/n32g45x_dma.o
                0x0801e1a0                DMA_Init
 .text.DMA_EnableChannel
                0x0801e220       0x3c ./Libraries/N32_Std_Driver/n32g45x_std_periph_driver/src/n32g45x_dma.o
                0x0801e220                DMA_EnableChannel
 .text.DMA_ConfigInt
                0x0801e25c       0x3c ./Libraries/N32_Std_Driver/n32g45x_std_periph_driver/src/n32g45x_dma.o
                0x0801e25c                DMA_ConfigInt
 .text.DMA_GetCurrDataCounter
                0x0801e298       0x1c ./Libraries/N32_Std_Driver/n32g45x_std_periph_driver/src/n32g45x_dma.o
                0x0801e298                DMA_GetCurrDataCounter
 .text.DMA_ClearFlag
                0x0801e2b4       0x1c ./Libraries/N32_Std_Driver/n32g45x_std_periph_driver/src/n32g45x_dma.o
                0x0801e2b4                DMA_ClearFlag
 .text.EXTI_InitPeripheral
                0x0801e2d0       0xe4 ./Libraries/N32_Std_Driver/n32g45x_std_periph_driver/src/n32g45x_exti.o
                0x0801e2d0                EXTI_InitPeripheral
 .text.EXTI_GetITStatus
                0x0801e3b4       0x48 ./Libraries/N32_Std_Driver/n32g45x_std_periph_driver/src/n32g45x_exti.o
                0x0801e3b4                EXTI_GetITStatus
 .text.EXTI_ClrITPendBit
                0x0801e3fc       0x20 ./Libraries/N32_Std_Driver/n32g45x_std_periph_driver/src/n32g45x_exti.o
                0x0801e3fc                EXTI_ClrITPendBit
 .text.GPIO_InitPeripheral
                0x0801e41c      0x17c ./Libraries/N32_Std_Driver/n32g45x_std_periph_driver/src/n32g45x_gpio.o
                0x0801e41c                GPIO_InitPeripheral
 .text.GPIO_InitStruct
                0x0801e598       0x28 ./Libraries/N32_Std_Driver/n32g45x_std_periph_driver/src/n32g45x_gpio.o
                0x0801e598                GPIO_InitStruct
 .text.GPIO_ReadInputDataBit
                0x0801e5c0       0x34 ./Libraries/N32_Std_Driver/n32g45x_std_periph_driver/src/n32g45x_gpio.o
                0x0801e5c0                GPIO_ReadInputDataBit
 .text.GPIO_SetBits
                0x0801e5f4       0x20 ./Libraries/N32_Std_Driver/n32g45x_std_periph_driver/src/n32g45x_gpio.o
                0x0801e5f4                GPIO_SetBits
 .text.GPIO_ResetBits
                0x0801e614       0x20 ./Libraries/N32_Std_Driver/n32g45x_std_periph_driver/src/n32g45x_gpio.o
                0x0801e614                GPIO_ResetBits
 .text.GPIO_ConfigEXTILine
                0x0801e634       0x84 ./Libraries/N32_Std_Driver/n32g45x_std_periph_driver/src/n32g45x_gpio.o
                0x0801e634                GPIO_ConfigEXTILine
 .text.RCC_ConfigTim18Clk
                0x0801e6b8       0x38 ./Libraries/N32_Std_Driver/n32g45x_std_periph_driver/src/n32g45x_rcc.o
                0x0801e6b8                RCC_ConfigTim18Clk
 .text.RCC_GetClocksFreqValue
                0x0801e6f0      0x1a0 ./Libraries/N32_Std_Driver/n32g45x_std_periph_driver/src/n32g45x_rcc.o
                0x0801e6f0                RCC_GetClocksFreqValue
 .text.RCC_EnableAHBPeriphClk
                0x0801e890       0x40 ./Libraries/N32_Std_Driver/n32g45x_std_periph_driver/src/n32g45x_rcc.o
                0x0801e890                RCC_EnableAHBPeriphClk
 .text.RCC_EnableAPB2PeriphClk
                0x0801e8d0       0x40 ./Libraries/N32_Std_Driver/n32g45x_std_periph_driver/src/n32g45x_rcc.o
                0x0801e8d0                RCC_EnableAPB2PeriphClk
 .text.RCC_EnableAPB1PeriphClk
                0x0801e910       0x40 ./Libraries/N32_Std_Driver/n32g45x_std_periph_driver/src/n32g45x_rcc.o
                0x0801e910                RCC_EnableAPB1PeriphClk
 .text.TIM_InitTimeBase
                0x0801e950      0x230 ./Libraries/N32_Std_Driver/n32g45x_std_periph_driver/src/n32g45x_tim.o
                0x0801e950                TIM_InitTimeBase
 .text.TIM_InitOc1
                0x0801eb80       0xfc ./Libraries/N32_Std_Driver/n32g45x_std_periph_driver/src/n32g45x_tim.o
                0x0801eb80                TIM_InitOc1
 .text.TIM_InitOc2
                0x0801ec7c      0x10c ./Libraries/N32_Std_Driver/n32g45x_std_periph_driver/src/n32g45x_tim.o
                0x0801ec7c                TIM_InitOc2
 .text.TIM_InitOc3
                0x0801ed88      0x108 ./Libraries/N32_Std_Driver/n32g45x_std_periph_driver/src/n32g45x_tim.o
                0x0801ed88                TIM_InitOc3
 .text.TIM_InitOc4
                0x0801ee90       0xcc ./Libraries/N32_Std_Driver/n32g45x_std_periph_driver/src/n32g45x_tim.o
                0x0801ee90                TIM_InitOc4
 .text.TIM_InitTimBaseStruct
                0x0801ef5c       0x58 ./Libraries/N32_Std_Driver/n32g45x_std_periph_driver/src/n32g45x_tim.o
                0x0801ef5c                TIM_InitTimBaseStruct
 .text.TIM_InitOcStruct
                0x0801efb4       0x44 ./Libraries/N32_Std_Driver/n32g45x_std_periph_driver/src/n32g45x_tim.o
                0x0801efb4                TIM_InitOcStruct
 .text.TIM_Enable
                0x0801eff8       0x38 ./Libraries/N32_Std_Driver/n32g45x_std_periph_driver/src/n32g45x_tim.o
                0x0801eff8                TIM_Enable
 .text.TIM_EnableCtrlPwmOutputs
                0x0801f030       0x4c ./Libraries/N32_Std_Driver/n32g45x_std_periph_driver/src/n32g45x_tim.o
                0x0801f030                TIM_EnableCtrlPwmOutputs
 .text.TIM_ConfigArPreload
                0x0801f07c       0x38 ./Libraries/N32_Std_Driver/n32g45x_std_periph_driver/src/n32g45x_tim.o
                0x0801f07c                TIM_ConfigArPreload
 .text.TIM_ConfigOc1Preload
                0x0801f0b4       0x38 ./Libraries/N32_Std_Driver/n32g45x_std_periph_driver/src/n32g45x_tim.o
                0x0801f0b4                TIM_ConfigOc1Preload
 .text.TIM_ConfigOc2Preload
                0x0801f0ec       0x3c ./Libraries/N32_Std_Driver/n32g45x_std_periph_driver/src/n32g45x_tim.o
                0x0801f0ec                TIM_ConfigOc2Preload
 .text.TIM_ConfigOc3Preload
                0x0801f128       0x38 ./Libraries/N32_Std_Driver/n32g45x_std_periph_driver/src/n32g45x_tim.o
                0x0801f128                TIM_ConfigOc3Preload
 .text.TIM_ConfigOc4Preload
                0x0801f160       0x3c ./Libraries/N32_Std_Driver/n32g45x_std_periph_driver/src/n32g45x_tim.o
                0x0801f160                TIM_ConfigOc4Preload
 .text.TIM_EnableCapCmpCh
                0x0801f19c       0x48 ./Libraries/N32_Std_Driver/n32g45x_std_periph_driver/src/n32g45x_tim.o
                0x0801f19c                TIM_EnableCapCmpCh
 .text.USART_Init
                0x0801f1e4      0x140 ./Libraries/N32_Std_Driver/n32g45x_std_periph_driver/src/n32g45x_usart.o
                0x0801f1e4                USART_Init
 .text.USART_Enable
                0x0801f324       0x40 ./Libraries/N32_Std_Driver/n32g45x_std_periph_driver/src/n32g45x_usart.o
                0x0801f324                USART_Enable
 .text.USART_ConfigInt
                0x0801f364       0x90 ./Libraries/N32_Std_Driver/n32g45x_std_periph_driver/src/n32g45x_usart.o
                0x0801f364                USART_ConfigInt
 .text.USART_EnableDMA
                0x0801f3f4       0x48 ./Libraries/N32_Std_Driver/n32g45x_std_periph_driver/src/n32g45x_usart.o
                0x0801f3f4                USART_EnableDMA
 .text.USART_ReceiveData
                0x0801f43c       0x20 ./Libraries/N32_Std_Driver/n32g45x_std_periph_driver/src/n32g45x_usart.o
                0x0801f43c                USART_ReceiveData
 .text.USART_GetFlagStatus
                0x0801f45c       0x38 ./Libraries/N32_Std_Driver/n32g45x_std_periph_driver/src/n32g45x_usart.o
                0x0801f45c                USART_GetFlagStatus
 .text.USART_ClrFlag
                0x0801f494       0x24 ./Libraries/N32_Std_Driver/n32g45x_std_periph_driver/src/n32g45x_usart.o
                0x0801f494                USART_ClrFlag
 .text.USART_GetIntStatus
                0x0801f4b8       0xb8 ./Libraries/N32_Std_Driver/n32g45x_std_periph_driver/src/n32g45x_usart.o
                0x0801f4b8                USART_GetIntStatus
 .text.USART_ClrIntPendingBit
                0x0801f570       0x3c ./Libraries/N32_Std_Driver/n32g45x_std_periph_driver/src/n32g45x_usart.o
                0x0801f570                USART_ClrIntPendingBit
 .text.Reset_Handler
                0x0801f5ac       0x44 ./Libraries/N32_Std_Driver/CMSIS/device/startup/startup_n32g45x_gcc.o
                0x0801f5ac                Reset_Handler
 .text.Default_Handler
                0x0801f5f0        0x2 ./Libraries/N32_Std_Driver/CMSIS/device/startup/startup_n32g45x_gcc.o
                0x0801f5f0                TIM8_TRG_COM_IRQHandler
                0x0801f5f0                TIM8_CC_IRQHandler
                0x0801f5f0                DebugMon_Handler
                0x0801f5f0                TIM1_CC_IRQHandler
                0x0801f5f0                TSC_IRQHandler
                0x0801f5f0                SAC_IRQHandler
                0x0801f5f0                TIM6_IRQHandler
                0x0801f5f0                PVD_IRQHandler
                0x0801f5f0                SDIO_IRQHandler
                0x0801f5f0                DMA2_Channel8_IRQHandler
                0x0801f5f0                NMI_Handler
                0x0801f5f0                CAN2_RX1_IRQHandler
                0x0801f5f0                I2C3_ER_IRQHandler
                0x0801f5f0                I2C2_EV_IRQHandler
                0x0801f5f0                UsageFault_Handler
                0x0801f5f0                CAN2_SCE_IRQHandler
                0x0801f5f0                ADC1_2_IRQHandler
                0x0801f5f0                SPI1_IRQHandler
                0x0801f5f0                TAMPER_IRQHandler
                0x0801f5f0                CAN2_RX0_IRQHandler
                0x0801f5f0                TIM8_UP_IRQHandler
                0x0801f5f0                DMA2_Channel2_IRQHandler
                0x0801f5f0                DMA1_Channel4_IRQHandler
                0x0801f5f0                DMA1_Channel7_IRQHandler
                0x0801f5f0                CAN1_RX1_IRQHandler
                0x0801f5f0                DVP_IRQHandler
                0x0801f5f0                UART5_IRQHandler
                0x0801f5f0                TIM4_IRQHandler
                0x0801f5f0                DMA2_Channel1_IRQHandler
                0x0801f5f0                I2C1_EV_IRQHandler
                0x0801f5f0                UART4_IRQHandler
                0x0801f5f0                DMA2_Channel4_IRQHandler
                0x0801f5f0                TIM3_IRQHandler
                0x0801f5f0                RCC_IRQHandler
                0x0801f5f0                TIM1_TRG_COM_IRQHandler
                0x0801f5f0                DMA1_Channel1_IRQHandler
                0x0801f5f0                Default_Handler
                0x0801f5f0                DMA2_Channel7_IRQHandler
                0x0801f5f0                DMA1_Channel8_IRQHandler
                0x0801f5f0                TIM7_IRQHandler
                0x0801f5f0                CAN2_TX_IRQHandler
                0x0801f5f0                TIM5_IRQHandler
                0x0801f5f0                I2C3_EV_IRQHandler
                0x0801f5f0                RTC_WKUP_IRQHandler
                0x0801f5f0                MMU_IRQHandler
                0x0801f5f0                ETH_WKUP_IRQHandler
                0x0801f5f0                SPI2_IRQHandler
                0x0801f5f0                MemManage_Handler
                0x0801f5f0                SVC_Handler
                0x0801f5f0                DMA2_Channel5_IRQHandler
                0x0801f5f0                USB_LP_CAN1_RX0_IRQHandler
                0x0801f5f0                USB_HP_CAN1_TX_IRQHandler
                0x0801f5f0                ETH_IRQHandler
                0x0801f5f0                TIM1_UP_IRQHandler
                0x0801f5f0                WWDG_IRQHandler
                0x0801f5f0                I2C4_EV_IRQHandler
                0x0801f5f0                DMA2_Channel6_IRQHandler
                0x0801f5f0                TIM2_IRQHandler
                0x0801f5f0                TIM1_BRK_IRQHandler
                0x0801f5f0                ADC3_4_IRQHandler
                0x0801f5f0                RTCAlarm_IRQHandler
                0x0801f5f0                UART7_IRQHandler
                0x0801f5f0                UART6_IRQHandler
                0x0801f5f0                XFMC_IRQHandler
                0x0801f5f0                I2C2_ER_IRQHandler
                0x0801f5f0                DMA1_Channel2_IRQHandler
                0x0801f5f0                TIM8_BRK_IRQHandler
                0x0801f5f0                CAN1_SCE_IRQHandler
                0x0801f5f0                FLASH_IRQHandler
                0x0801f5f0                BusFault_Handler
                0x0801f5f0                SPI3_IRQHandler
                0x0801f5f0                I2C1_ER_IRQHandler
                0x0801f5f0                QSPI_IRQHandler
                0x0801f5f0                I2C4_ER_IRQHandler
                0x0801f5f0                USBWakeUp_IRQHandler
                0x0801f5f0                DMA2_Channel3_IRQHandler
 *fill*         0x0801f5f2        0x2 00000000
 .text.SystemInit
                0x0801f5f4       0xc0 ./Libraries/N32_Std_Driver/CMSIS/device/system_n32g45x.o
                0x0801f5f4                SystemInit
 .text.SetSysClock
                0x0801f6b4      0x134 ./Libraries/N32_Std_Driver/CMSIS/device/system_n32g45x.o
 .text.atof     0x0801f7e8        0x8 d:/rt-threadstudio/repo/extract/toolchain_support_packages/arm/gnu_tools_for_arm_embedded_processors/5.4.1/bin/../lib/gcc/arm-none-eabi/5.4.1/../../../../arm-none-eabi/lib/armv7e-m/fpu\libc.a(lib_a-atof.o)
                0x0801f7e8                atof
 .text.atoi     0x0801f7f0        0x8 d:/rt-threadstudio/repo/extract/toolchain_support_packages/arm/gnu_tools_for_arm_embedded_processors/5.4.1/bin/../lib/gcc/arm-none-eabi/5.4.1/../../../../arm-none-eabi/lib/armv7e-m/fpu\libc.a(lib_a-atoi.o)
                0x0801f7f0                atoi
 .text.atol     0x0801f7f8        0x8 d:/rt-threadstudio/repo/extract/toolchain_support_packages/arm/gnu_tools_for_arm_embedded_processors/5.4.1/bin/../lib/gcc/arm-none-eabi/5.4.1/../../../../arm-none-eabi/lib/armv7e-m/fpu\libc.a(lib_a-atol.o)
                0x0801f7f8                atol
 .text._fclose_r
                0x0801f800       0x84 d:/rt-threadstudio/repo/extract/toolchain_support_packages/arm/gnu_tools_for_arm_embedded_processors/5.4.1/bin/../lib/gcc/arm-none-eabi/5.4.1/../../../../arm-none-eabi/lib/armv7e-m/fpu\libc.a(lib_a-fclose.o)
                0x0801f800                _fclose_r
 .text.fclose   0x0801f884       0x10 d:/rt-threadstudio/repo/extract/toolchain_support_packages/arm/gnu_tools_for_arm_embedded_processors/5.4.1/bin/../lib/gcc/arm-none-eabi/5.4.1/../../../../arm-none-eabi/lib/armv7e-m/fpu\libc.a(lib_a-fclose.o)
                0x0801f884                fclose
 .text.__sflush_r
                0x0801f894      0x148 d:/rt-threadstudio/repo/extract/toolchain_support_packages/arm/gnu_tools_for_arm_embedded_processors/5.4.1/bin/../lib/gcc/arm-none-eabi/5.4.1/../../../../arm-none-eabi/lib/armv7e-m/fpu\libc.a(lib_a-fflush.o)
                0x0801f894                __sflush_r
 .text._fflush_r
                0x0801f9dc       0x2c d:/rt-threadstudio/repo/extract/toolchain_support_packages/arm/gnu_tools_for_arm_embedded_processors/5.4.1/bin/../lib/gcc/arm-none-eabi/5.4.1/../../../../arm-none-eabi/lib/armv7e-m/fpu\libc.a(lib_a-fflush.o)
                0x0801f9dc                _fflush_r
 .text.fflush   0x0801fa08       0x24 d:/rt-threadstudio/repo/extract/toolchain_support_packages/arm/gnu_tools_for_arm_embedded_processors/5.4.1/bin/../lib/gcc/arm-none-eabi/5.4.1/../../../../arm-none-eabi/lib/armv7e-m/fpu\libc.a(lib_a-fflush.o)
                0x0801fa08                fflush
 .text.fileno   0x0801fa2c       0x34 d:/rt-threadstudio/repo/extract/toolchain_support_packages/arm/gnu_tools_for_arm_embedded_processors/5.4.1/bin/../lib/gcc/arm-none-eabi/5.4.1/../../../../arm-none-eabi/lib/armv7e-m/fpu\libc.a(lib_a-fileno.o)
                0x0801fa2c                fileno
 .text._cleanup_r
                0x0801fa60        0xc d:/rt-threadstudio/repo/extract/toolchain_support_packages/arm/gnu_tools_for_arm_embedded_processors/5.4.1/bin/../lib/gcc/arm-none-eabi/5.4.1/../../../../arm-none-eabi/lib/armv7e-m/fpu\libc.a(lib_a-findfp.o)
                0x0801fa60                _cleanup_r
 .text.__sinit.part.1
                0x0801fa6c       0xf0 d:/rt-threadstudio/repo/extract/toolchain_support_packages/arm/gnu_tools_for_arm_embedded_processors/5.4.1/bin/../lib/gcc/arm-none-eabi/5.4.1/../../../../arm-none-eabi/lib/armv7e-m/fpu\libc.a(lib_a-findfp.o)
 .text.__sfmoreglue
                0x0801fb5c       0x30 d:/rt-threadstudio/repo/extract/toolchain_support_packages/arm/gnu_tools_for_arm_embedded_processors/5.4.1/bin/../lib/gcc/arm-none-eabi/5.4.1/../../../../arm-none-eabi/lib/armv7e-m/fpu\libc.a(lib_a-findfp.o)
                0x0801fb5c                __sfmoreglue
 .text.__sfp    0x0801fb8c       0x88 d:/rt-threadstudio/repo/extract/toolchain_support_packages/arm/gnu_tools_for_arm_embedded_processors/5.4.1/bin/../lib/gcc/arm-none-eabi/5.4.1/../../../../arm-none-eabi/lib/armv7e-m/fpu\libc.a(lib_a-findfp.o)
                0x0801fb8c                __sfp
 .text.__sinit  0x0801fc14        0xc d:/rt-threadstudio/repo/extract/toolchain_support_packages/arm/gnu_tools_for_arm_embedded_processors/5.4.1/bin/../lib/gcc/arm-none-eabi/5.4.1/../../../../arm-none-eabi/lib/armv7e-m/fpu\libc.a(lib_a-findfp.o)
                0x0801fc14                __sinit
 .text.__sfp_lock_acquire
                0x0801fc20        0x4 d:/rt-threadstudio/repo/extract/toolchain_support_packages/arm/gnu_tools_for_arm_embedded_processors/5.4.1/bin/../lib/gcc/arm-none-eabi/5.4.1/../../../../arm-none-eabi/lib/armv7e-m/fpu\libc.a(lib_a-findfp.o)
                0x0801fc20                __sfp_lock_acquire
 .text.__sfp_lock_release
                0x0801fc24        0x4 d:/rt-threadstudio/repo/extract/toolchain_support_packages/arm/gnu_tools_for_arm_embedded_processors/5.4.1/bin/../lib/gcc/arm-none-eabi/5.4.1/../../../../arm-none-eabi/lib/armv7e-m/fpu\libc.a(lib_a-findfp.o)
                0x0801fc24                __sfp_lock_release
 .text._fopen_r
                0x0801fc28       0x8c d:/rt-threadstudio/repo/extract/toolchain_support_packages/arm/gnu_tools_for_arm_embedded_processors/5.4.1/bin/../lib/gcc/arm-none-eabi/5.4.1/../../../../arm-none-eabi/lib/armv7e-m/fpu\libc.a(lib_a-fopen.o)
                0x0801fc28                _fopen_r
 .text.fopen    0x0801fcb4       0x10 d:/rt-threadstudio/repo/extract/toolchain_support_packages/arm/gnu_tools_for_arm_embedded_processors/5.4.1/bin/../lib/gcc/arm-none-eabi/5.4.1/../../../../arm-none-eabi/lib/armv7e-m/fpu\libc.a(lib_a-fopen.o)
                0x0801fcb4                fopen
 .text._fseek_r
                0x0801fcc4        0x4 d:/rt-threadstudio/repo/extract/toolchain_support_packages/arm/gnu_tools_for_arm_embedded_processors/5.4.1/bin/../lib/gcc/arm-none-eabi/5.4.1/../../../../arm-none-eabi/lib/armv7e-m/fpu\libc.a(lib_a-fseek.o)
                0x0801fcc4                _fseek_r
 .text._fseeko_r
                0x0801fcc8      0x2c0 d:/rt-threadstudio/repo/extract/toolchain_support_packages/arm/gnu_tools_for_arm_embedded_processors/5.4.1/bin/../lib/gcc/arm-none-eabi/5.4.1/../../../../arm-none-eabi/lib/armv7e-m/fpu\libc.a(lib_a-fseeko.o)
                0x0801fcc8                _fseeko_r
 .text._fwalk   0x0801ff88       0x4c d:/rt-threadstudio/repo/extract/toolchain_support_packages/arm/gnu_tools_for_arm_embedded_processors/5.4.1/bin/../lib/gcc/arm-none-eabi/5.4.1/../../../../arm-none-eabi/lib/armv7e-m/fpu\libc.a(lib_a-fwalk.o)
                0x0801ff88                _fwalk
 .text._fwalk_reent
                0x0801ffd4       0x54 d:/rt-threadstudio/repo/extract/toolchain_support_packages/arm/gnu_tools_for_arm_embedded_processors/5.4.1/bin/../lib/gcc/arm-none-eabi/5.4.1/../../../../arm-none-eabi/lib/armv7e-m/fpu\libc.a(lib_a-fwalk.o)
                0x0801ffd4                _fwalk_reent
 .text.getc     0x08020028       0x3c d:/rt-threadstudio/repo/extract/toolchain_support_packages/arm/gnu_tools_for_arm_embedded_processors/5.4.1/bin/../lib/gcc/arm-none-eabi/5.4.1/../../../../arm-none-eabi/lib/armv7e-m/fpu\libc.a(lib_a-getc.o)
                0x08020028                getc
 .text.__get_current_locale
                0x08020064       0x18 d:/rt-threadstudio/repo/extract/toolchain_support_packages/arm/gnu_tools_for_arm_embedded_processors/5.4.1/bin/../lib/gcc/arm-none-eabi/5.4.1/../../../../arm-none-eabi/lib/armv7e-m/fpu\libc.a(lib_a-locale.o)
 .text.__locale_mb_cur_max
                0x0802007c       0x1c d:/rt-threadstudio/repo/extract/toolchain_support_packages/arm/gnu_tools_for_arm_embedded_processors/5.4.1/bin/../lib/gcc/arm-none-eabi/5.4.1/../../../../arm-none-eabi/lib/armv7e-m/fpu\libc.a(lib_a-locale.o)
                0x0802007c                __locale_mb_cur_max
 .text.__locale_ctype_ptr_l
                0x08020098        0x8 d:/rt-threadstudio/repo/extract/toolchain_support_packages/arm/gnu_tools_for_arm_embedded_processors/5.4.1/bin/../lib/gcc/arm-none-eabi/5.4.1/../../../../arm-none-eabi/lib/armv7e-m/fpu\libc.a(lib_a-locale.o)
                0x08020098                __locale_ctype_ptr_l
 .text.__locale_ctype_ptr
                0x080200a0       0x14 d:/rt-threadstudio/repo/extract/toolchain_support_packages/arm/gnu_tools_for_arm_embedded_processors/5.4.1/bin/../lib/gcc/arm-none-eabi/5.4.1/../../../../arm-none-eabi/lib/armv7e-m/fpu\libc.a(lib_a-locale.o)
                0x080200a0                __locale_ctype_ptr
 .text.__swhatbuf_r
                0x080200b4       0x60 d:/rt-threadstudio/repo/extract/toolchain_support_packages/arm/gnu_tools_for_arm_embedded_processors/5.4.1/bin/../lib/gcc/arm-none-eabi/5.4.1/../../../../arm-none-eabi/lib/armv7e-m/fpu\libc.a(lib_a-makebuf.o)
                0x080200b4                __swhatbuf_r
 .text.__smakebuf_r
                0x08020114       0x88 d:/rt-threadstudio/repo/extract/toolchain_support_packages/arm/gnu_tools_for_arm_embedded_processors/5.4.1/bin/../lib/gcc/arm-none-eabi/5.4.1/../../../../arm-none-eabi/lib/armv7e-m/fpu\libc.a(lib_a-makebuf.o)
                0x08020114                __smakebuf_r
 .text.__ascii_mbtowc
                0x0802019c       0x2c d:/rt-threadstudio/repo/extract/toolchain_support_packages/arm/gnu_tools_for_arm_embedded_processors/5.4.1/bin/../lib/gcc/arm-none-eabi/5.4.1/../../../../arm-none-eabi/lib/armv7e-m/fpu\libc.a(lib_a-mbtowc_r.o)
                0x0802019c                __ascii_mbtowc
 .text.memcmp   0x080201c8       0x64 d:/rt-threadstudio/repo/extract/toolchain_support_packages/arm/gnu_tools_for_arm_embedded_processors/5.4.1/bin/../lib/gcc/arm-none-eabi/5.4.1/../../../../arm-none-eabi/lib/armv7e-m/fpu\libc.a(lib_a-memcmp.o)
                0x080201c8                memcmp
 .text.memset   0x0802022c       0x9c d:/rt-threadstudio/repo/extract/toolchain_support_packages/arm/gnu_tools_for_arm_embedded_processors/5.4.1/bin/../lib/gcc/arm-none-eabi/5.4.1/../../../../arm-none-eabi/lib/armv7e-m/fpu\libc.a(lib_a-memset.o)
                0x0802022c                memset
 .text.printf   0x080202c8       0x28 d:/rt-threadstudio/repo/extract/toolchain_support_packages/arm/gnu_tools_for_arm_embedded_processors/5.4.1/bin/../lib/gcc/arm-none-eabi/5.4.1/../../../../arm-none-eabi/lib/armv7e-m/fpu\libc.a(lib_a-printf.o)
                0x080202c8                printf
 .text.putenv   0x080202f0       0x10 d:/rt-threadstudio/repo/extract/toolchain_support_packages/arm/gnu_tools_for_arm_embedded_processors/5.4.1/bin/../lib/gcc/arm-none-eabi/5.4.1/../../../../arm-none-eabi/lib/armv7e-m/fpu\libc.a(lib_a-putenv.o)
                0x080202f0                putenv
 .text._putenv_r
                0x08020300       0x44 d:/rt-threadstudio/repo/extract/toolchain_support_packages/arm/gnu_tools_for_arm_embedded_processors/5.4.1/bin/../lib/gcc/arm-none-eabi/5.4.1/../../../../arm-none-eabi/lib/armv7e-m/fpu\libc.a(lib_a-putenv_r.o)
                0x08020300                _putenv_r
 .text._puts_r  0x08020344       0x68 d:/rt-threadstudio/repo/extract/toolchain_support_packages/arm/gnu_tools_for_arm_embedded_processors/5.4.1/bin/../lib/gcc/arm-none-eabi/5.4.1/../../../../arm-none-eabi/lib/armv7e-m/fpu\libc.a(lib_a-puts.o)
                0x08020344                _puts_r
 .text.puts     0x080203ac       0x10 d:/rt-threadstudio/repo/extract/toolchain_support_packages/arm/gnu_tools_for_arm_embedded_processors/5.4.1/bin/../lib/gcc/arm-none-eabi/5.4.1/../../../../arm-none-eabi/lib/armv7e-m/fpu\libc.a(lib_a-puts.o)
                0x080203ac                puts
 .text.lflush   0x080203bc       0x14 d:/rt-threadstudio/repo/extract/toolchain_support_packages/arm/gnu_tools_for_arm_embedded_processors/5.4.1/bin/../lib/gcc/arm-none-eabi/5.4.1/../../../../arm-none-eabi/lib/armv7e-m/fpu\libc.a(lib_a-refill.o)
 .text.__srefill_r
                0x080203d0      0x114 d:/rt-threadstudio/repo/extract/toolchain_support_packages/arm/gnu_tools_for_arm_embedded_processors/5.4.1/bin/../lib/gcc/arm-none-eabi/5.4.1/../../../../arm-none-eabi/lib/armv7e-m/fpu\libc.a(lib_a-refill.o)
                0x080203d0                __srefill_r
 .text.__srget_r
                0x080204e4       0x34 d:/rt-threadstudio/repo/extract/toolchain_support_packages/arm/gnu_tools_for_arm_embedded_processors/5.4.1/bin/../lib/gcc/arm-none-eabi/5.4.1/../../../../arm-none-eabi/lib/armv7e-m/fpu\libc.a(lib_a-rget.o)
                0x080204e4                __srget_r
 .text._setenv_r
                0x08020518      0x188 d:/rt-threadstudio/repo/extract/toolchain_support_packages/arm/gnu_tools_for_arm_embedded_processors/5.4.1/bin/../lib/gcc/arm-none-eabi/5.4.1/../../../../arm-none-eabi/lib/armv7e-m/fpu\libc.a(lib_a-setenv_r.o)
                0x08020518                _setenv_r
 .text.setvbuf  0x080206a0      0x150 d:/rt-threadstudio/repo/extract/toolchain_support_packages/arm/gnu_tools_for_arm_embedded_processors/5.4.1/bin/../lib/gcc/arm-none-eabi/5.4.1/../../../../arm-none-eabi/lib/armv7e-m/fpu\libc.a(lib_a-setvbuf.o)
                0x080206a0                setvbuf
 .text.snprintf
                0x080207f0       0x9c d:/rt-threadstudio/repo/extract/toolchain_support_packages/arm/gnu_tools_for_arm_embedded_processors/5.4.1/bin/../lib/gcc/arm-none-eabi/5.4.1/../../../../arm-none-eabi/lib/armv7e-m/fpu\libc.a(lib_a-snprintf.o)
                0x080207f0                snprintf
 .text.sprintf  0x0802088c       0x4c d:/rt-threadstudio/repo/extract/toolchain_support_packages/arm/gnu_tools_for_arm_embedded_processors/5.4.1/bin/../lib/gcc/arm-none-eabi/5.4.1/../../../../arm-none-eabi/lib/armv7e-m/fpu\libc.a(lib_a-sprintf.o)
                0x0802088c                sprintf
 .text.sscanf   0x080208d8       0x58 d:/rt-threadstudio/repo/extract/toolchain_support_packages/arm/gnu_tools_for_arm_embedded_processors/5.4.1/bin/../lib/gcc/arm-none-eabi/5.4.1/../../../../arm-none-eabi/lib/armv7e-m/fpu\libc.a(lib_a-sscanf.o)
                0x080208d8                sscanf
 .text.__sread  0x08020930       0x24 d:/rt-threadstudio/repo/extract/toolchain_support_packages/arm/gnu_tools_for_arm_embedded_processors/5.4.1/bin/../lib/gcc/arm-none-eabi/5.4.1/../../../../arm-none-eabi/lib/armv7e-m/fpu\libc.a(lib_a-stdio.o)
                0x08020930                __sread
 .text.__seofread
                0x08020954        0x4 d:/rt-threadstudio/repo/extract/toolchain_support_packages/arm/gnu_tools_for_arm_embedded_processors/5.4.1/bin/../lib/gcc/arm-none-eabi/5.4.1/../../../../arm-none-eabi/lib/armv7e-m/fpu\libc.a(lib_a-stdio.o)
                0x08020954                __seofread
 .text.__swrite
                0x08020958       0x3c d:/rt-threadstudio/repo/extract/toolchain_support_packages/arm/gnu_tools_for_arm_embedded_processors/5.4.1/bin/../lib/gcc/arm-none-eabi/5.4.1/../../../../arm-none-eabi/lib/armv7e-m/fpu\libc.a(lib_a-stdio.o)
                0x08020958                __swrite
 .text.__sseek  0x08020994       0x20 d:/rt-threadstudio/repo/extract/toolchain_support_packages/arm/gnu_tools_for_arm_embedded_processors/5.4.1/bin/../lib/gcc/arm-none-eabi/5.4.1/../../../../arm-none-eabi/lib/armv7e-m/fpu\libc.a(lib_a-stdio.o)
                0x08020994                __sseek
 .text.__sclose
                0x080209b4        0x8 d:/rt-threadstudio/repo/extract/toolchain_support_packages/arm/gnu_tools_for_arm_embedded_processors/5.4.1/bin/../lib/gcc/arm-none-eabi/5.4.1/../../../../arm-none-eabi/lib/armv7e-m/fpu\libc.a(lib_a-stdio.o)
                0x080209b4                __sclose
 .text.strchr   0x080209bc       0xd0 d:/rt-threadstudio/repo/extract/toolchain_support_packages/arm/gnu_tools_for_arm_embedded_processors/5.4.1/bin/../lib/gcc/arm-none-eabi/5.4.1/../../../../arm-none-eabi/lib/armv7e-m/fpu\libc.a(lib_a-strchr.o)
                0x080209bc                strchr
 .text.strcpy   0x08020a8c       0xbc d:/rt-threadstudio/repo/extract/toolchain_support_packages/arm/gnu_tools_for_arm_embedded_processors/5.4.1/bin/../lib/gcc/arm-none-eabi/5.4.1/../../../../arm-none-eabi/lib/armv7e-m/fpu\libc.a(lib_a-strcpy.o)
                0x08020a8c                strcpy
 .text._strdup_r
                0x08020b48       0x28 d:/rt-threadstudio/repo/extract/toolchain_support_packages/arm/gnu_tools_for_arm_embedded_processors/5.4.1/bin/../lib/gcc/arm-none-eabi/5.4.1/../../../../arm-none-eabi/lib/armv7e-m/fpu\libc.a(lib_a-strdup_r.o)
                0x08020b48                _strdup_r
 .text.strncmp  0x08020b70       0xa0 d:/rt-threadstudio/repo/extract/toolchain_support_packages/arm/gnu_tools_for_arm_embedded_processors/5.4.1/bin/../lib/gcc/arm-none-eabi/5.4.1/../../../../arm-none-eabi/lib/armv7e-m/fpu\libc.a(lib_a-strncmp.o)
                0x08020b70                strncmp
 .text.strncpy  0x08020c10       0x68 d:/rt-threadstudio/repo/extract/toolchain_support_packages/arm/gnu_tools_for_arm_embedded_processors/5.4.1/bin/../lib/gcc/arm-none-eabi/5.4.1/../../../../arm-none-eabi/lib/armv7e-m/fpu\libc.a(lib_a-strncpy.o)
                0x08020c10                strncpy
 .text.strrchr  0x08020c78       0x24 d:/rt-threadstudio/repo/extract/toolchain_support_packages/arm/gnu_tools_for_arm_embedded_processors/5.4.1/bin/../lib/gcc/arm-none-eabi/5.4.1/../../../../arm-none-eabi/lib/armv7e-m/fpu\libc.a(lib_a-strrchr.o)
                0x08020c78                strrchr
 .text.critical_factorization
                0x08020c9c       0xb8 d:/rt-threadstudio/repo/extract/toolchain_support_packages/arm/gnu_tools_for_arm_embedded_processors/5.4.1/bin/../lib/gcc/arm-none-eabi/5.4.1/../../../../arm-none-eabi/lib/armv7e-m/fpu\libc.a(lib_a-strstr.o)
 .text.two_way_long_needle
                0x08020d54      0x200 d:/rt-threadstudio/repo/extract/toolchain_support_packages/arm/gnu_tools_for_arm_embedded_processors/5.4.1/bin/../lib/gcc/arm-none-eabi/5.4.1/../../../../arm-none-eabi/lib/armv7e-m/fpu\libc.a(lib_a-strstr.o)
 .text.strstr   0x08020f54      0x220 d:/rt-threadstudio/repo/extract/toolchain_support_packages/arm/gnu_tools_for_arm_embedded_processors/5.4.1/bin/../lib/gcc/arm-none-eabi/5.4.1/../../../../arm-none-eabi/lib/armv7e-m/fpu\libc.a(lib_a-strstr.o)
                0x08020f54                strstr
 .text.unlikely.sulp
                0x08021174       0x38 d:/rt-threadstudio/repo/extract/toolchain_support_packages/arm/gnu_tools_for_arm_embedded_processors/5.4.1/bin/../lib/gcc/arm-none-eabi/5.4.1/../../../../arm-none-eabi/lib/armv7e-m/fpu\libc.a(lib_a-strtod.o)
 *fill*         0x080211ac        0x4 00000000
 .text._strtod_l
                0x080211b0      0xed8 d:/rt-threadstudio/repo/extract/toolchain_support_packages/arm/gnu_tools_for_arm_embedded_processors/5.4.1/bin/../lib/gcc/arm-none-eabi/5.4.1/../../../../arm-none-eabi/lib/armv7e-m/fpu\libc.a(lib_a-strtod.o)
                0x080211b0                _strtod_l
 .text._strtod_r
                0x08022088       0x20 d:/rt-threadstudio/repo/extract/toolchain_support_packages/arm/gnu_tools_for_arm_embedded_processors/5.4.1/bin/../lib/gcc/arm-none-eabi/5.4.1/../../../../arm-none-eabi/lib/armv7e-m/fpu\libc.a(lib_a-strtod.o)
                0x08022088                _strtod_r
 .text.strtod   0x080220a8       0x24 d:/rt-threadstudio/repo/extract/toolchain_support_packages/arm/gnu_tools_for_arm_embedded_processors/5.4.1/bin/../lib/gcc/arm-none-eabi/5.4.1/../../../../arm-none-eabi/lib/armv7e-m/fpu\libc.a(lib_a-strtod.o)
                0x080220a8                strtod
 .text._strtol_l.isra.0
                0x080220cc      0x138 d:/rt-threadstudio/repo/extract/toolchain_support_packages/arm/gnu_tools_for_arm_embedded_processors/5.4.1/bin/../lib/gcc/arm-none-eabi/5.4.1/../../../../arm-none-eabi/lib/armv7e-m/fpu\libc.a(lib_a-strtol.o)
 .text._strtol_r
                0x08022204       0x24 d:/rt-threadstudio/repo/extract/toolchain_support_packages/arm/gnu_tools_for_arm_embedded_processors/5.4.1/bin/../lib/gcc/arm-none-eabi/5.4.1/../../../../arm-none-eabi/lib/armv7e-m/fpu\libc.a(lib_a-strtol.o)
                0x08022204                _strtol_r
 .text.strtol   0x08022228       0x2c d:/rt-threadstudio/repo/extract/toolchain_support_packages/arm/gnu_tools_for_arm_embedded_processors/5.4.1/bin/../lib/gcc/arm-none-eabi/5.4.1/../../../../arm-none-eabi/lib/armv7e-m/fpu\libc.a(lib_a-strtol.o)
                0x08022228                strtol
 *fill*         0x08022254        0x4 00000000
 .text._svfprintf_r
                0x08022258     0x16e4 d:/rt-threadstudio/repo/extract/toolchain_support_packages/arm/gnu_tools_for_arm_embedded_processors/5.4.1/bin/../lib/gcc/arm-none-eabi/5.4.1/../../../../arm-none-eabi/lib/armv7e-m/fpu\libc.a(lib_a-svfprintf.o)
                0x08022258                _svfprintf_r
 .text.__ssvfscanf_r
                0x0802393c      0xe88 d:/rt-threadstudio/repo/extract/toolchain_support_packages/arm/gnu_tools_for_arm_embedded_processors/5.4.1/bin/../lib/gcc/arm-none-eabi/5.4.1/../../../../arm-none-eabi/lib/armv7e-m/fpu\libc.a(lib_a-svfscanf.o)
                0x0802393c                __ssvfscanf_r
 *fill*         0x080247c4        0x4 00000000
 .text._vfprintf_r
                0x080247c8     0x1728 d:/rt-threadstudio/repo/extract/toolchain_support_packages/arm/gnu_tools_for_arm_embedded_processors/5.4.1/bin/../lib/gcc/arm-none-eabi/5.4.1/../../../../arm-none-eabi/lib/armv7e-m/fpu\libc.a(lib_a-vfprintf.o)
                0x080247c8                _vfprintf_r
 .text.__sbprintf
                0x08025ef0       0x6c d:/rt-threadstudio/repo/extract/toolchain_support_packages/arm/gnu_tools_for_arm_embedded_processors/5.4.1/bin/../lib/gcc/arm-none-eabi/5.4.1/../../../../arm-none-eabi/lib/armv7e-m/fpu\libc.a(lib_a-vfprintf.o)
 .text._vsnprintf_r
                0x08025f5c       0x74 d:/rt-threadstudio/repo/extract/toolchain_support_packages/arm/gnu_tools_for_arm_embedded_processors/5.4.1/bin/../lib/gcc/arm-none-eabi/5.4.1/../../../../arm-none-eabi/lib/armv7e-m/fpu\libc.a(lib_a-vsnprintf.o)
                0x08025f5c                _vsnprintf_r
 .text.vsnprintf
                0x08025fd0       0x20 d:/rt-threadstudio/repo/extract/toolchain_support_packages/arm/gnu_tools_for_arm_embedded_processors/5.4.1/bin/../lib/gcc/arm-none-eabi/5.4.1/../../../../arm-none-eabi/lib/armv7e-m/fpu\libc.a(lib_a-vsnprintf.o)
                0x08025fd0                vsnprintf
 .text._vsscanf_r
                0x08025ff0       0x48 d:/rt-threadstudio/repo/extract/toolchain_support_packages/arm/gnu_tools_for_arm_embedded_processors/5.4.1/bin/../lib/gcc/arm-none-eabi/5.4.1/../../../../arm-none-eabi/lib/armv7e-m/fpu\libc.a(lib_a-vsscanf.o)
                0x08025ff0                _vsscanf_r
 .text.vsscanf  0x08026038       0x18 d:/rt-threadstudio/repo/extract/toolchain_support_packages/arm/gnu_tools_for_arm_embedded_processors/5.4.1/bin/../lib/gcc/arm-none-eabi/5.4.1/../../../../arm-none-eabi/lib/armv7e-m/fpu\libc.a(lib_a-vsscanf.o)
                0x08026038                vsscanf
 .text.__ascii_wctomb
                0x08026050       0x1c d:/rt-threadstudio/repo/extract/toolchain_support_packages/arm/gnu_tools_for_arm_embedded_processors/5.4.1/bin/../lib/gcc/arm-none-eabi/5.4.1/../../../../arm-none-eabi/lib/armv7e-m/fpu\libc.a(lib_a-wctomb_r.o)
                0x08026050                __ascii_wctomb
 .text.__swsetup_r
                0x0802606c       0xc8 d:/rt-threadstudio/repo/extract/toolchain_support_packages/arm/gnu_tools_for_arm_embedded_processors/5.4.1/bin/../lib/gcc/arm-none-eabi/5.4.1/../../../../arm-none-eabi/lib/armv7e-m/fpu\libc.a(lib_a-wsetup.o)
                0x0802606c                __swsetup_r
 .text.startup.register_fini
                0x08026134       0x14 d:/rt-threadstudio/repo/extract/toolchain_support_packages/arm/gnu_tools_for_arm_embedded_processors/5.4.1/bin/../lib/gcc/arm-none-eabi/5.4.1/../../../../arm-none-eabi/lib/armv7e-m/fpu\libc.a(lib_a-__call_atexit.o)
 .text.atexit   0x08026148        0xc d:/rt-threadstudio/repo/extract/toolchain_support_packages/arm/gnu_tools_for_arm_embedded_processors/5.4.1/bin/../lib/gcc/arm-none-eabi/5.4.1/../../../../arm-none-eabi/lib/armv7e-m/fpu\libc.a(lib_a-atexit.o)
                0x08026148                atexit
 .text.quorem   0x08026154      0x128 d:/rt-threadstudio/repo/extract/toolchain_support_packages/arm/gnu_tools_for_arm_embedded_processors/5.4.1/bin/../lib/gcc/arm-none-eabi/5.4.1/../../../../arm-none-eabi/lib/armv7e-m/fpu\libc.a(lib_a-dtoa.o)
 *fill*         0x0802627c        0x4 00000000
 .text._dtoa_r  0x08026280      0xe34 d:/rt-threadstudio/repo/extract/toolchain_support_packages/arm/gnu_tools_for_arm_embedded_processors/5.4.1/bin/../lib/gcc/arm-none-eabi/5.4.1/../../../../arm-none-eabi/lib/armv7e-m/fpu\libc.a(lib_a-dtoa.o)
                0x08026280                _dtoa_r
 .text.__env_lock
                0x080270b4        0x4 d:/rt-threadstudio/repo/extract/toolchain_support_packages/arm/gnu_tools_for_arm_embedded_processors/5.4.1/bin/../lib/gcc/arm-none-eabi/5.4.1/../../../../arm-none-eabi/lib/armv7e-m/fpu\libc.a(lib_a-envlock.o)
                0x080270b4                __env_lock
 .text.__env_unlock
                0x080270b8        0x4 d:/rt-threadstudio/repo/extract/toolchain_support_packages/arm/gnu_tools_for_arm_embedded_processors/5.4.1/bin/../lib/gcc/arm-none-eabi/5.4.1/../../../../arm-none-eabi/lib/armv7e-m/fpu\libc.a(lib_a-envlock.o)
                0x080270b8                __env_unlock
 .text.__libc_fini_array
                0x080270bc       0x28 d:/rt-threadstudio/repo/extract/toolchain_support_packages/arm/gnu_tools_for_arm_embedded_processors/5.4.1/bin/../lib/gcc/arm-none-eabi/5.4.1/../../../../arm-none-eabi/lib/armv7e-m/fpu\libc.a(lib_a-fini.o)
                0x080270bc                __libc_fini_array
 .text.__sflags
                0x080270e4       0x74 d:/rt-threadstudio/repo/extract/toolchain_support_packages/arm/gnu_tools_for_arm_embedded_processors/5.4.1/bin/../lib/gcc/arm-none-eabi/5.4.1/../../../../arm-none-eabi/lib/armv7e-m/fpu\libc.a(lib_a-flags.o)
                0x080270e4                __sflags
 .text.__sfvwrite_r
                0x08027158      0x304 d:/rt-threadstudio/repo/extract/toolchain_support_packages/arm/gnu_tools_for_arm_embedded_processors/5.4.1/bin/../lib/gcc/arm-none-eabi/5.4.1/../../../../arm-none-eabi/lib/armv7e-m/fpu\libc.a(lib_a-fvwrite.o)
                0x08027158                __sfvwrite_r
